{
  "_format": "hh-sol-artifact-1",
  "contractName": "Anglez",
  "sourceName": "contracts/Anglez.sol",
  "abi": [
    {
      "inputs": [],
      "stateMutability": "nonpayable",
      "type": "constructor"
    },
    {
      "inputs": [],
      "name": "ApprovalCallerNotOwnerNorApproved",
      "type": "error"
    },
    {
      "inputs": [],
      "name": "ApprovalQueryForNonexistentToken",
      "type": "error"
    },
    {
      "inputs": [],
      "name": "BalanceQueryForZeroAddress",
      "type": "error"
    },
    {
      "inputs": [
        {
          "internalType": "uint256",
          "name": "numerator",
          "type": "uint256"
        },
        {
          "internalType": "uint256",
          "name": "denominator",
          "type": "uint256"
        }
      ],
      "name": "ERC2981InvalidDefaultRoyalty",
      "type": "error"
    },
    {
      "inputs": [
        {
          "internalType": "address",
          "name": "receiver",
          "type": "address"
        }
      ],
      "name": "ERC2981InvalidDefaultRoyaltyReceiver",
      "type": "error"
    },
    {
      "inputs": [
        {
          "internalType": "uint256",
          "name": "tokenId",
          "type": "uint256"
        },
        {
          "internalType": "uint256",
          "name": "numerator",
          "type": "uint256"
        },
        {
          "internalType": "uint256",
          "name": "denominator",
          "type": "uint256"
        }
      ],
      "name": "ERC2981InvalidTokenRoyalty",
      "type": "error"
    },
    {
      "inputs": [
        {
          "internalType": "uint256",
          "name": "tokenId",
          "type": "uint256"
        },
        {
          "internalType": "address",
          "name": "receiver",
          "type": "address"
        }
      ],
      "name": "ERC2981InvalidTokenRoyaltyReceiver",
      "type": "error"
    },
    {
      "inputs": [],
      "name": "InvalidQueryRange",
      "type": "error"
    },
    {
      "inputs": [],
      "name": "MintERC2309QuantityExceedsLimit",
      "type": "error"
    },
    {
      "inputs": [],
      "name": "MintToZeroAddress",
      "type": "error"
    },
    {
      "inputs": [],
      "name": "MintZeroQuantity",
      "type": "error"
    },
    {
      "inputs": [],
      "name": "NotCompatibleWithSpotMints",
      "type": "error"
    },
    {
      "inputs": [
        {
          "internalType": "address",
          "name": "owner",
          "type": "address"
        }
      ],
      "name": "OwnableInvalidOwner",
      "type": "error"
    },
    {
      "inputs": [
        {
          "internalType": "address",
          "name": "account",
          "type": "address"
        }
      ],
      "name": "OwnableUnauthorizedAccount",
      "type": "error"
    },
    {
      "inputs": [],
      "name": "OwnerQueryForNonexistentToken",
      "type": "error"
    },
    {
      "inputs": [],
      "name": "OwnershipNotInitializedForExtraData",
      "type": "error"
    },
    {
      "inputs": [],
      "name": "SequentialMintExceedsLimit",
      "type": "error"
    },
    {
      "inputs": [],
      "name": "SequentialUpToTooSmall",
      "type": "error"
    },
    {
      "inputs": [],
      "name": "SpotMintTokenIdTooSmall",
      "type": "error"
    },
    {
      "inputs": [],
      "name": "TokenAlreadyExists",
      "type": "error"
    },
    {
      "inputs": [],
      "name": "TransferCallerNotOwnerNorApproved",
      "type": "error"
    },
    {
      "inputs": [],
      "name": "TransferFromIncorrectOwner",
      "type": "error"
    },
    {
      "inputs": [],
      "name": "TransferToNonERC721ReceiverImplementer",
      "type": "error"
    },
    {
      "inputs": [],
      "name": "TransferToZeroAddress",
      "type": "error"
    },
    {
      "inputs": [],
      "name": "URIQueryForNonexistentToken",
      "type": "error"
    },
    {
      "anonymous": false,
      "inputs": [
        {
          "indexed": true,
          "internalType": "address",
          "name": "owner",
          "type": "address"
        },
        {
          "indexed": true,
          "internalType": "address",
          "name": "approved",
          "type": "address"
        },
        {
          "indexed": true,
          "internalType": "uint256",
          "name": "tokenId",
          "type": "uint256"
        }
      ],
      "name": "Approval",
      "type": "event"
    },
    {
      "anonymous": false,
      "inputs": [
        {
          "indexed": true,
          "internalType": "address",
          "name": "owner",
          "type": "address"
        },
        {
          "indexed": true,
          "internalType": "address",
          "name": "operator",
          "type": "address"
        },
        {
          "indexed": false,
          "internalType": "bool",
          "name": "approved",
          "type": "bool"
        }
      ],
      "name": "ApprovalForAll",
      "type": "event"
    },
    {
      "anonymous": false,
      "inputs": [
        {
          "indexed": true,
          "internalType": "uint256",
          "name": "fromTokenId",
          "type": "uint256"
        },
        {
          "indexed": false,
          "internalType": "uint256",
          "name": "toTokenId",
          "type": "uint256"
        },
        {
          "indexed": true,
          "internalType": "address",
          "name": "from",
          "type": "address"
        },
        {
          "indexed": true,
          "internalType": "address",
          "name": "to",
          "type": "address"
        }
      ],
      "name": "ConsecutiveTransfer",
      "type": "event"
    },
    {
      "anonymous": false,
      "inputs": [
        {
          "indexed": true,
          "internalType": "address",
          "name": "previousOwner",
          "type": "address"
        },
        {
          "indexed": true,
          "internalType": "address",
          "name": "newOwner",
          "type": "address"
        }
      ],
      "name": "OwnershipTransferred",
      "type": "event"
    },
    {
      "anonymous": false,
      "inputs": [
        {
          "indexed": true,
          "internalType": "address",
          "name": "from",
          "type": "address"
        },
        {
          "indexed": true,
          "internalType": "address",
          "name": "to",
          "type": "address"
        },
        {
          "indexed": true,
          "internalType": "uint256",
          "name": "tokenId",
          "type": "uint256"
        }
      ],
      "name": "Transfer",
      "type": "event"
    },
    {
      "inputs": [],
      "name": "TOKEN_LIMIT",
      "outputs": [
        {
          "internalType": "uint16",
          "name": "",
          "type": "uint16"
        }
      ],
      "stateMutability": "view",
      "type": "function"
    },
    {
      "inputs": [
        {
          "internalType": "address",
          "name": "to",
          "type": "address"
        },
        {
          "internalType": "uint256",
          "name": "tokenId",
          "type": "uint256"
        }
      ],
      "name": "approve",
      "outputs": [],
      "stateMutability": "payable",
      "type": "function"
    },
    {
      "inputs": [
        {
          "internalType": "address",
          "name": "owner",
          "type": "address"
        }
      ],
      "name": "balanceOf",
      "outputs": [
        {
          "internalType": "uint256",
          "name": "",
          "type": "uint256"
        }
      ],
      "stateMutability": "view",
      "type": "function"
    },
    {
      "inputs": [],
      "name": "contractURI",
      "outputs": [
        {
          "internalType": "string",
          "name": "",
          "type": "string"
        }
      ],
      "stateMutability": "pure",
      "type": "function"
    },
    {
      "inputs": [
        {
          "internalType": "uint256",
          "name": "tokenId",
          "type": "uint256"
        }
      ],
      "name": "explicitOwnershipOf",
      "outputs": [
        {
          "components": [
            {
              "internalType": "address",
              "name": "addr",
              "type": "address"
            },
            {
              "internalType": "uint64",
              "name": "startTimestamp",
              "type": "uint64"
            },
            {
              "internalType": "bool",
              "name": "burned",
              "type": "bool"
            },
            {
              "internalType": "uint24",
              "name": "extraData",
              "type": "uint24"
            }
          ],
          "internalType": "struct IERC721A.TokenOwnership",
          "name": "ownership",
          "type": "tuple"
        }
      ],
      "stateMutability": "view",
      "type": "function"
    },
    {
      "inputs": [
        {
          "internalType": "uint256[]",
          "name": "tokenIds",
          "type": "uint256[]"
        }
      ],
      "name": "explicitOwnershipsOf",
      "outputs": [
        {
          "components": [
            {
              "internalType": "address",
              "name": "addr",
              "type": "address"
            },
            {
              "internalType": "uint64",
              "name": "startTimestamp",
              "type": "uint64"
            },
            {
              "internalType": "bool",
              "name": "burned",
              "type": "bool"
            },
            {
              "internalType": "uint24",
              "name": "extraData",
              "type": "uint24"
            }
          ],
          "internalType": "struct IERC721A.TokenOwnership[]",
          "name": "",
          "type": "tuple[]"
        }
      ],
      "stateMutability": "view",
      "type": "function"
    },
    {
      "inputs": [
        {
          "internalType": "uint256",
          "name": "_tokenId",
          "type": "uint256"
        }
      ],
      "name": "generateSvg",
      "outputs": [
        {
          "internalType": "string",
          "name": "",
          "type": "string"
        }
      ],
      "stateMutability": "view",
      "type": "function"
    },
    {
      "inputs": [
        {
          "internalType": "uint256",
          "name": "tokenId",
          "type": "uint256"
        }
      ],
      "name": "getApproved",
      "outputs": [
        {
          "internalType": "address",
          "name": "",
          "type": "address"
        }
      ],
      "stateMutability": "view",
      "type": "function"
    },
    {
      "inputs": [],
      "name": "getCustomMintPrice",
      "outputs": [
        {
          "internalType": "uint256",
          "name": "",
          "type": "uint256"
        }
      ],
      "stateMutability": "view",
      "type": "function"
    },
    {
      "inputs": [],
      "name": "getRandomMintPrice",
      "outputs": [
        {
          "internalType": "uint256",
          "name": "",
          "type": "uint256"
        }
      ],
      "stateMutability": "view",
      "type": "function"
    },
    {
      "inputs": [
        {
          "internalType": "address",
          "name": "owner",
          "type": "address"
        },
        {
          "internalType": "address",
          "name": "operator",
          "type": "address"
        }
      ],
      "name": "isApprovedForAll",
      "outputs": [
        {
          "internalType": "bool",
          "name": "",
          "type": "bool"
        }
      ],
      "stateMutability": "view",
      "type": "function"
    },
    {
      "inputs": [
        {
          "internalType": "uint24",
          "name": "seed",
          "type": "uint24"
        }
      ],
      "name": "isSeedMinted",
      "outputs": [
        {
          "internalType": "bool",
          "name": "",
          "type": "bool"
        }
      ],
      "stateMutability": "view",
      "type": "function"
    },
    {
      "inputs": [
        {
          "internalType": "uint24",
          "name": "seed",
          "type": "uint24"
        },
        {
          "internalType": "uint8",
          "name": "shapeCount",
          "type": "uint8"
        },
        {
          "internalType": "uint8",
          "name": "tintRed",
          "type": "uint8"
        },
        {
          "internalType": "uint8",
          "name": "tintGreen",
          "type": "uint8"
        },
        {
          "internalType": "uint8",
          "name": "tintBlue",
          "type": "uint8"
        },
        {
          "internalType": "uint8",
          "name": "tintAlpha",
          "type": "uint8"
        },
        {
          "internalType": "bool",
          "name": "isCyclic",
          "type": "bool"
        },
        {
          "internalType": "bool",
          "name": "isChaotic",
          "type": "bool"
        }
      ],
      "name": "mintCustom",
      "outputs": [],
      "stateMutability": "payable",
      "type": "function"
    },
    {
      "inputs": [
        {
          "internalType": "uint24",
          "name": "seed",
          "type": "uint24"
        }
      ],
      "name": "mintRandom",
      "outputs": [],
      "stateMutability": "payable",
      "type": "function"
    },
    {
      "inputs": [],
      "name": "name",
      "outputs": [
        {
          "internalType": "string",
          "name": "",
          "type": "string"
        }
      ],
      "stateMutability": "view",
      "type": "function"
    },
    {
      "inputs": [],
      "name": "owner",
      "outputs": [
        {
          "internalType": "address",
          "name": "",
          "type": "address"
        }
      ],
      "stateMutability": "view",
      "type": "function"
    },
    {
      "inputs": [
        {
          "internalType": "uint256",
          "name": "tokenId",
          "type": "uint256"
        }
      ],
      "name": "ownerOf",
      "outputs": [
        {
          "internalType": "address",
          "name": "",
          "type": "address"
        }
      ],
      "stateMutability": "view",
      "type": "function"
    },
    {
      "inputs": [],
      "name": "renounceOwnership",
      "outputs": [],
      "stateMutability": "nonpayable",
      "type": "function"
    },
    {
      "inputs": [
        {
          "internalType": "uint256",
          "name": "tokenId",
          "type": "uint256"
        },
        {
          "internalType": "uint256",
          "name": "salePrice",
          "type": "uint256"
        }
      ],
      "name": "royaltyInfo",
      "outputs": [
        {
          "internalType": "address",
          "name": "",
          "type": "address"
        },
        {
          "internalType": "uint256",
          "name": "",
          "type": "uint256"
        }
      ],
      "stateMutability": "view",
      "type": "function"
    },
    {
      "inputs": [
        {
          "internalType": "address",
          "name": "from",
          "type": "address"
        },
        {
          "internalType": "address",
          "name": "to",
          "type": "address"
        },
        {
          "internalType": "uint256",
          "name": "tokenId",
          "type": "uint256"
        }
      ],
      "name": "safeTransferFrom",
      "outputs": [],
      "stateMutability": "payable",
      "type": "function"
    },
    {
      "inputs": [
        {
          "internalType": "address",
          "name": "from",
          "type": "address"
        },
        {
          "internalType": "address",
          "name": "to",
          "type": "address"
        },
        {
          "internalType": "uint256",
          "name": "tokenId",
          "type": "uint256"
        },
        {
          "internalType": "bytes",
          "name": "_data",
          "type": "bytes"
        }
      ],
      "name": "safeTransferFrom",
      "outputs": [],
      "stateMutability": "payable",
      "type": "function"
    },
    {
      "inputs": [
        {
          "internalType": "address",
          "name": "operator",
          "type": "address"
        },
        {
          "internalType": "bool",
          "name": "approved",
          "type": "bool"
        }
      ],
      "name": "setApprovalForAll",
      "outputs": [],
      "stateMutability": "nonpayable",
      "type": "function"
    },
    {
      "inputs": [
        {
          "internalType": "uint256",
          "name": "_customMintPrice",
          "type": "uint256"
        }
      ],
      "name": "setCustomMintPrice",
      "outputs": [],
      "stateMutability": "nonpayable",
      "type": "function"
    },
    {
      "inputs": [
        {
          "internalType": "uint256",
          "name": "_randomMintPrice",
          "type": "uint256"
        }
      ],
      "name": "setRandomMintPrice",
      "outputs": [],
      "stateMutability": "nonpayable",
      "type": "function"
    },
    {
      "inputs": [
        {
          "internalType": "uint256",
          "name": "tokenId",
          "type": "uint256"
        },
        {
          "internalType": "address",
          "name": "receiver",
          "type": "address"
        },
        {
          "internalType": "uint96",
          "name": "feeNumerator",
          "type": "uint96"
        }
      ],
      "name": "setTokenRoyalty",
      "outputs": [],
      "stateMutability": "nonpayable",
      "type": "function"
    },
    {
      "inputs": [
        {
          "internalType": "bytes4",
          "name": "interfaceId",
          "type": "bytes4"
        }
      ],
      "name": "supportsInterface",
      "outputs": [
        {
          "internalType": "bool",
          "name": "",
          "type": "bool"
        }
      ],
      "stateMutability": "view",
      "type": "function"
    },
    {
      "inputs": [],
      "name": "symbol",
      "outputs": [
        {
          "internalType": "string",
          "name": "",
          "type": "string"
        }
      ],
      "stateMutability": "view",
      "type": "function"
    },
    {
      "inputs": [
        {
          "internalType": "uint256",
          "name": "_tokenId",
          "type": "uint256"
        }
      ],
      "name": "tokenURI",
      "outputs": [
        {
          "internalType": "string",
          "name": "",
          "type": "string"
        }
      ],
      "stateMutability": "view",
      "type": "function"
    },
    {
      "inputs": [
        {
          "internalType": "address",
          "name": "owner",
          "type": "address"
        }
      ],
      "name": "tokensOfOwner",
      "outputs": [
        {
          "internalType": "uint256[]",
          "name": "",
          "type": "uint256[]"
        }
      ],
      "stateMutability": "view",
      "type": "function"
    },
    {
      "inputs": [
        {
          "internalType": "address",
          "name": "owner",
          "type": "address"
        },
        {
          "internalType": "uint256",
          "name": "start",
          "type": "uint256"
        },
        {
          "internalType": "uint256",
          "name": "stop",
          "type": "uint256"
        }
      ],
      "name": "tokensOfOwnerIn",
      "outputs": [
        {
          "internalType": "uint256[]",
          "name": "",
          "type": "uint256[]"
        }
      ],
      "stateMutability": "view",
      "type": "function"
    },
    {
      "inputs": [],
      "name": "totalSupply",
      "outputs": [
        {
          "internalType": "uint256",
          "name": "result",
          "type": "uint256"
        }
      ],
      "stateMutability": "view",
      "type": "function"
    },
    {
      "inputs": [
        {
          "internalType": "address",
          "name": "from",
          "type": "address"
        },
        {
          "internalType": "address",
          "name": "to",
          "type": "address"
        },
        {
          "internalType": "uint256",
          "name": "tokenId",
          "type": "uint256"
        }
      ],
      "name": "transferFrom",
      "outputs": [],
      "stateMutability": "payable",
      "type": "function"
    },
    {
      "inputs": [
        {
          "internalType": "address",
          "name": "newOwner",
          "type": "address"
        }
      ],
      "name": "transferOwnership",
      "outputs": [],
      "stateMutability": "nonpayable",
      "type": "function"
    },
    {
      "inputs": [
        {
          "internalType": "uint24",
          "name": "seed",
          "type": "uint24"
        },
        {
          "internalType": "uint8",
          "name": "shapeCount",
          "type": "uint8"
        },
        {
          "internalType": "uint8",
          "name": "tintRed",
          "type": "uint8"
        },
        {
          "internalType": "uint8",
          "name": "tintGreen",
          "type": "uint8"
        },
        {
          "internalType": "uint8",
          "name": "tintBlue",
          "type": "uint8"
        },
        {
          "internalType": "uint8",
          "name": "tintAlpha",
          "type": "uint8"
        }
      ],
      "name": "validateCustomParams",
      "outputs": [
        {
          "internalType": "bool",
          "name": "",
          "type": "bool"
        }
      ],
      "stateMutability": "view",
      "type": "function"
    },
    {
      "inputs": [],
      "name": "withdraw",
      "outputs": [],
      "stateMutability": "nonpayable",
      "type": "function"
    }
  ],
  "bytecode": "0x608060405234620001c15762000014620001fc565b60206520b733b632bd60d11b60208301526200002f6200020d565b632723a62d60e11b60208201528251929091906001600160401b038411620001bb576200006984620000636002546200021e565b6200025b565b602091601f85116001146200012a57509280620000a392620000ac956000926200011e575b50508160011b916000199060031b1c19161790565b60025562000311565b6000805533156200010557620000c2336200045c565b620000cd6000600c55565b620000de66038d7ea4c68000600d55565b600b54620000f5906001600160a01b0316620003ff565b604051613cc19081620004a68239f35b604051631e4fbdf760e01b815260006004820152602490fd5b0151905038806200008e565b60026000529190601f1985167f405787fa12a823e0f2b7631cc41b3ba8828b3321ca811111fa75cd3aa3bb5ace936000905b828210620001a2575050916001939186620000ac97941062000188575b505050811b0160025562000311565b015160001960f88460031b161c1916905538808062000179565b806001869782949787015181550196019401906200015c565b620001c6565b600080fd5b634e487b7160e01b600052604160045260246000fd5b60408051919082016001600160401b03811183821017620001bb57604052565b62000206620001dc565b9060068252565b62000217620001dc565b9060048252565b90600182811c9216801562000250575b60208310146200023a57565b634e487b7160e01b600052602260045260246000fd5b91607f16916200022e565b601f811162000268575050565b60009060026000526020600020906020601f850160051c83019410620002ab575b601f0160051c01915b8281106200029f57505050565b81815560010162000292565b909250829062000289565b601f8111620002c3575050565b60009060036000526020600020906020601f850160051c8301941062000306575b601f0160051c01915b828110620002fa57505050565b818155600101620002ed565b9092508290620002e4565b80519091906001600160401b038111620001bb576200033d81620003376003546200021e565b620002b6565b602080601f831160011462000377575081906200037293946000926200011e5750508160011b916000199060031b1c19161790565b600355565b6003600052601f198316949091907fc2575a0e9e593c00f959f8c92f12db2869c3395a3b0502d05e2516446f71f85b926000905b878210620003e6575050836001959610620003cc575b505050811b01600355565b015160001960f88460031b161c19169055388080620003c1565b80600185968294968601518155019501930190620003ab565b6001600160a01b031680156200044357604080519081016001600160401b03811182821017620001bb576040528181526103e8602090910152607d60a31b17600955565b604051635b6cc80560e11b815260006004820152602490fd5b600b80546001600160a01b039283166001600160a01b0319821681179092559091167f8be0079c531659141344cd1fd0a4f28419497f9722a3daafe3b4186f6b6457e0600080a356fe6080604052600436101561001257600080fd5b60003560e01c806301ffc9a714610247578063031bd4c41461024257806306fdde031461023d578063081812fc14610238578063095ea7b3146102335780630c0f2ce81461022e57806318160ddd1461022957806323b872dd146102245780632a55205a1461021f5780633ccfd60b1461021a57806342842e0e14610215578063476f49fa1461021057806357bf214d1461020b5780635944c753146102065780635bbb2177146102015780636352211e146101fc5780636f59b3c8146101f757806370a08231146101f2578063715018a6146101ed5780637dab8cfc146101e85780638462151c146101e35780638da5cb5b146101de57806395d89b41146101d9578063960c41d6146101d457806399a2557a146101cf578063a22cb465146101ca578063a66e0dcf146101c5578063b88d4fde146101c0578063bc921dc2146101bb578063bd2a3c62146101b6578063c23dc68f146101b1578063c87b56dd146101ac578063e8a3d485146101a7578063e985e9c5146101a25763f2fde38b1461019d57600080fd5b61181c565b6117ba565b611749565b6114e2565b61147d565b6112f6565b6112c3565b61123f565b61100a565b610f73565b610dcb565b610dad565b610ce7565b610cc0565b610b4b565b610af1565b610a9c565b610a71565b610a50565b610a21565b6109bb565b61082b565b6107f0565b6107cf565b6107ac565b61075a565b6106b0565b61069c565b610644565b6105ea565b6104c1565b610441565b610332565b6102b9565b610263565b6001600160e01b031981160361025e57565b600080fd5b3461025e57602036600319011261025e5760206004356102828161024c565b63ffffffff60e01b1663152a902d60e11b81149081156102a8575b506040519015158152f35b6301ffc9a760e01b1490503861029d565b3461025e57600036600319011261025e5760206040516102008152f35b60005b8381106102e95750506000910152565b81810151838201526020016102d9565b90602091610312815180928185528580860191016102d6565b601f01601f1916010190565b90602061032f9281815201906102f9565b90565b3461025e5760008060031936011261043e576040519080600254906001918060011c9260018216928315610434575b6020926020861085146104205785885260208801949081156103ff57506001146103a6575b6103a287610396818903826111d8565b6040519182918261031e565b0390f35b600260005294509192917f405787fa12a823e0f2b7631cc41b3ba8828b3321ca811111fa75cd3aa3bb5ace5b8386106103ee5750505091019050610396826103a23880610386565b8054858701529482019481016103d2565b60ff191685525050505090151560051b019050610396826103a23880610386565b634e487b7160e01b82526022600452602482fd5b93607f1693610361565b80fd5b3461025e57602036600319011261025e5760043561045e816120cd565b1561048457600052600660205260206001600160a01b0360406000205416604051908152f35b6333d1c03960e21b60005260046000fd5b600435906001600160a01b038216820361025e57565b602435906001600160a01b038216820361025e57565b604036600319011261025e576104d5610495565b6024356001600160a01b03806104ea83612164565b1690813303610545575b600083815260066020526040812080546001600160a01b0319166001600160a01b0387161790559316907f8c5be1e5ebec7d5bd14f71427d1e84f3dd0314c0f7b2291e5b200ac8c7c3b9258480a480f35b81600052600760205260ff610571336040600020906001600160a01b0316600052602052604060002090565b54166104f4576367d9dca160e11b60005260046000fd5b6004359062ffffff8216820361025e57565b6024359060ff8216820361025e57565b6044359060ff8216820361025e57565b6064359060ff8216820361025e57565b6084359060ff8216820361025e57565b60a4359060ff8216820361025e57565b3461025e5760c036600319011261025e57602061063a610608610588565b61061061059a565b906106196105aa565b506106226105ba565b5061062b6105ca565b506106346105da565b506118db565b6040519015158152f35b3461025e57600036600319011261025e5760206000546001549003604051908152f35b606090600319011261025e576001600160a01b0390600435828116810361025e5791602435908116810361025e579060443590565b6106ae6106a836610667565b91611966565b005b3461025e57604036600319011261025e57600435600052600a6020526040600020604051906106de82611184565b54906001600160a01b0382169182825260a01c6020820152901561074c575b6107306127106107216bffffffffffffffffffffffff602085015116602435611bb5565b0491516001600160a01b031690565b604080516001600160a01b039290921682526020820192909252f35b50610755611b1a565b6106fd565b3461025e5760008060031936011261043e576107746121e1565b808080806001600160a01b03600b541647908282156107a3575bf1156107975780f35b604051903d90823e3d90fd5b506108fc61078e565b6106ae6107b836610667565b90604051926107c6846111a0565b60008452611e4a565b3461025e57602036600319011261025e576107e86121e1565b600435600d55005b3461025e57602036600319011261025e5762ffffff61080d610588565b16600052600f602052602060ff604060002054166040519015158152f35b3461025e57606036600319011261025e576004356108476104ab565b6044356bffffffffffffffffffffffff811680820361025e576108686121e1565b612710908181116109165750506001600160a01b038216156108f6576106ae926108be6108ce926108a961089a6111fa565b6001600160a01b039096168652565b6bffffffffffffffffffffffff166020850152565b600052600a602052604060002090565b815160209092015160a01b6001600160a01b0319166001600160a01b03909216919091179055565b604051634b4f842960e11b81526004810184905260006024820152604490fd5b60649185916040519263dfd1fc1b60e01b8452600484015260248301526044820152fd5b602090602060408183019282815285518094520193019160005b828110610962575050505090565b90919293826080826109af600194895162ffffff606080926001600160a01b03815116855267ffffffffffffffff6020820151166020860152604081015115156040860152015116910152565b01950193929101610954565b3461025e57602036600319011261025e5767ffffffffffffffff60043581811161025e573660238201121561025e57806004013591821161025e573660248360051b8301011161025e576103a2916024610a159201611c03565b6040519182918261093a565b3461025e57602036600319011261025e5760206001600160a01b03610a47600435612164565b16604051908152f35b3461025e57602036600319011261025e57610a696121e1565b600435600c55005b3461025e57602036600319011261025e576020610a94610a8f610495565b611c43565b604051908152f35b3461025e5760008060031936011261043e57610ab66121e1565b806001600160a01b03600b5481198116600b55167f8be0079c531659141344cd1fd0a4f28419497f9722a3daafe3b4186f6b6457e08280a380f35b3461025e57600036600319011261025e576020600d54604051908152f35b602090602060408183019282815285518094520193019160005b828110610b37575050505090565b835185529381019392810192600101610b29565b3461025e57602036600319011261025e57610b64610495565b60005490606080918315918215610b84575b604051806103a28682610b0f565b90919250600093606093610cbb57610b9b83611c43565b9182610bb3575b505050506103a29150388080610b76565b909180939450821115610cb2575b604051936001840160051b8501604052610bd961205d565b600090610bf0610bec6040830151151590565b1590565b610ca0575b509560009360015b15610c72575b600097610c0f83612fac565b604081015115610c3757505060016000925b01976001870160051b8801604052979197610bfd565b9290925180610c6a575b50838318851b15610c55575b600190610c21565b6001909501600581901b880186905294610c4d565b925038610c41565b8082148015610c97575b15610c03575050505090506103a29250815238808080610ba2565b50858514610c7c565b516001600160a01b0316905038610bf5565b91508091610bc1565b612153565b3461025e57600036600319011261025e5760206001600160a01b03600b5416604051908152f35b3461025e5760008060031936011261043e576040519080600354906001918060011c9260018216928315610da3575b6020926020861085146104205785885260208801949081156103ff5750600114610d4a576103a287610396818903826111d8565b600360005294509192917fc2575a0e9e593c00f959f8c92f12db2869c3395a3b0502d05e2516446f71f85b5b838610610d925750505091019050610396826103a23880610386565b805485870152948201948101610d76565b93607f1693610d16565b3461025e57600036600319011261025e576020600c54604051908152f35b3461025e5760608060031936011261025e57610de5610495565b90602435916044358360609382861015610cbb5760005480841015610f4d575b50610e0f84611c43565b9183871015610f44575b82610e2d575b604051806103a28882610b0f565b90919293945085840383811115610f3c575b5060409260405195600193600591610e636001850160051b8a019a8b60405261209e565b93600094610e77610bec6040830151151590565b610f2a575b506000989495946001885b610ea7575b505050505050505050506103a2925081523880808080610e1f565b15610f0c575b600096610eb987612fac565b808b015115610ed65750508787965b0196888d8b52979697610e87565b9690965180610f04575b50838718851b15610ef3575b8890610ec8565b99880180861b8c018b905299610eec565b965038610ee0565b8086148015610f21575b15610ead5780610e8c565b50818a14610f16565b516001600160a01b0316945038610e7c565b925038610e3f565b60009250610e19565b925038610e05565b60c43590811515820361025e57565b60e43590811515820361025e57565b3461025e57604036600319011261025e57610f8c610495565b6024359081151580920361025e576001600160a01b0390336000526007602052610fcd816040600020906001600160a01b0316600052602052604060002090565b60ff1981541660ff851617905560405192835216907f17307eab39ab6107e8899845ad3d59bd9653f200f220920489ca2b5937696c3160203392a3005b61010036600319011261025e5761101f610588565b61102761059a565b61102f6105aa565b906110386105ba565b906110416105ca565b9061104a6105da565b90611053610f55565b9161105c610f64565b9360005495610200871061106f90611c7e565b600d5434101561107e90611cca565b611088848a6118db565b50611091611209565b60ff909816885260ff16602088015260ff16604087015260ff1660608601526110b8611216565b62ffffff871681529460016020870152604086015260ff1660608501525b15156080840152151560a08301526110ed3361220d565b61110190600052600e602052604060002090565b9061110b91611d16565b6111249062ffffff16600052600f602052604060002090565b805460ff19166001179055005b634e487b7160e01b600052604160045260246000fd5b60c0810190811067ffffffffffffffff82111761116357604052565b611131565b6080810190811067ffffffffffffffff82111761116357604052565b6040810190811067ffffffffffffffff82111761116357604052565b6020810190811067ffffffffffffffff82111761116357604052565b6060810190811067ffffffffffffffff82111761116357604052565b90601f8019910116810190811067ffffffffffffffff82111761116357604052565b6040519061120782611184565b565b6040519061120782611168565b6040519061120782611147565b67ffffffffffffffff811161116357601f01601f191660200190565b608036600319011261025e57611253610495565b61125b6104ab565b6064359167ffffffffffffffff831161025e573660238401121561025e5782600401359161128883611223565b9261129660405194856111d8565b808452366024828701011161025e5760208160009260246106ae9801838801378501015260443591611e4a565b3461025e57602036600319011261025e576103a26112e2600435611ec2565b6040519182916020835260208301906102f9565b602036600319011261025e5761130a610588565b60005461131a6102008210611c7e565b600c5434101561132990611cca565b6113428262ffffff16600052600f602052604060002090565b5460ff1615611350906118a3565b611358611f5e565b61136190612c5c565b61136f62ffffff8316612c8f565b61137882611f97565b62ffffff1661138690612d7a565b9061139083611fab565b62ffffff1661139e90612da9565b916113a884611fbf565b62ffffff166113b690612da9565b906113c085611fd3565b62ffffff166113ce90612da9565b906113d886611fe7565b62ffffff166113e690612dca565b6113ef90611b56565b6064900460ff166113ff87611ffb565b62ffffff1661140d90612df6565b6001149261141a8861200f565b62ffffff1661142890612df6565b60011494611434611209565b60ff909816885260ff16602088015260ff16604087015260ff16606086015261145b611216565b62ffffff871681529460006020870152604086015260ff1660608501526110d6565b3461025e57602036600319011261025e57608061149b60043561209e565b6114e0604051809262ffffff606080926001600160a01b03815116855267ffffffffffffffff6020820151166020860152604081015115156040860152015116910152565bf35b3461025e57602036600319011261025e576103a261162760043561150d611508826120cd565b611e8d565b61173f611519826130e4565b82600052600e6020526117316117236040946116216116fa6115d96115d3896000206115ce8b600281519361154d85611147565b80549262ffffff8416865260ff809460181c161515602087015280519061157382611168565b8460018401548181168452818160081c166020850152818160101c168385015260181c16606083015286015201546115b3828216606086019060ff169052565b600881901c82161515608085015260101c16151560a0830152565b613240565b93611ec2565b9261162189519a8b9861162160208b016025907f646174613a6170706c69636174696f6e2f6a736f6e2c7b226e616d65223a224e815264474c5a202360d81b60208201520190565b906120b6565b7f3a2062656175746966756c2c20636f6c6f7266756c2c2061627374726163742081527f616e676c657a222c226465736372697074696f6e223a2022416e676c657a206960208201527f732061627374726163742c206f6e2d636861696e2c2067656e6572617469766560408201527f204e465420617274206372656174656420627920766f6c7374726174652c206360608201527f7573746f6d6973656420627920796f752e202d2068747470733a2f2f616e676c608082015268032bd173c3cbd1116160bd1b60a082015260a90190565b7f2c2022696d616765223a2022646174613a696d6167652f7376672b786d6c2c008152601f0190565b61227d60f01b815260020190565b03601f1981018452836111d8565b519182918261031e565b3461025e57600036600319011261025e576103a2604051611769816111bc565b602a81527f68747470733a2f2f7777772e616e676c657a2e78797a2f73746f726566726f6e602082015269742d6d6574616461746160b01b60408201526040519182916020835260208301906102f9565b3461025e57604036600319011261025e57602060ff6118106117da610495565b6001600160a01b036117ea6104ab565b9116600052600784526040600020906001600160a01b0316600052602052604060002090565b54166040519015158152f35b3461025e57602036600319011261025e57611835610495565b61183d6121e1565b6001600160a01b0380911690811561188a57600b54826001600160a01b0319821617600b55167f8be0079c531659141344cd1fd0a4f28419497f9722a3daafe3b4186f6b6457e0600080a3005b604051631e4fbdf760e01b815260006004820152602490fd5b156118aa57565b60405162461bcd60e51b815260206004820152600960248201526814d1515117d554d15160ba1b6044820152606490fd5b9062ffffff60ff9216600052600f6020526118fd8260406000205416156118a3565b166002811015908161195a575b501561191557600190565b60405162461bcd60e51b815260206004820152601360248201527f494e56414c49445f53484150455f434f554e54000000000000000000000000006044820152606490fd5b6014915011153861190a565b91909161197282612164565b926001600160a01b03809216938483821603611b1557600084815260066020526040902080546119b16001600160a01b03881633908114908314171590565b611ac5575b611abb575b506119d9856001600160a01b03166000526005602052604060002090565b80546000190190556119fe826001600160a01b03166000526005602052604060002090565b805460010190556001600160a01b0382164260a01b17600160e11b17611a2e856000526004602052604060002090565b55600160e11b811615611a71575b501680927fddf252ad1be2c89b69c2b068fc378daa952ba7f163c4a11628f55a4df523b3ef600080a415611a6c57565b612131565b60018401611a89816000526004602052604060002090565b5415611a96575b50611a3c565b6000548114611a9057611ab3906000526004602052604060002090565b553880611a90565b60009055386119bb565b611b0b610bec611b0433611aec8b6001600160a01b03166000526007602052604060002090565b906001600160a01b0316600052602052604060002090565b5460ff1690565b156119b657612120565b612110565b60405190611b2782611184565b6009546001600160a01b038116835260a01c6020830152565b634e487b7160e01b600052601160045260246000fd5b9060ff82029180830460ff1490151715611b6c57565b611b40565b600181901b91906001600160ff1b03811603611b6c57565b908160011b9180830460021490151715611b6c57565b90606482029180830460641490151715611b6c57565b81810292918115918404141715611b6c57565b634e487b7160e01b600052601260045260246000fd5b8015611beb576101680490565b611bc8565b60405190611bfd826111a0565b60008252565b6040519180835260051b6020818401016040525b80818015611c3c57611c3390601f19809101938501013561209e565b90840152611c17565b5050505090565b6001600160a01b03168015611c6d57600052600560205267ffffffffffffffff6040600020541690565b6323d3ad8160e21b60005260046000fd5b15611c8557565b60405162461bcd60e51b815260206004820152601360248201527f544f4b454e5f4c494d49545f52454143484544000000000000000000000000006044820152606490fd5b15611cd157565b60405162461bcd60e51b815260206004820152601460248201527f494e53554646494349454e545f5041594d454e540000000000000000000000006044820152606490fd5b90611e2d60a0600261120794611d5562ffffff86511662ffffff19835416178083556020870151151563ff0000009060181b169063ff00000019161790565b815560018101611dd66040870151611d7b60ff825116849060ff1660ff19825416179055565b60ff6060611dbc611da18360208601511687549061ff009060081b169061ff0019161790565b8360408601511662ff00009060101b169062ff000019161790565b9201511663ff0000009060181b169063ff00000019161790565b90550192611dfb611deb606083015160ff1690565b855460ff191660ff909116178555565b611e26611e0b6080830151151590565b858054909161ff001990911690151560081b61ff0016179055565b0151151590565b908054909162ff00001990911690151560101b62ff000016179055565b929190611e58828286611966565b803b611e65575b50505050565b611e6e93612320565b15611e7c5738808080611e5f565b6368d2bf6b60e11b60005260046000fd5b15611e9457565b60405162461bcd60e51b815260206004820152600660248201526510905117d25160d21b6044820152606490fd5b611ece611508826120cd565b600052600e60205261032f6040600020611f5960405191611eee83611147565b600281549162ffffff8316855260ff809360181c1615156020860152604051611f1681611168565b8360018301548181168352818160081c166020840152818160101c16604084015260181c166060820152604086015201546115b3828216606086019060ff169052565b6123d8565b60405190611f6b82611184565b601382527f4d696e74696e67207769746820736565643a20000000000000000000000000006020830152565b90600562ffffff80931601918211611b6c57565b90600662ffffff80931601918211611b6c57565b90600762ffffff80931601918211611b6c57565b90600862ffffff80931601918211611b6c57565b90600962ffffff80931601918211611b6c57565b90600462ffffff80931601918211611b6c57565b90600b62ffffff80931601918211611b6c57565b9061012c62ffffff80931601918211611b6c57565b6040519061204582611168565b60006060838281528260208201528260408201520152565b600090600061206a612038565b92600054612076575050565b92505b808352600460205260408320546120935760001901612079565b61032f919250612fac565b906120a7612038565b91600080548210612076575050565b906120c9602092828151948592016102d6565b0190565b906000916000805482106120df575050565b92505b808352600460205260408320548061210457508015611b6c57600019016120e2565b600160e01b1615925050565b62a1148160e81b60005260046000fd5b632ce44b5f60e11b60005260046000fd5b633a954ecd60e21b60005260046000fd5b636f96cda160e11b60005260046000fd5b631960ccad60e11b60005260046000fd5b612178816000526004602052604060002090565b5490811561218f5750600160e01b81166121425790565b9050600090600054811015612142575b600019016000818152600460205260409020549081156121da5750600160e01b8116156121d557636f96cda160e11b8252600482fd5b905090565b905061219f565b6001600160a01b03600b541633036121f557565b60405163118cdaa760e01b8152336004820152602490fd5b60008054916001600160a01b03908082164260a01b17600160e11b1761223d856000526004602052604060002090565b5561225b816001600160a01b03166000526005602052604060002090565b6801000000000000000181540190551680156122cd57600183810193919080805b612288575b5050505055565b156122bc575b83818484877fddf252ad1be2c89b69c2b068fc378daa952ba7f163c4a11628f55a4df523b3ef8180a461227c565b8092019184830361228e5780612281565b622e076360e81b8252600482fd5b9081602091031261025e575161032f8161024c565b3d1561231b573d9061230182611223565b9161230f60405193846111d8565b82523d6000602084013e565b606090565b9260209161236a9360006001600160a01b0360405180978196829584630a85bd0160e11b9c8d865233600487015216602485015260448401526080606484015260848301906102f9565b0393165af1600091816123a7575b50612399576123856122f0565b80511561239457805190602001fd5b611e7c565b6001600160e01b0319161490565b6123ca91925060203d6020116123d1575b6123c281836111d8565b8101906122db565b9038612378565b503d6123b8565b608081015190919015612c54576123fe62ffffff6123f881855116612023565b16612e10565b915b612408611bf0565b926103e893600091858361242a612422875162ffffff1690565b62ffffff1690565b9785945b61244561243f60608a015160ff1690565b60ff1690565b861015612a3857899061245e6124596135c4565b612c5c565b61246782612c8f565b6124796124748884612d6d565b612e3c565b87612482611bf0565b9160005b8582821061294b575050505061249d6124596135fd565b6124a688612c8f565b6124af81612c5c565b6004871015612920576124d26124cd6124c88a86612d6d565b612cef565b612ee2565b506124ed6124e86124e38a86612d6d565b612cfd565b612f0e565b60018803612904576001918b918a915b612505611bf0565b948b60009261251383611bde565b9380925b8484106127b35750505050505061252e8287612d6d565b61253790612d19565b61254090612f91565b9561254a836130e4565b96612554906130e4565b61255e8483612d6d565b61256790612d27565b6040809601908151612578916137eb565b926125838682612d6d565b61258c90612d35565b8251612597916137eb565b946125a1906130e4565b956125ab91612d6d565b6125b490612d19565b90516125bf916137eb565b9451978897602089016125d1916120b6565b7f3c6c696e6561724772616469656e742069643d276772616469656e74000000008152601c01612600916120b6565b7f27206772616469656e745472616e73666f726d3d27726f7461746528000000008152601c0161262f916120b6565b6214939f60e91b81526003017f3c73746f70206f66667365743d273025272073746f702d636f6c6f723d2700008152601e0161266a916120b6565b6213979f60e91b81526003017f3c73746f70206f66667365743d27353025272073746f702d636f6c6f723d27008152601f016126a5916120b6565b7f272073746f702d6f7061636974793d27302e000000000000000000000000000081526012016126d4916120b6565b6213979f60e91b81526003017f3c73746f70206f66667365743d2731303025272073746f702d636f6c6f723d27815260200161270f916120b6565b6213979f60e91b81526003017f3c2f6c696e6561724772616469656e743e000000000000000000000000000000815260110161274a916120b6565b03601f198101825261275c90826111d8565b9461276561361f565b61276e90612c5c565b6127778a612c8f565b60a088015161279f575b60019061278f612459613658565b6127988b612c8f565b019461242e565b986127ab600191612d43565b999050612781565b85999193959792949698506127f36127ca856130e4565b938d60046127d7836130e4565b9410156128ef576124c86127ee926124cd92612d6d565b6130e4565b9060405193849360208501612807916120b6565b7f3c706f6c79676f6e20706f696e74733d27000000000000000000000000000000815260110161283790886120b6565b7f27207472616e73666f726d3d27726f74617465280000000000000000000000008152601401612866916120b6565b7f2c203530302c2035303029272066696c6c3d2775726c28236772616469656e748152602001612895916120b6565b6d14939037b830b1b4ba3c9e93981760911b8152600e016128b5916120b6565b631390179f60e11b815260040103601f19810182526128d490826111d8565b966128de91612d6d565b916001018f9593918e95938e612517565b6124c86127ee926128ff92612d6d565b612e8a565b6129168861291186612d0b565b612f3a565b918b918a916124fd565b6129306128ff6124c88a86612d6d565b506129466129416124e38a86612d6d565b612eb6565b6124ed565b6129e961299161298061298c8561297661298561298061297b846129768e9f9c9d9e6116219c612d6d565b612d6d565b612cd3565b612e68565b9a8d612d6d565b612ce1565b926129db6129ce6129a1896130e4565b6116216129c16129b0896130e4565b9260405198899760208901906120b6565b600b60fa1b815260010190565b600160fd1b815260010190565b03601f1981018352826111d8565b938c8111612a30575b898110612a28575b50868110612a20575b878111612a17575b50600101908991612486565b96506001612a0b565b955085612a03565b9850386129fa565b9b508b6129f2565b95612b5498995061032f97506129ce955090612b629391612b749593612a5e8483612cc6565b916001612a6b8584612cc6565b9603612b805750506129ce612ae093926116216129ce612acc612ac6612ac0612aba612ab4612aae612aa8612aa26116219c612d43565b9c6137be565b9d612d43565b976137be565b9b6139b3565b9a6139b3565b976130e4565b936130e4565b956116216040519c8d9a60208c01906120b6565b0393612af4601f19958681018652856111d8565b611621604051978895611621602088016031907f3c73766720786d6c6e733d27687474703a2f2f7777772e77332e6f72672f323081527f30302f737667272076696577426f783d2700000000000000000000000000000060208201520190565b61139f60f11b815260020190565b651e17b9bb339f60d11b815260060190565b039081018352826111d8565b612c0e9550612bfe9250612bcc612bc7612bc2612bbd612c0998612c0398612be597612bb7612bb1612bc299612cb6565b91612cb6565b926138fe565b612d51565b611b71565b612cb6565b612bd7612459613691565b612be081612c8f565b6136ca565b612bf0612459613756565b612bf981612c8f565b613931565b612d5f565b60011c90565b611b89565b612c19612459613778565b612c2281612c8f565b612ae0612c38612c31836137a1565b6002900590565b916116216129ce828282612acc612ac6612ac0612aba8b6139b3565b600191612400565b6129db612c8a6112079260405192839163104c13eb60e21b60208401526020602484015260448301906102f9565b6137d0565b611207906040519063f82c50f160e01b6020830152602482015260248152612c8a816111bc565b906103e8918203918211611b6c57565b91908203918211611b6c57565b9060288201809211611b6c57565b9060328201809211611b6c57565b9060108201809211611b6c57565b9060148201809211611b6c57565b9060118201809211611b6c57565b90600f8201809211611b6c57565b90600d8201809211611b6c57565b90600e8201809211611b6c57565b9060648201809211611b6c57565b90600a8201809211611b6c57565b9060018201809211611b6c57565b91908201809211611b6c57565b6003906040516020810191825260208152612d9481611184565b5190201660058101809111611b6c5760ff1690565b60ff906040516020810191825260208152612dc381611184565b5190201690565b6051906040516020810191825260208152612de481611184565b51902006600a8101809111611b6c5790565b6001906040516020810191825260208152612dc381611184565b6007906040516020810191825260208152612e2a81611184565b5190200660028101809111611b6c5790565b6001906040516020810191825260208152612e5681611184565b5190201660038101809111611b6c5790565b6103e9906040516020810191825260208152612e8381611184565b5190200690565b601f906040516020810191825260208152612ea481611184565b5190200660328101809111611b6c5790565b603d906040516020810191825260208152612ed081611184565b51902006601e8101809111611b6c5790565b6015906040516020810191825260208152612efc81611184565b5190200660508101809111611b6c5790565b6033906040516020810191825260208152612f2881611184565b5190200660288101809111611b6c5790565b6002821115612f8a576040516020810191825260208152612f5a81611184565b519020600119820191808311611b6c5760001901809211611b6c578115611beb570660028101809111611b6c5790565b5050600290565b610169906040516020810191825260208152612e8381611184565b612fb4612038565b506000526004602052604060002054612fcb612038565b906001600160a01b038116825267ffffffffffffffff8160a01c166020830152600160e01b81161515604083015260e81c606082015290565b6040519061301182611184565b60018252600360fc1b6020830152565b6040519061302e82611184565b6003825260203681840137565b6040519061304882611184565b6002825260203681840137565b6040519061306282611184565b6001825260203681840137565b9061307982611223565b61308660405191826111d8565b8281528092613097601f1991611223565b0190602036910137565b8051600210156130b15760220190565b634e487b7160e01b600052603260045260246000fd5b8051600110156130b15760210190565b8051156130b15760200190565b90811561316c5781600091816000925b61315d57506131028261306f565b915b8094801561315457600a91600019019584518710156131405760308383060160f81b6001600160f81b031916861a908501601f01530493613104565b634e487b7160e01b86526032600452602486fd5b50509250905090565b916001600a91019204806130f4565b905061032f613004565b6040519061318382611184565b600582526466616c736560d81b6020830152565b604051906131a482611184565b60048252637472756560e01b6020830152565b604051906131c482611184565b60068252653634b732b0b960d11b6020830152565b604051906131e682611184565b60068252656379636c696360d01b6020830152565b6040519061320882611184565b6006825265199bdb19195960d21b6020830152565b6040519061322a82611184565b60078252666368616f74696360c81b6020830152565b604081019061326a61326361325e61243f606086510160ff90511690565b611b9f565b60ff900490565b61327d6127ee612422845162ffffff1690565b9161328b6020820151151590565b156135b657613298613197565b935b6132ae6127ee61243f606085015160ff1690565b926132c26127ee61243f845160ff90511690565b916132f76132f16127ee61243f60406132e76127ee61243f602089510160ff90511690565b9551015160ff1690565b926130e4565b926133056080860151151590565b156135a35761331f60a06133176131d9565b960151151590565b156135955761332c61321d565b955b6040516e2261747472696275746573223a205b60881b6020820152988998602f8a017f7b2274726169745f74797065223a202273656564222c202276616c7565223a208152601160f91b6020820152602101613389916120b6565b62089f4b60ea1b81526003017f7b2274726169745f74797065223a2022637573746f6d222c202276616c7565228152621d101160e91b60208201526023016133d0916120b6565b62089f4b60ea1b81526003017f7b2274726169745f74797065223a2022736861706573222c202276616c7565228152621d101160e91b6020820152602301613417916120b6565b62089f4b60ea1b81526003017f7b2274726169745f74797065223a202274696e7420636f6c6f72222c2022766181526a0d8eaca44744044e4cec4560ab1b6020820152602b01613466916120b6565b61016160f51b815260020161347a916120b6565b61016160f51b815260020161348e916120b6565b630a489f4b60e21b81526004017f7b2274726169745f74797065223a202274696e74206f706163697479222c202281526a3b30b63ab2911d1011181760a91b6020820152602b016134de916120b6565b62089f4b60ea1b81526003017f7b2274726169745f74797065223a20227374796c65222c202276616c7565223a815261101160f11b6020820152602201613524916120b6565b62089f4b60ea1b81526003017f7b2274726169745f74797065223a2022737472756374757265222c202276616c8152653ab2911d101160d11b602082015260260161356e916120b6565b61227d60f01b8152600201605d60f81b815260010103601f198101825261032f90826111d8565b61359d6131fb565b9561332e565b61331f60a06135b06131b7565b96611e26565b6135be613176565b9361329a565b604051906135d182611184565b601b82527f424547494e4e494e47204c4f4f502072616e646f6d536565643a2000000000006020830152565b6040519061360a82611184565b6006825265706f696e747360d01b6020830152565b6040519061362c82611184565b602082527f72616e646f6d53656564206265666f726520696e6372656d656e74696e673a206020830152565b6040519061366582611184565b601f82527f72616e646f6d5365656420616674657220696e6372656d656e74696e673a20006020830152565b6040519061369e82611184565b601682527f617274626f6172645769647468486569676874213a20000000000000000000006020830152565b801561375057808060011461374957600214613743576001908161013382101682600b8310161761373b57906002815b80821161371257505081600019048111611b6c570290565b909280600019048111611b6c57818416613732575b800292811c906136fa565b80920291613727565b600291500a90565b50600490565b5050600190565b50600090565b6040519061376382611184565b600682526503a32b6b81d160d51b6020830152565b6040519061378582611184565b600d82526c03bb4b23a342432b4b3b43a1d1609d1b6020830152565b906103e860008382039312818412811691841390151617611b6c57565b906031198201918213600116611b6c57565b600080916020815191016a636f6e736f6c652e6c6f675afa50565b6137f481612da9565b60ff9161380e838551169260608601938585511691613b3e565b936002820192838311611b6c5761387361386d61387f93613879938861032f99604061386061385b61385561384460299e612da9565b8560208a0151168689511691613b3e565b9b612d5f565b612da9565b9401511691511691613b3e565b96613ba7565b92613ba7565b94613ba7565b604051948592630e4cec4560e31b60208501526138a68151809260206024880191016102d6565b83019061016160f51b918260248201526138ca8251809360206026850191016102d6565b019060268201526138e58251809360206028850191016102d6565b01602960f81b60288201520360098101845201826111d8565b90808210156139295750905b808210156139215750905b808210156121d5575090565b905090613915565b90509061390a565b6001808201808311611b6c5760011c9082905b8383106139515750505090565b91925090828015611beb57808304908101809111611b6c57811c9190613944565b602061120791939293604051948161399387935180928680870191016102d6565b82016139a7825180938680850191016102d6565b010380855201836111d8565b6000808212918215613b29576040516139cb81611184565b60018152602d60f81b6020820152925b613b22575b80827a184f03e93ff9f4daa797ed6e38ed64bf6a1f0100000000000000008281811015613b14575b50506d04ee2d6d415b85acef810000000080841015613b07575b50662386f26fc1000080841015613afa575b506305f5e10080841015613aed575b5061271080841015613ae0575b506064831015613ad2575b600a80931015613aca575b9060219160019281613a7b600186940161306f565b9650860101905b613a94575b5050505061032f91613972565b600019019083906f181899199a1a9b1b9c1cb0b131b232b360811b8282061a835304918215613ac557919082613a82565b613a87565b600101613a66565b916064600291049201613a5b565b6004919304920138613a50565b6008919304920138613a43565b6010919304920138613a34565b6020919304920138613a22565b049250604090503880613a08565b81036139e0565b604051613b35816111a0565b828152926139db565b9060ff92828115613b64578492808211613b5a57030204011690565b9003020490031690565b5050501690565b15613b7257565b60405162461bcd60e51b815260206004820152600d60248201526c696e70757420746f6f2062696760981b6044820152606490fd5b613bb46101008210613b6b565b8015613c8257600a9081811015613bf057613bcd613055565b91603091060160f81b6001600160f81b03191660001a613bec826130d7565b5390565b6064811015613c3b57613c0161303b565b916001600160f81b031991819060308282060160f81b841660001a613c25866130c7565b53040660300160f81b1660001a613bec826130d7565b613c43613021565b916001600160f81b03199160649060308382060160f81b841660001a613c68866130a1565b5383838083040660300160f81b1660001a613c25866130c7565b5061032f61300456fea264697066735822122018563fbd0b21e9a6aae86f135cc3e13134a0f19e1f00db05a07a8adccded107a64736f6c63430008180033",
  "linkReferences": {},
  "deployedLinkReferences": {}
}