{
  "_format": "hh-sol-artifact-1",
  "contractName": "Anglez",
  "sourceName": "contracts/Anglez.sol",
  "abi": [
    {
      "inputs": [],
      "stateMutability": "nonpayable",
      "type": "constructor"
    },
    {
      "inputs": [],
      "name": "ApprovalCallerNotOwnerNorApproved",
      "type": "error"
    },
    {
      "inputs": [],
      "name": "ApprovalQueryForNonexistentToken",
      "type": "error"
    },
    {
      "inputs": [],
      "name": "BalanceQueryForZeroAddress",
      "type": "error"
    },
    {
      "inputs": [
        {
          "internalType": "uint256",
          "name": "numerator",
          "type": "uint256"
        },
        {
          "internalType": "uint256",
          "name": "denominator",
          "type": "uint256"
        }
      ],
      "name": "ERC2981InvalidDefaultRoyalty",
      "type": "error"
    },
    {
      "inputs": [
        {
          "internalType": "address",
          "name": "receiver",
          "type": "address"
        }
      ],
      "name": "ERC2981InvalidDefaultRoyaltyReceiver",
      "type": "error"
    },
    {
      "inputs": [
        {
          "internalType": "uint256",
          "name": "tokenId",
          "type": "uint256"
        },
        {
          "internalType": "uint256",
          "name": "numerator",
          "type": "uint256"
        },
        {
          "internalType": "uint256",
          "name": "denominator",
          "type": "uint256"
        }
      ],
      "name": "ERC2981InvalidTokenRoyalty",
      "type": "error"
    },
    {
      "inputs": [
        {
          "internalType": "uint256",
          "name": "tokenId",
          "type": "uint256"
        },
        {
          "internalType": "address",
          "name": "receiver",
          "type": "address"
        }
      ],
      "name": "ERC2981InvalidTokenRoyaltyReceiver",
      "type": "error"
    },
    {
      "inputs": [],
      "name": "InvalidQueryRange",
      "type": "error"
    },
    {
      "inputs": [],
      "name": "MintERC2309QuantityExceedsLimit",
      "type": "error"
    },
    {
      "inputs": [],
      "name": "MintToZeroAddress",
      "type": "error"
    },
    {
      "inputs": [],
      "name": "MintZeroQuantity",
      "type": "error"
    },
    {
      "inputs": [],
      "name": "NotCompatibleWithSpotMints",
      "type": "error"
    },
    {
      "inputs": [
        {
          "internalType": "address",
          "name": "owner",
          "type": "address"
        }
      ],
      "name": "OwnableInvalidOwner",
      "type": "error"
    },
    {
      "inputs": [
        {
          "internalType": "address",
          "name": "account",
          "type": "address"
        }
      ],
      "name": "OwnableUnauthorizedAccount",
      "type": "error"
    },
    {
      "inputs": [],
      "name": "OwnerQueryForNonexistentToken",
      "type": "error"
    },
    {
      "inputs": [],
      "name": "OwnershipNotInitializedForExtraData",
      "type": "error"
    },
    {
      "inputs": [],
      "name": "SequentialMintExceedsLimit",
      "type": "error"
    },
    {
      "inputs": [],
      "name": "SequentialUpToTooSmall",
      "type": "error"
    },
    {
      "inputs": [],
      "name": "SpotMintTokenIdTooSmall",
      "type": "error"
    },
    {
      "inputs": [],
      "name": "TokenAlreadyExists",
      "type": "error"
    },
    {
      "inputs": [],
      "name": "TransferCallerNotOwnerNorApproved",
      "type": "error"
    },
    {
      "inputs": [],
      "name": "TransferFromIncorrectOwner",
      "type": "error"
    },
    {
      "inputs": [],
      "name": "TransferToNonERC721ReceiverImplementer",
      "type": "error"
    },
    {
      "inputs": [],
      "name": "TransferToZeroAddress",
      "type": "error"
    },
    {
      "inputs": [],
      "name": "URIQueryForNonexistentToken",
      "type": "error"
    },
    {
      "anonymous": false,
      "inputs": [
        {
          "indexed": true,
          "internalType": "address",
          "name": "owner",
          "type": "address"
        },
        {
          "indexed": true,
          "internalType": "address",
          "name": "approved",
          "type": "address"
        },
        {
          "indexed": true,
          "internalType": "uint256",
          "name": "tokenId",
          "type": "uint256"
        }
      ],
      "name": "Approval",
      "type": "event"
    },
    {
      "anonymous": false,
      "inputs": [
        {
          "indexed": true,
          "internalType": "address",
          "name": "owner",
          "type": "address"
        },
        {
          "indexed": true,
          "internalType": "address",
          "name": "operator",
          "type": "address"
        },
        {
          "indexed": false,
          "internalType": "bool",
          "name": "approved",
          "type": "bool"
        }
      ],
      "name": "ApprovalForAll",
      "type": "event"
    },
    {
      "anonymous": false,
      "inputs": [
        {
          "indexed": true,
          "internalType": "uint256",
          "name": "fromTokenId",
          "type": "uint256"
        },
        {
          "indexed": false,
          "internalType": "uint256",
          "name": "toTokenId",
          "type": "uint256"
        },
        {
          "indexed": true,
          "internalType": "address",
          "name": "from",
          "type": "address"
        },
        {
          "indexed": true,
          "internalType": "address",
          "name": "to",
          "type": "address"
        }
      ],
      "name": "ConsecutiveTransfer",
      "type": "event"
    },
    {
      "anonymous": false,
      "inputs": [
        {
          "indexed": true,
          "internalType": "address",
          "name": "previousOwner",
          "type": "address"
        },
        {
          "indexed": true,
          "internalType": "address",
          "name": "newOwner",
          "type": "address"
        }
      ],
      "name": "OwnershipTransferred",
      "type": "event"
    },
    {
      "anonymous": false,
      "inputs": [
        {
          "indexed": true,
          "internalType": "address",
          "name": "from",
          "type": "address"
        },
        {
          "indexed": true,
          "internalType": "address",
          "name": "to",
          "type": "address"
        },
        {
          "indexed": true,
          "internalType": "uint256",
          "name": "tokenId",
          "type": "uint256"
        }
      ],
      "name": "Transfer",
      "type": "event"
    },
    {
      "inputs": [],
      "name": "TOKEN_LIMIT",
      "outputs": [
        {
          "internalType": "uint16",
          "name": "",
          "type": "uint16"
        }
      ],
      "stateMutability": "view",
      "type": "function"
    },
    {
      "inputs": [
        {
          "internalType": "address",
          "name": "to",
          "type": "address"
        },
        {
          "internalType": "uint256",
          "name": "tokenId",
          "type": "uint256"
        }
      ],
      "name": "approve",
      "outputs": [],
      "stateMutability": "payable",
      "type": "function"
    },
    {
      "inputs": [
        {
          "internalType": "address",
          "name": "owner",
          "type": "address"
        }
      ],
      "name": "balanceOf",
      "outputs": [
        {
          "internalType": "uint256",
          "name": "",
          "type": "uint256"
        }
      ],
      "stateMutability": "view",
      "type": "function"
    },
    {
      "inputs": [],
      "name": "contractURI",
      "outputs": [
        {
          "internalType": "string",
          "name": "",
          "type": "string"
        }
      ],
      "stateMutability": "pure",
      "type": "function"
    },
    {
      "inputs": [
        {
          "internalType": "uint256",
          "name": "tokenId",
          "type": "uint256"
        }
      ],
      "name": "explicitOwnershipOf",
      "outputs": [
        {
          "components": [
            {
              "internalType": "address",
              "name": "addr",
              "type": "address"
            },
            {
              "internalType": "uint64",
              "name": "startTimestamp",
              "type": "uint64"
            },
            {
              "internalType": "bool",
              "name": "burned",
              "type": "bool"
            },
            {
              "internalType": "uint24",
              "name": "extraData",
              "type": "uint24"
            }
          ],
          "internalType": "struct IERC721A.TokenOwnership",
          "name": "ownership",
          "type": "tuple"
        }
      ],
      "stateMutability": "view",
      "type": "function"
    },
    {
      "inputs": [
        {
          "internalType": "uint256[]",
          "name": "tokenIds",
          "type": "uint256[]"
        }
      ],
      "name": "explicitOwnershipsOf",
      "outputs": [
        {
          "components": [
            {
              "internalType": "address",
              "name": "addr",
              "type": "address"
            },
            {
              "internalType": "uint64",
              "name": "startTimestamp",
              "type": "uint64"
            },
            {
              "internalType": "bool",
              "name": "burned",
              "type": "bool"
            },
            {
              "internalType": "uint24",
              "name": "extraData",
              "type": "uint24"
            }
          ],
          "internalType": "struct IERC721A.TokenOwnership[]",
          "name": "",
          "type": "tuple[]"
        }
      ],
      "stateMutability": "view",
      "type": "function"
    },
    {
      "inputs": [
        {
          "internalType": "uint256",
          "name": "_tokenId",
          "type": "uint256"
        }
      ],
      "name": "generateSvg",
      "outputs": [
        {
          "internalType": "string",
          "name": "",
          "type": "string"
        }
      ],
      "stateMutability": "view",
      "type": "function"
    },
    {
      "inputs": [
        {
          "internalType": "uint256",
          "name": "tokenId",
          "type": "uint256"
        }
      ],
      "name": "getApproved",
      "outputs": [
        {
          "internalType": "address",
          "name": "",
          "type": "address"
        }
      ],
      "stateMutability": "view",
      "type": "function"
    },
    {
      "inputs": [],
      "name": "getCustomMintPrice",
      "outputs": [
        {
          "internalType": "uint256",
          "name": "",
          "type": "uint256"
        }
      ],
      "stateMutability": "view",
      "type": "function"
    },
    {
      "inputs": [],
      "name": "getRandomMintPrice",
      "outputs": [
        {
          "internalType": "uint256",
          "name": "",
          "type": "uint256"
        }
      ],
      "stateMutability": "view",
      "type": "function"
    },
    {
      "inputs": [
        {
          "internalType": "address",
          "name": "owner",
          "type": "address"
        },
        {
          "internalType": "address",
          "name": "operator",
          "type": "address"
        }
      ],
      "name": "isApprovedForAll",
      "outputs": [
        {
          "internalType": "bool",
          "name": "",
          "type": "bool"
        }
      ],
      "stateMutability": "view",
      "type": "function"
    },
    {
      "inputs": [
        {
          "internalType": "uint24",
          "name": "seed",
          "type": "uint24"
        }
      ],
      "name": "isSeedMinted",
      "outputs": [
        {
          "internalType": "bool",
          "name": "",
          "type": "bool"
        }
      ],
      "stateMutability": "view",
      "type": "function"
    },
    {
      "inputs": [
        {
          "internalType": "uint24",
          "name": "seed",
          "type": "uint24"
        },
        {
          "internalType": "uint8",
          "name": "shapeCount",
          "type": "uint8"
        },
        {
          "internalType": "uint8",
          "name": "zoom",
          "type": "uint8"
        },
        {
          "internalType": "uint8",
          "name": "tintRed",
          "type": "uint8"
        },
        {
          "internalType": "uint8",
          "name": "tintGreen",
          "type": "uint8"
        },
        {
          "internalType": "uint8",
          "name": "tintBlue",
          "type": "uint8"
        },
        {
          "internalType": "uint8",
          "name": "tintAlpha",
          "type": "uint8"
        },
        {
          "internalType": "bool",
          "name": "isCyclic",
          "type": "bool"
        },
        {
          "internalType": "bool",
          "name": "isChaotic",
          "type": "bool"
        }
      ],
      "name": "mintCustom",
      "outputs": [],
      "stateMutability": "payable",
      "type": "function"
    },
    {
      "inputs": [
        {
          "internalType": "uint24",
          "name": "seed",
          "type": "uint24"
        }
      ],
      "name": "mintRandom",
      "outputs": [],
      "stateMutability": "payable",
      "type": "function"
    },
    {
      "inputs": [],
      "name": "name",
      "outputs": [
        {
          "internalType": "string",
          "name": "",
          "type": "string"
        }
      ],
      "stateMutability": "view",
      "type": "function"
    },
    {
      "inputs": [],
      "name": "owner",
      "outputs": [
        {
          "internalType": "address",
          "name": "",
          "type": "address"
        }
      ],
      "stateMutability": "view",
      "type": "function"
    },
    {
      "inputs": [
        {
          "internalType": "uint256",
          "name": "tokenId",
          "type": "uint256"
        }
      ],
      "name": "ownerOf",
      "outputs": [
        {
          "internalType": "address",
          "name": "",
          "type": "address"
        }
      ],
      "stateMutability": "view",
      "type": "function"
    },
    {
      "inputs": [],
      "name": "renounceOwnership",
      "outputs": [],
      "stateMutability": "nonpayable",
      "type": "function"
    },
    {
      "inputs": [
        {
          "internalType": "uint256",
          "name": "tokenId",
          "type": "uint256"
        },
        {
          "internalType": "uint256",
          "name": "salePrice",
          "type": "uint256"
        }
      ],
      "name": "royaltyInfo",
      "outputs": [
        {
          "internalType": "address",
          "name": "",
          "type": "address"
        },
        {
          "internalType": "uint256",
          "name": "",
          "type": "uint256"
        }
      ],
      "stateMutability": "view",
      "type": "function"
    },
    {
      "inputs": [
        {
          "internalType": "address",
          "name": "from",
          "type": "address"
        },
        {
          "internalType": "address",
          "name": "to",
          "type": "address"
        },
        {
          "internalType": "uint256",
          "name": "tokenId",
          "type": "uint256"
        }
      ],
      "name": "safeTransferFrom",
      "outputs": [],
      "stateMutability": "payable",
      "type": "function"
    },
    {
      "inputs": [
        {
          "internalType": "address",
          "name": "from",
          "type": "address"
        },
        {
          "internalType": "address",
          "name": "to",
          "type": "address"
        },
        {
          "internalType": "uint256",
          "name": "tokenId",
          "type": "uint256"
        },
        {
          "internalType": "bytes",
          "name": "_data",
          "type": "bytes"
        }
      ],
      "name": "safeTransferFrom",
      "outputs": [],
      "stateMutability": "payable",
      "type": "function"
    },
    {
      "inputs": [
        {
          "internalType": "address",
          "name": "operator",
          "type": "address"
        },
        {
          "internalType": "bool",
          "name": "approved",
          "type": "bool"
        }
      ],
      "name": "setApprovalForAll",
      "outputs": [],
      "stateMutability": "nonpayable",
      "type": "function"
    },
    {
      "inputs": [
        {
          "internalType": "uint256",
          "name": "_customMintPrice",
          "type": "uint256"
        }
      ],
      "name": "setCustomMintPrice",
      "outputs": [],
      "stateMutability": "nonpayable",
      "type": "function"
    },
    {
      "inputs": [
        {
          "internalType": "uint256",
          "name": "_randomMintPrice",
          "type": "uint256"
        }
      ],
      "name": "setRandomMintPrice",
      "outputs": [],
      "stateMutability": "nonpayable",
      "type": "function"
    },
    {
      "inputs": [
        {
          "internalType": "bytes4",
          "name": "interfaceId",
          "type": "bytes4"
        }
      ],
      "name": "supportsInterface",
      "outputs": [
        {
          "internalType": "bool",
          "name": "",
          "type": "bool"
        }
      ],
      "stateMutability": "view",
      "type": "function"
    },
    {
      "inputs": [],
      "name": "symbol",
      "outputs": [
        {
          "internalType": "string",
          "name": "",
          "type": "string"
        }
      ],
      "stateMutability": "view",
      "type": "function"
    },
    {
      "inputs": [
        {
          "internalType": "uint256",
          "name": "_tokenId",
          "type": "uint256"
        }
      ],
      "name": "tokenURI",
      "outputs": [
        {
          "internalType": "string",
          "name": "",
          "type": "string"
        }
      ],
      "stateMutability": "view",
      "type": "function"
    },
    {
      "inputs": [
        {
          "internalType": "address",
          "name": "owner",
          "type": "address"
        }
      ],
      "name": "tokensOfOwner",
      "outputs": [
        {
          "internalType": "uint256[]",
          "name": "",
          "type": "uint256[]"
        }
      ],
      "stateMutability": "view",
      "type": "function"
    },
    {
      "inputs": [
        {
          "internalType": "address",
          "name": "owner",
          "type": "address"
        },
        {
          "internalType": "uint256",
          "name": "start",
          "type": "uint256"
        },
        {
          "internalType": "uint256",
          "name": "stop",
          "type": "uint256"
        }
      ],
      "name": "tokensOfOwnerIn",
      "outputs": [
        {
          "internalType": "uint256[]",
          "name": "",
          "type": "uint256[]"
        }
      ],
      "stateMutability": "view",
      "type": "function"
    },
    {
      "inputs": [],
      "name": "totalSupply",
      "outputs": [
        {
          "internalType": "uint256",
          "name": "result",
          "type": "uint256"
        }
      ],
      "stateMutability": "view",
      "type": "function"
    },
    {
      "inputs": [
        {
          "internalType": "address",
          "name": "from",
          "type": "address"
        },
        {
          "internalType": "address",
          "name": "to",
          "type": "address"
        },
        {
          "internalType": "uint256",
          "name": "tokenId",
          "type": "uint256"
        }
      ],
      "name": "transferFrom",
      "outputs": [],
      "stateMutability": "payable",
      "type": "function"
    },
    {
      "inputs": [
        {
          "internalType": "address",
          "name": "newOwner",
          "type": "address"
        }
      ],
      "name": "transferOwnership",
      "outputs": [],
      "stateMutability": "nonpayable",
      "type": "function"
    },
    {
      "inputs": [
        {
          "internalType": "uint24",
          "name": "seed",
          "type": "uint24"
        },
        {
          "internalType": "uint8",
          "name": "shapeCount",
          "type": "uint8"
        },
        {
          "internalType": "uint8",
          "name": "zoom",
          "type": "uint8"
        },
        {
          "internalType": "uint8",
          "name": "tintRed",
          "type": "uint8"
        },
        {
          "internalType": "uint8",
          "name": "tintGreen",
          "type": "uint8"
        },
        {
          "internalType": "uint8",
          "name": "tintBlue",
          "type": "uint8"
        },
        {
          "internalType": "uint8",
          "name": "tintAlpha",
          "type": "uint8"
        }
      ],
      "name": "validateCustomParams",
      "outputs": [
        {
          "internalType": "bool",
          "name": "",
          "type": "bool"
        }
      ],
      "stateMutability": "view",
      "type": "function"
    },
    {
      "inputs": [],
      "name": "withdraw",
      "outputs": [],
      "stateMutability": "nonpayable",
      "type": "function"
    }
  ],
  "bytecode": "0x608060405234620001aa5762000014620001c5565b60206520b733b632bd60d11b60208301526200002f620001e9565b6320a3a62d60e11b60208201528251929091906001600160401b038411620001a4576200006984620000636002546200020d565b6200024a565b602091601f85116001146200011357509280620000a392620000ac9560009262000107575b50508160011b916000199060031b1c19161790565b60025562000300565b600080553315620000ee57620000c233620003ee565b620000cd6000600c55565b620000de662386f26fc10000600d55565b604051613c2b9081620004388239f35b604051631e4fbdf760e01b815260006004820152602490fd5b0151905038806200008e565b60026000529190601f1985167f405787fa12a823e0f2b7631cc41b3ba8828b3321ca811111fa75cd3aa3bb5ace936000905b8282106200018b575050916001939186620000ac97941062000171575b505050811b0160025562000300565b015160001960f88460031b161c1916905538808062000162565b8060018697829497870151815501960194019062000145565b620001af565b600080fd5b634e487b7160e01b600052604160045260246000fd5b60408051919082016001600160401b03811183821017620001a45760405260068252565b60408051919082016001600160401b03811183821017620001a45760405260048252565b90600182811c921680156200023f575b60208310146200022957565b634e487b7160e01b600052602260045260246000fd5b91607f16916200021d565b601f811162000257575050565b60009060026000526020600020906020601f850160051c830194106200029a575b601f0160051c01915b8281106200028e57505050565b81815560010162000281565b909250829062000278565b601f8111620002b2575050565b60009060036000526020600020906020601f850160051c83019410620002f5575b601f0160051c01915b828110620002e957505050565b818155600101620002dc565b9092508290620002d3565b80519091906001600160401b038111620001a4576200032c81620003266003546200020d565b620002a5565b602080601f83116001146200036657508190620003619394600092620001075750508160011b916000199060031b1c19161790565b600355565b6003600052601f198316949091907fc2575a0e9e593c00f959f8c92f12db2869c3395a3b0502d05e2516446f71f85b926000905b878210620003d5575050836001959610620003bb575b505050811b01600355565b015160001960f88460031b161c19169055388080620003b0565b806001859682949686015181550195019301906200039a565b600b80546001600160a01b039283166001600160a01b0319821681179092559091167f8be0079c531659141344cd1fd0a4f28419497f9722a3daafe3b4186f6b6457e0600080a356fe6080604052600436101561001257600080fd5b60003560e01c806301ffc9a714610237578063031bd4c41461023257806306fdde031461022d578063081812fc14610228578063095ea7b31461022357806318160ddd1461021e57806323b872dd146102195780632a55205a146102145780633ccfd60b1461020f57806342842e0e1461020a578063476f49fa1461020557806357bf214d146102005780635bbb2177146101fb5780636352211e146101f65780636f59b3c8146101f157806370a08231146101ec578063715018a6146101e75780637dab8cfc146101e25780638462151c146101dd5780638da5cb5b146101d857806395d89b41146101d3578063960c41d6146101ce57806399a2557a146101c9578063a02fe2bf146101c4578063a22cb465146101bf578063b88d4fde146101ba578063bc921dc2146101b5578063bd2a3c62146101b0578063c23dc68f146101ab578063c57ac8d1146101a6578063c87b56dd146101a1578063e8a3d4851461019c578063e985e9c5146101975763f2fde38b1461019257600080fd5b611800565b61179e565b611728565b611517565b611321565b6112bc565b6110b2565b61107f565b610ffb565b610e63565b610de4565b610bfa565b610bdc565b610b16565b610aef565b61097a565b610920565b6108cb565b6108a0565b61087f565b610850565b6107ea565b61072e565b6106fb565b6106d8565b610686565b6105dc565b6105c8565b610570565b6104b1565b610431565b610322565b6102a9565b610253565b6001600160e01b031981160361024e57565b600080fd5b3461024e57602036600319011261024e5760206004356102728161023c565b63ffffffff60e01b1663152a902d60e11b8114908115610298575b506040519015158152f35b6301ffc9a760e01b1490503861028d565b3461024e57600036600319011261024e5760206040516102008152f35b60005b8381106102d95750506000910152565b81810151838201526020016102c9565b90602091610302815180928185528580860191016102c6565b601f01601f1916010190565b90602061031f9281815201906102e9565b90565b3461024e5760008060031936011261042e576040519080600254906001918060011c9260018216928315610424575b6020926020861085146104105785885260208801949081156103ef5750600114610396575b6103928761038681890382610fa1565b6040519182918261030e565b0390f35b600260005294509192917f405787fa12a823e0f2b7631cc41b3ba8828b3321ca811111fa75cd3aa3bb5ace5b8386106103de5750505091019050610386826103923880610376565b8054858701529482019481016103c2565b60ff191685525050505090151560051b019050610386826103923880610376565b634e487b7160e01b82526022600452602482fd5b93607f1693610351565b80fd5b3461024e57602036600319011261024e5760043561044e816122d2565b1561047457600052600660205260206001600160a01b0360406000205416604051908152f35b6333d1c03960e21b60005260046000fd5b600435906001600160a01b038216820361024e57565b602435906001600160a01b038216820361024e57565b604036600319011261024e576104c5610485565b6024356001600160a01b0391826104db83612369565b1680330361052d575b600093838552600660205260408520921691826001600160a01b03198254161790557f8c5be1e5ebec7d5bd14f71427d1e84f3dd0314c0f7b2291e5b200ac8c7c3b9258480a480f35b80600052600760205260ff610559336040600020906001600160a01b0316600052602052604060002090565b54166104e4576367d9dca160e11b60005260046000fd5b3461024e57600036600319011261024e5760206000546001549003604051908152f35b606090600319011261024e576001600160a01b0390600435828116810361024e5791602435908116810361024e579060443590565b6105da6105d436610593565b91611887565b005b3461024e57604036600319011261024e57600435600052600a60205260406000206040519061060a82610f31565b54906001600160a01b0382169182825260a01c60208201529015610678575b61065c61271061064d6bffffffffffffffffffffffff602085015116602435611abe565b0491516001600160a01b031690565b604080516001600160a01b039290921682526020820192909252f35b50610681611a3b565b610629565b3461024e5760008060031936011261042e576106a06123e6565b808080806001600160a01b03600b541647908282156106cf575bf1156106c35780f35b604051903d90823e3d90fd5b506108fc6106ba565b6105da6106e436610593565b90604051926106f284610f69565b60008452611c89565b3461024e57602036600319011261024e576107146123e6565b600435600d55005b6004359062ffffff8216820361024e57565b3461024e57602036600319011261024e5762ffffff61074b61071c565b16600052600f602052602060ff604060002054166040519015158152f35b602090602060408183019282815285518094520193019160005b828110610791575050505090565b90919293826080826107de600194895162ffffff606080926001600160a01b03815116855267ffffffffffffffff6020820151166020860152604081015115156040860152015116910152565b01950193929101610783565b3461024e57602036600319011261024e5767ffffffffffffffff60043581811161024e573660238201121561024e57806004013591821161024e573660248360051b8301011161024e576103929160246108449201611b0c565b60405191829182610769565b3461024e57602036600319011261024e5760206001600160a01b03610876600435612369565b16604051908152f35b3461024e57602036600319011261024e576108986123e6565b600435600c55005b3461024e57602036600319011261024e5760206108c36108be610485565b611b4c565b604051908152f35b3461024e5760008060031936011261042e576108e56123e6565b806001600160a01b03600b5481198116600b55167f8be0079c531659141344cd1fd0a4f28419497f9722a3daafe3b4186f6b6457e08280a380f35b3461024e57600036600319011261024e576020600d54604051908152f35b602090602060408183019282815285518094520193019160005b828110610966575050505090565b835185529381019392810192600101610958565b3461024e57602036600319011261024e57610993610485565b600054906060809183159182156109b3575b60405180610392868261093e565b90919250600093606093610aea576109ca83611b4c565b91826109e2575b5050505061039291503880806109a5565b909180939450821115610ae1575b604051936001840160051b8501604052610a086120b8565b600090610a1f610a1b6040830151151590565b1590565b610acf575b509560009360015b15610aa1575b600097610a3e83612b27565b604081015115610a6657505060016000925b01976001870160051b8801604052979197610a2c565b9290925180610a99575b50838318851b15610a84575b600190610a50565b6001909501600581901b880186905294610a7c565b925038610a70565b8082148015610ac6575b15610a325750505050905061039292508152388080806109d1565b50858514610aab565b516001600160a01b0316905038610a24565b915080916109f0565b612358565b3461024e57600036600319011261024e5760206001600160a01b03600b5416604051908152f35b3461024e5760008060031936011261042e576040519080600354906001918060011c9260018216928315610bd2575b6020926020861085146104105785885260208801949081156103ef5750600114610b79576103928761038681890382610fa1565b600360005294509192917fc2575a0e9e593c00f959f8c92f12db2869c3395a3b0502d05e2516446f71f85b5b838610610bc15750505091019050610386826103923880610376565b805485870152948201948101610ba5565b93607f1693610b45565b3461024e57600036600319011261024e576020600c54604051908152f35b3461024e5760608060031936011261024e57610c14610485565b90602435916044358360609382861015610aea5760005480841015610d7c575b50610c3e84611b4c565b9183871015610d73575b82610c5c575b60405180610392888261093e565b90919293945085840383811115610d6b575b5060409260405195600193600591610c926001850160051b8a019a8b6040526120f9565b93600094610ca6610a1b6040830151151590565b610d59575b506000989495946001885b610cd6575b50505050505050505050610392925081523880808080610c4e565b15610d3b575b600096610ce887612b27565b808b015115610d055750508787965b0196888d8b52979697610cb6565b9690965180610d33575b50838718851b15610d22575b8890610cf7565b99880180861b8c018b905299610d1b565b965038610d0f565b8086148015610d50575b15610cdc5780610cbb565b50818a14610d45565b516001600160a01b0316945038610cab565b925038610c6e565b60009250610c48565b925038610c34565b6024359060ff8216820361024e57565b6044359060ff8216820361024e57565b6064359060ff8216820361024e57565b6084359060ff8216820361024e57565b60a4359060ff8216820361024e57565b60c4359060ff8216820361024e57565b3461024e5760e036600319011261024e576020610e3a610e0261071c565b610e0a610d84565b610e12610d94565b610e1a610da4565b610e22610db4565b91610e2b610dc4565b93610e34610dd4565b95611bb4565b6040519015158152f35b60e43590811515820361024e57565b6101043590811515820361024e57565b3461024e57604036600319011261024e57610e7c610485565b6024359081151580920361024e576001600160a01b0390336000526007602052610ebd816040600020906001600160a01b0316600052602052604060002090565b60ff1981541660ff851617905560405192835216907f17307eab39ab6107e8899845ad3d59bd9653f200f220920489ca2b5937696c3160203392a3005b634e487b7160e01b600052604160045260246000fd5b60e0810190811067ffffffffffffffff821117610f2c57604052565b610efa565b6040810190811067ffffffffffffffff821117610f2c57604052565b6080810190811067ffffffffffffffff821117610f2c57604052565b6020810190811067ffffffffffffffff821117610f2c57604052565b6060810190811067ffffffffffffffff821117610f2c57604052565b90601f8019910116810190811067ffffffffffffffff821117610f2c57604052565b60405190610fd082610f4d565b565b60405190610fd082610f10565b67ffffffffffffffff8111610f2c57601f01601f191660200190565b608036600319011261024e5761100f610485565b61101761049b565b6064359167ffffffffffffffff831161024e573660238401121561024e5782600401359161104483610fdf565b926110526040519485610fa1565b808452366024828701011161024e5760208160009260246105da9801838801378501015260443591611c89565b3461024e57602036600319011261024e5761039261109e600435611d39565b6040519182916020835260208301906102e9565b602036600319011261024e576110c661071c565b600c543410156110d590611d85565b6110ee8162ffffff16600052600f602052604060002090565b5460ff16156110fc90611dd1565b611104611e11565b61110d90612412565b61111b62ffffff8216612716565b61112481611e4a565b62ffffff16611132906127f8565b61113a611eff565b61114390612412565b61114f60ff8216612716565b61115882611e5e565b62ffffff1661116690612827565b61116f83611e72565b62ffffff1661117d90612856565b61118684611e86565b62ffffff1661119490612856565b9161119e85611e9a565b62ffffff166111ac90612856565b916111b686611eae565b62ffffff166111c490612877565b6111cd90611a77565b6064900460ff166111dd87611ec2565b62ffffff166111eb906128a3565b600114936111f888611ed6565b62ffffff16611206906128a3565b60011495611212610fc3565b60ff909416845260ff16602084015260ff16604083015260ff166060820152611239610fd2565b62ffffff87168152946000602087015260ff166040860152606085015260ff166080840152151560a0830152151560c082015260005461127833612a59565b61128c90600052600e602052604060002090565b9061129691611fb3565b6112af9062ffffff16600052600f602052604060002090565b805460ff19166001179055005b3461024e57602036600319011261024e5760806112da6004356120f9565b61131f604051809262ffffff606080926001600160a01b03815116855267ffffffffffffffff6020820151166020860152604081015115156040860152015116910152565bf35b61012036600319011261024e5761133661071c565b61133e610d84565b611346610d94565b9161134f610da4565b92611358610db4565b90611361610dc4565b9361136a610dd4565b95611373610e44565b9061137c610e53565b91600d5434101561138c90611d85565b6113a58762ffffff16600052600f602052604060002090565b5460ff16156113b390611dd1565b8460ff94859384821660028110159c6114696114f29d6105da9f6114dd9d6114416114b99d61140d6114b09d6114a79c6113fa876114739c61145f9961150b575b50612111565b16603281101590816114ff575b5061215d565b61141b81808b161115612198565b6114298180851611156121d7565b611437818087161115612223565b808716111561226f565b61145561144c610fc3565b60ff9098168852565b60ff166020870152565b60ff166040850152565b60ff166060830152565b61149861147e610fd2565b62ffffff8c16815298600160208b015260ff1660408a0152565b606088015260ff166080870152565b151560a0850152565b151560c0830152565b6114d86000546114c833612a59565b600052600e602052604060002090565b611fb3565b62ffffff16600052600f602052604060002090565b805460ff19166001179055565b60649150111538611407565b601491501115386113f4565b3461024e57602036600319011261024e57610392611648610386600435611545611540826122d2565b611ccc565b61171a61170c61155483612c3e565b9280600052600e6020526116426116e36115f96115f360406000206115ee60ff60026040519361158385610f10565b6115b583825462ffffff811688526115a5828260181c1660208a019015159052565b60201c16604087019060ff169052565b6115c160018201611d01565b6060860152015460ff828216166080850152600881901c8216151560a085015260101c16151560c0830152565b612d13565b93611d39565b92611642604051998a9861164260208b016025907f646174613a6170706c69636174696f6e2f6a736f6e2c7b226e616d65223a2241815264474c5a202360d81b60208201520190565b906122bb565b7f3a2062656175746966756c2c20636f6c6f7266756c2c2061627374726163742081527f616e676c657a222c226465736372697074696f6e223a2022416e676c657a206960208201527f73206f6e2d636861696e2c2067656e65726174697665204e465420617274202d60408201527f2068747470733a2f2f616e676c657a2e78797a222c2000000000000000000000606082015260760190565b7f2c2022696d616765223a2022646174613a696d6167652f7376672b786d6c2c008152601f0190565b61227d60f01b815260020190565b03601f198101835282610fa1565b3461024e57600036600319011261024e5761039260405161174881610f85565b602f81527f68747470733a2f2f6d696e742e6265796f6e6468756d616e2e61692f73746f7260208201526e6566726f6e742d6d6574616461746160881b60408201526040519182916020835260208301906102e9565b3461024e57604036600319011261024e57602060ff6117f46117be610485565b6001600160a01b036117ce61049b565b9116600052600784526040600020906001600160a01b0316600052602052604060002090565b54166040519015158152f35b3461024e57602036600319011261024e57611819610485565b6118216123e6565b6001600160a01b0380911690811561186e57600b54826001600160a01b0319821617600b55167f8be0079c531659141344cd1fd0a4f28419497f9722a3daafe3b4186f6b6457e0600080a3005b604051631e4fbdf760e01b815260006004820152602490fd5b91909161189382612369565b926001600160a01b03809216938483821603611a3657600084815260066020526040902080546118d26001600160a01b03881633908114908314171590565b6119e6575b6119dc575b506118fa856001600160a01b03166000526005602052604060002090565b805460001901905561191f826001600160a01b03166000526005602052604060002090565b805460010190556001600160a01b0382164260a01b17600160e11b1761194f856000526004602052604060002090565b55600160e11b811615611992575b501680927fddf252ad1be2c89b69c2b068fc378daa952ba7f163c4a11628f55a4df523b3ef600080a41561198d57565b612336565b600184016119aa816000526004602052604060002090565b54156119b7575b5061195d565b60005481146119b1576119d4906000526004602052604060002090565b5538806119b1565b60009055386118dc565b611a2c610a1b611a2533611a0d8b6001600160a01b03166000526007602052604060002090565b906001600160a01b0316600052602052604060002090565b5460ff1690565b156118d757612325565b612315565b60405190611a4882610f31565b6009546001600160a01b038116835260a01c6020830152565b634e487b7160e01b600052601160045260246000fd5b9060ff82029180830460ff1490151715611a8d57565b611a61565b90606482029180830460641490151715611a8d57565b90600a820291808304600a1490151715611a8d57565b81810292918115918404141715611a8d57565b634e487b7160e01b600052601260045260246000fd5b8015611af4576101680490565b611ad1565b60405190611b0682610f69565b60008252565b6040519180835260051b6020818401016040525b80818015611b4557611b3c90601f1980910193850101356120f9565b90840152611b20565b5050505090565b6001600160a01b03168015611b7657600052600560205267ffffffffffffffff6040600020541690565b6323d3ad8160e21b60005260046000fd5b60405190611b9482610f31565b601182527014d9595908185b1c9958591e481d5cd959607a1b6020830152565b611a25611bd7919796959493929762ffffff16600052600f602052604060002090565b611c735760ff80961660028110908115611c68575b50611c5d57851660328110908115611c52575b50611c48578480911611611c3f578380911611611c37578280911611611c3057811611611c2b57600190565b600090565b5050600090565b505050600090565b50505050600090565b5050505050600090565b606491501138611bff565b505050505050600090565b601491501138611bec565b505050505050611c2b611c84611b87565b612412565b929190611c97828286611887565b803b611ca4575b50505050565b611cad9361248a565b15611cbb5738808080611c9e565b6368d2bf6b60e11b60005260046000fd5b15611cd357565b60405162461bcd60e51b815260206004820152600660248201526510905117d25160d21b6044820152606490fd5b90604051611d0e81610f4d565b606060ff8294548181168452818160081c166020850152818160101c16604085015260181c16910152565b611d42816122d2565b80611d7a575b611d5190611ccc565b600052600e60205261031f6040600020611d7560ff60026040519361158385610f10565b612553565b506102008110611d48565b15611d8c57565b60405162461bcd60e51b815260206004820152601460248201527f496e73756666696369656e74207061796d656e740000000000000000000000006044820152606490fd5b15611dd857565b60405162461bcd60e51b815260206004820152601160248201527014d9595908185b1c9958591e481d5cd959607a1b6044820152606490fd5b60405190611e1e82610f31565b601382527f4d696e74696e67207769746820736565643a20000000000000000000000000006020830152565b90600362ffffff80931601918211611a8d57565b90600562ffffff80931601918211611a8d57565b90600662ffffff80931601918211611a8d57565b90600762ffffff80931601918211611a8d57565b90600862ffffff80931601918211611a8d57565b90600962ffffff80931601918211611a8d57565b90600462ffffff80931601918211611a8d57565b90600b62ffffff80931601918211611a8d57565b9061012c62ffffff80931601918211611a8d57565b60405190611f0c82610f31565b601382527f4d696e74696e672077697468207a6f6f6d3a20000000000000000000000000006020830152565b8151815460ff191660ff9190911617815590611faf9060ff6060611f92611f748360208601511687549061ff009060081b169061ff0019161790565b8087558360408601511662ff00009060101b169062ff000019161790565b9283865501511663ff0000009060181b169063ff00000019161790565b9055565b9061207660c06002610fd094611ff262ffffff86511662ffffff19835416178083556020870151151563ff0000009060181b169063ff00000019161790565b80825564ff00000000604087015160201b169064ff000000001916178155612021606086015160018301611f38565b0192612044612034608083015160ff1690565b855460ff191660ff909116178555565b61206f61205460a0830151151590565b858054909161ff001990911690151560081b61ff0016179055565b0151151590565b908054909162ff00001990911690151560101b62ff000016179055565b604051906120a082610f4d565b60006060838281528260208201528260408201520152565b60009060006120c5612093565b926000546120d1575050565b92505b808352600460205260408320546120ee57600019016120d4565b61031f919250612b27565b90612102612093565b916000805482106120d1575050565b1561211857565b60405162461bcd60e51b815260206004820152601360248201527f496e76616c696420736861706520636f756e74000000000000000000000000006044820152606490fd5b1561216457565b60405162461bcd60e51b815260206004820152600c60248201526b496e76616c6964207a6f6f6d60a01b6044820152606490fd5b1561219f57565b60405162461bcd60e51b815260206004820152601060248201526f125b9d985b1a59081c9959081d1a5b9d60821b6044820152606490fd5b156121de57565b60405162461bcd60e51b815260206004820152601260248201527f496e76616c696420677265656e2074696e7400000000000000000000000000006044820152606490fd5b1561222a57565b60405162461bcd60e51b815260206004820152601160248201527f496e76616c696420626c75652074696e740000000000000000000000000000006044820152606490fd5b1561227657565b60405162461bcd60e51b815260206004820152601260248201527f496e76616c696420616c7068612074696e7400000000000000000000000000006044820152606490fd5b906122ce602092828151948592016102c6565b0190565b906000916000805482106122e4575050565b92505b808352600460205260408320548061230957508015611a8d57600019016122e7565b600160e01b1615925050565b62a1148160e81b60005260046000fd5b632ce44b5f60e11b60005260046000fd5b633a954ecd60e21b60005260046000fd5b636f96cda160e11b60005260046000fd5b631960ccad60e11b60005260046000fd5b61237d816000526004602052604060002090565b549081156123945750600160e01b81166123475790565b9050600090600054811015612347575b600019016000818152600460205260409020549081156123df5750600160e01b8116156123da57636f96cda160e11b8252600482fd5b905090565b90506123a4565b6001600160a01b03600b541633036123fa57565b60405163118cdaa760e01b8152336004820152602490fd5b61171a612440610fd09260405192839163104c13eb60e21b60208401526020602484015260448301906102e9565b6130fb565b9081602091031261024e575161031f8161023c565b3d15612485573d9061246b82610fdf565b916124796040519384610fa1565b82523d6000602084013e565b606090565b926020916124d49360006001600160a01b0360405180978196829584630a85bd0160e11b9c8d865233600487015216602485015260448401526080606484015260848301906102e9565b0393165af160009181612511575b50612503576124ef61245a565b8051156124fe57805190602001fd5b611cbb565b6001600160e01b0319161490565b61253491925060203d60201161253b575b61252c8183610fa1565b810190612445565b90386124e2565b503d612522565b60ff166096039060ff8211611a8d57565b61031f6126b5916126546127026126ec6125df6116426126c361259361258e61258861258360408b015160ff1690565b612542565b60ff1690565b613116565b612608604098929851958692611642602085016026907f3c646566733e3c636c6970506174682069643d276d6173746572436c6970273e81526501e3932b1ba160d51b60208201520190565b7f2f3e3c2f636c6970506174683e3c2f646566733e000000000000000000000000815260140190565b039761261c601f19998a8101875286610fa1565b60a08101511561270e5761264e61264961264161263c845162ffffff1690565b611eea565b62ffffff1690565b6128bd565b906133c8565b926116426040519a8b9861164260208b016031907f3c73766720786d6c6e733d27687474703a2f2f7777772e77332e6f72672f323081527f30302f737667272076696577426f783d2700000000000000000000000000000060208201520190565b61139f60f11b815260020190565b7f3c6720636c69702d706174683d2775726c28236d6173746572436c697029273e815260200190565b691e17b39f1e17b9bb339f60b11b8152600a0190565b03908101835282610fa1565b6001906133c8565b610fd0906040519063f82c50f160e01b602083015260248201526024815261244081610f85565b906101f4918203918211611a8d57565b6101f319810191908211611a8d57565b906101f4918201809211611a8d57565b9060288201809211611a8d57565b9060328201809211611a8d57565b9060108201809211611a8d57565b9060148201809211611a8d57565b9060118201809211611a8d57565b90600f8201809211611a8d57565b90600d8201809211611a8d57565b90600e8201809211611a8d57565b9060648201809211611a8d57565b91908201809211611a8d57565b603390604051602081019182526020815261281281610f31565b5190200660328101809111611a8d5760ff1690565b600390604051602081019182526020815261284181610f31565b5190201660058101809111611a8d5760ff1690565b60ff90604051602081019182526020815261287081610f31565b5190201690565b605190604051602081019182526020815261289181610f31565b51902006600a8101809111611a8d5790565b600190604051602081019182526020815261287081610f31565b60079060405160208101918252602081526128d781610f31565b5190200660028101809111611a8d5790565b600190604051602081019182526020815261290381610f31565b5190201660038101809111611a8d5790565b6103e990604051602081019182526020815261293081610f31565b5190200690565b601f90604051602081019182526020815261295181610f31565b5190200660328101809111611a8d5790565b603d90604051602081019182526020815261297d81610f31565b51902006601e8101809111611a8d5790565b60159060405160208101918252602081526129a981610f31565b5190200660508101809111611a8d5790565b60339060405160208101918252602081526129d581610f31565b5190200660288101809111611a8d5790565b6002821115612a37576040516020810191825260208152612a0781610f31565b519020600119820191808311611a8d5760001901809211611a8d578115611af4570660028101809111611a8d5790565b5050600290565b61016990604051602081019182526020815261293081610f31565b60008054916001600160a01b03908082164260a01b17600160e11b17612a89856000526004602052604060002090565b55612aa7816001600160a01b03166000526005602052604060002090565b680100000000000000018154019055168015612b1957600183810193919080805b612ad4575b5050505055565b15612b08575b83818484877fddf252ad1be2c89b69c2b068fc378daa952ba7f163c4a11628f55a4df523b3ef8180a4612ac8565b80920191848303612ada5780612acd565b622e076360e81b8252600482fd5b612b2f612093565b506000526004602052604060002054612b46612093565b906001600160a01b038116825267ffffffffffffffff8160a01c166020830152600160e01b81161515604083015260e81c606082015290565b60405190612b8c82610f31565b60018252600360fc1b6020830152565b60405190612ba982610f31565b6003825260203681840137565b60405190612bc382610f31565b6002825260203681840137565b60405190612bdd82610f31565b6001825260203681840137565b805160021015612bfa5760220190565b634e487b7160e01b600052603260045260246000fd5b805160011015612bfa5760210190565b805115612bfa5760200190565b908151811015612bfa570160200190565b8015612cc957806000826000935b612cba5750612c5a83610fdf565b92612c686040519485610fa1565b808452601f19612c7782610fdf565b01366020860137825b612c8a5750505090565b6000190191600a9060308282060160f81b6001600160f81b031916831a612cb18587612c2d565b53049182612c80565b926001600a9101930480612c4c565b5061031f612b7f565b60405190612cdf82610f31565b600582526466616c736560d81b6020830152565b60405190612d0082610f31565b60048252637472756560e01b6020830152565b6060810190612d3d612d36612d31612588606086510160ff90511690565b611a92565b60ff900490565b612d55612d50612641845162ffffff1690565b612c3e565b91612d636020820151151590565b156130ed57612d70612cf3565b935b612d86612d50612588608085015160ff1690565b92612d9b612d50612588604086015160ff1690565b91612daf612d50612588835160ff90511690565b612de3612ddd612d506125886040612dd3612d5061258860208a510160ff90511690565b9651015160ff1690565b93612c3e565b93612df160a0870151151590565b156130da57612e0b60c0612e03612cf3565b970151151590565b156130cc57612e18612cf3565b965b6040516e2261747472696275746573223a205b60881b6020820152998a99602f8b017f7b2274726169745f74797065223a202273656564222c202276616c7565223a208152601160f91b6020820152602101612e75916122bb565b62089f4b60ea1b81526003017f7b2274726169745f74797065223a2022637573746f6d222c202276616c7565228152621d101160e91b6020820152602301612ebc916122bb565b62089f4b60ea1b81526003017f7b2274726169745f74797065223a2022736861706573222c202276616c7565228152621d101160e91b6020820152602301612f03916122bb565b62089f4b60ea1b81526003017f7b2274726169745f74797065223a20227a6f6f6d222c202276616c7565223a208152601160f91b6020820152602101612f48916122bb565b640809489f4b60da1b81526005017f7b2274726169745f74797065223a202274696e7420636f6c6f72222c2022766181526a0d8eaca44744044e4cec4560ab1b6020820152602b01612f99916122bb565b61016160f51b8152600201612fad916122bb565b61016160f51b8152600201612fc1916122bb565b630a489f4b60e21b81526004017f7b2274726169745f74797065223a202274696e74207472616e73706172656e6381526d3c911610113b30b63ab2911d101160911b6020820152602e01613014916122bb565b640809489f4b60da1b81526005017f7b2274726169745f74797065223a20226379636c6963222c202276616c7565228152621d101160e91b602082015260230161305d916122bb565b62089f4b60ea1b81526003017f7b2274726169745f74797065223a20226368616f746963222c202276616c7565815263111d101160e11b60208201526024016130a5916122bb565b61227d60f01b8152600201605d60f81b815260010103601f198101825261031f9082610fa1565b6130d4612cd2565b96612e1a565b612e0b60c06130e7612cd2565b9761206f565b6130f5612cd2565b93612d72565b600080916020815191016a636f6e736f6c652e6c6f675afa50565b61311f90611aa8565b9061312c612d508361275d565b6101f4808411156132545750613250613153612d5061314d61320c9661274d565b60011c90565b604051602d60f81b60208201529290613244613237856131b36131ad61319a6131a781613194613186602188018b6122bb565b61202d60f01b815260020190565b896122bb565b600160fd1b815260010190565b886122bb565b866122bb565b03936131c7601f1995868101895288610fa1565b6116426132216131f46040519b8c976116426131fa6131f460208c0160049063783d272d60e01b81520190565b836122bb565b652720793d272d60d01b815260060190565b68272077696474683d2760b81b815260090190565b6927206865696768743d2760b01b8152600a0190565b602760f81b815260010190565b03908101855284610fa1565b9190565b61320c939081036132e9575061325061326d6000612c3e565b9160405192613244613237856132986131ad61319a6131a761319a61319461319a602088018b6122bb565b03936132ac601f1995868101895288610fa1565b6116426132216131f46040519b8c976116426132d86131f460208c0160039062783d2760e81b81520190565b642720793d2760d81b815260050190565b61326d612d5061314d6132509361273d565b6040519061330882610f31565b601b82527f424547494e4e494e47204c4f4f502072616e646f6d536565643a2000000000006020830152565b6040519061334182610f31565b6006825265706f696e747360d01b6020830152565b6040519061336382610f31565b602082527f72616e646f6d53656564206265666f726520696e6372656d656e74696e673a206020830152565b6040519061339c82610f31565b601f82527f72616e646f6d5365656420616674657220696e6372656d656e74696e673a20006020830152565b9190916133d3611af9565b926103e8936000916133eb612641855162ffffff1690565b956000925b613401612588608088015160ff1690565b841015613991578790613415611c846132fb565b61341e82612716565b61343061342b86846127eb565b6128e9565b90613439611af9565b9160005b878282106138e457505050909150613456611c84613334565b61345f85612716565b61346882612412565b600484109182156138b85761348d613488613483888d6127eb565b612789565b61298f565b506134a86134a361349e888d6127eb565b612797565b6129bb565b925b60018b878083036138a2575050805b8c6134c2611af9565b946000946134cf84611ae7565b95805b8d8683106137695796505050505090506134ec92506127eb565b6134f5906127b3565b6134fe90612a3e565b928661350981612c3e565b9461351390612c3e565b918c61351f83826127eb565b613528906127c1565b60608d019081516135389161399a565b9161354385826127eb565b61354c906127cf565b82516135579161399a565b9361356190612c3e565b9461356b916127eb565b613574906127b3565b905161357f9161399a565b9360405197889760208901613593916122bb565b7f3c6c696e6561724772616469656e742069643d276772616469656e74000000008152601c016135c2916122bb565b7f27206772616469656e745472616e73666f726d3d27726f7461746528000000008152601c016135f1916122bb565b6214939f60e91b81526003017f3c73746f70206f66667365743d273025272073746f702d636f6c6f723d2700008152601e0161362c916122bb565b6213979f60e91b81526003017f3c73746f70206f66667365743d27353025272073746f702d636f6c6f723d27008152601f01613667916122bb565b6f272073746f702d6f7061636974793d2760801b8152601001613689916122bb565b631293979f60e11b81526004017f3c73746f70206f66667365743d2731303025272073746f702d636f6c6f723d2781526020016136c5916122bb565b6213979f60e91b81526003017f3c2f6c696e6561724772616469656e743e0000000000000000000000000000008152601101613700916122bb565b03601f19810182526137129082610fa1565b9261371b613356565b61372490612412565b61372d88612716565b60c0860151613755575b600190613745611c8461338f565b61374e89612716565b01926133f0565b966137616001916127dd565b979050613737565b908791899a61377783612c3e565b9161379b61378482612c3e565b91881561388d57613488613483612d50928d6127eb565b90604051938493602085016137af916122bb565b7f3c706f6c79676f6e20706f696e74733d2700000000000000000000000000000081526011016137df908b6122bb565b7f27207472616e73666f726d3d27726f7461746528000000000000000000000000815260140161380e916122bb565b7f2c203530302c2035303029272066696c6c3d2775726c28236772616469656e74815260200161383d916122bb565b6b2927206f7061636974793d2760a01b8152600c0161385b916122bb565b64129390179f60d91b815260050103601f198101825261387b9082610fa1565b99613885916127eb565b9101906134d2565b61389d613483612d50928d6127eb565b612937565b6138ae6138b3926127a5565b6129e7565b6134b9565b6138c861389d613483888d6127eb565b506138de6138d961349e888d6127eb565b612963565b926134aa565b8192939461171a61319a61393161392161392c87613917886139268f61391c6116429d6139176139619e613921946127eb565b6127eb565b61276d565b612915565b9e6127eb565b61277b565b611642613954613943612ddd8d612c3e565b9260405198899760208901906122bb565b600b60fa1b815260010190565b93888111613989575b858110613980575b50600101908a93929161343d565b94506001613972565b97508761396a565b96505050505050565b6139a381612856565b9060ff916139be838551169160608601928584511691613ab1565b9360028301808411611a8d576139d66139e791612856565b856020840151168685511691613ab1565b9160018401809411611a8d57613a26613a20613a3293613a2c938861031f996040613a1360299b612856565b9401511691511691613ab1565b96613b1a565b92613b1a565b94613b1a565b604051948592630e4cec4560e31b6020850152613a598151809260206024880191016102c6565b83019061016160f51b91826024820152613a7d8251809360206026850191016102c6565b01906026820152613a988251809360206028850191016102c6565b01602960f81b6028820152036009810184520182610fa1565b9060ff92828115613ad7578492808211613acd57030204011690565b9003020490031690565b5050501690565b15613ae557565b60405162461bcd60e51b815260206004820152600d60248201526c696e70757420746f6f2062696760981b6044820152606490fd5b613b276101008210613ade565b8015612cc957600a9081811015613b6357613b40612bd0565b91603091060160f81b6001600160f81b03191660001a613b5f82612c20565b5390565b6064811015613bae57613b74612bb6565b916001600160f81b031991819060308282060160f81b841660001a613b9886612c10565b53040660300160f81b1660001a613b5f82612c20565b613bb6612b9c565b916001600160f81b03199160649060308382060160f81b841660001a613bdb86612bea565b5383838083040660300160f81b1660001a613b9886612c1056fea26469706673582212206afae8e334b30438664c7378a3a000fa4dc3d380aabaef6437ce47481ec1ac3364736f6c63430008180033",
  "linkReferences": {},
  "deployedLinkReferences": {}
}