{
  "_format": "hh-sol-artifact-1",
  "contractName": "Anglez",
  "sourceName": "contracts/Anglez.sol",
  "abi": [
    {
      "inputs": [],
      "stateMutability": "nonpayable",
      "type": "constructor"
    },
    {
      "inputs": [],
      "name": "ApprovalCallerNotOwnerNorApproved",
      "type": "error"
    },
    {
      "inputs": [],
      "name": "ApprovalQueryForNonexistentToken",
      "type": "error"
    },
    {
      "inputs": [],
      "name": "BalanceQueryForZeroAddress",
      "type": "error"
    },
    {
      "inputs": [
        {
          "internalType": "uint256",
          "name": "numerator",
          "type": "uint256"
        },
        {
          "internalType": "uint256",
          "name": "denominator",
          "type": "uint256"
        }
      ],
      "name": "ERC2981InvalidDefaultRoyalty",
      "type": "error"
    },
    {
      "inputs": [
        {
          "internalType": "address",
          "name": "receiver",
          "type": "address"
        }
      ],
      "name": "ERC2981InvalidDefaultRoyaltyReceiver",
      "type": "error"
    },
    {
      "inputs": [
        {
          "internalType": "uint256",
          "name": "tokenId",
          "type": "uint256"
        },
        {
          "internalType": "uint256",
          "name": "numerator",
          "type": "uint256"
        },
        {
          "internalType": "uint256",
          "name": "denominator",
          "type": "uint256"
        }
      ],
      "name": "ERC2981InvalidTokenRoyalty",
      "type": "error"
    },
    {
      "inputs": [
        {
          "internalType": "uint256",
          "name": "tokenId",
          "type": "uint256"
        },
        {
          "internalType": "address",
          "name": "receiver",
          "type": "address"
        }
      ],
      "name": "ERC2981InvalidTokenRoyaltyReceiver",
      "type": "error"
    },
    {
      "inputs": [],
      "name": "InvalidQueryRange",
      "type": "error"
    },
    {
      "inputs": [],
      "name": "MintERC2309QuantityExceedsLimit",
      "type": "error"
    },
    {
      "inputs": [],
      "name": "MintToZeroAddress",
      "type": "error"
    },
    {
      "inputs": [],
      "name": "MintZeroQuantity",
      "type": "error"
    },
    {
      "inputs": [],
      "name": "NotCompatibleWithSpotMints",
      "type": "error"
    },
    {
      "inputs": [
        {
          "internalType": "address",
          "name": "owner",
          "type": "address"
        }
      ],
      "name": "OwnableInvalidOwner",
      "type": "error"
    },
    {
      "inputs": [
        {
          "internalType": "address",
          "name": "account",
          "type": "address"
        }
      ],
      "name": "OwnableUnauthorizedAccount",
      "type": "error"
    },
    {
      "inputs": [],
      "name": "OwnerQueryForNonexistentToken",
      "type": "error"
    },
    {
      "inputs": [],
      "name": "OwnershipNotInitializedForExtraData",
      "type": "error"
    },
    {
      "inputs": [],
      "name": "SequentialMintExceedsLimit",
      "type": "error"
    },
    {
      "inputs": [],
      "name": "SequentialUpToTooSmall",
      "type": "error"
    },
    {
      "inputs": [],
      "name": "SpotMintTokenIdTooSmall",
      "type": "error"
    },
    {
      "inputs": [],
      "name": "TokenAlreadyExists",
      "type": "error"
    },
    {
      "inputs": [],
      "name": "TransferCallerNotOwnerNorApproved",
      "type": "error"
    },
    {
      "inputs": [],
      "name": "TransferFromIncorrectOwner",
      "type": "error"
    },
    {
      "inputs": [],
      "name": "TransferToNonERC721ReceiverImplementer",
      "type": "error"
    },
    {
      "inputs": [],
      "name": "TransferToZeroAddress",
      "type": "error"
    },
    {
      "inputs": [],
      "name": "URIQueryForNonexistentToken",
      "type": "error"
    },
    {
      "anonymous": false,
      "inputs": [
        {
          "indexed": true,
          "internalType": "address",
          "name": "owner",
          "type": "address"
        },
        {
          "indexed": true,
          "internalType": "address",
          "name": "approved",
          "type": "address"
        },
        {
          "indexed": true,
          "internalType": "uint256",
          "name": "tokenId",
          "type": "uint256"
        }
      ],
      "name": "Approval",
      "type": "event"
    },
    {
      "anonymous": false,
      "inputs": [
        {
          "indexed": true,
          "internalType": "address",
          "name": "owner",
          "type": "address"
        },
        {
          "indexed": true,
          "internalType": "address",
          "name": "operator",
          "type": "address"
        },
        {
          "indexed": false,
          "internalType": "bool",
          "name": "approved",
          "type": "bool"
        }
      ],
      "name": "ApprovalForAll",
      "type": "event"
    },
    {
      "anonymous": false,
      "inputs": [
        {
          "indexed": true,
          "internalType": "uint256",
          "name": "fromTokenId",
          "type": "uint256"
        },
        {
          "indexed": false,
          "internalType": "uint256",
          "name": "toTokenId",
          "type": "uint256"
        },
        {
          "indexed": true,
          "internalType": "address",
          "name": "from",
          "type": "address"
        },
        {
          "indexed": true,
          "internalType": "address",
          "name": "to",
          "type": "address"
        }
      ],
      "name": "ConsecutiveTransfer",
      "type": "event"
    },
    {
      "anonymous": false,
      "inputs": [
        {
          "indexed": true,
          "internalType": "address",
          "name": "previousOwner",
          "type": "address"
        },
        {
          "indexed": true,
          "internalType": "address",
          "name": "newOwner",
          "type": "address"
        }
      ],
      "name": "OwnershipTransferred",
      "type": "event"
    },
    {
      "anonymous": false,
      "inputs": [
        {
          "indexed": true,
          "internalType": "address",
          "name": "from",
          "type": "address"
        },
        {
          "indexed": true,
          "internalType": "address",
          "name": "to",
          "type": "address"
        },
        {
          "indexed": true,
          "internalType": "uint256",
          "name": "tokenId",
          "type": "uint256"
        }
      ],
      "name": "Transfer",
      "type": "event"
    },
    {
      "inputs": [],
      "name": "TOKEN_LIMIT",
      "outputs": [
        {
          "internalType": "uint16",
          "name": "",
          "type": "uint16"
        }
      ],
      "stateMutability": "view",
      "type": "function"
    },
    {
      "inputs": [
        {
          "internalType": "address",
          "name": "to",
          "type": "address"
        },
        {
          "internalType": "uint256",
          "name": "tokenId",
          "type": "uint256"
        }
      ],
      "name": "approve",
      "outputs": [],
      "stateMutability": "payable",
      "type": "function"
    },
    {
      "inputs": [
        {
          "internalType": "address",
          "name": "owner",
          "type": "address"
        }
      ],
      "name": "balanceOf",
      "outputs": [
        {
          "internalType": "uint256",
          "name": "",
          "type": "uint256"
        }
      ],
      "stateMutability": "view",
      "type": "function"
    },
    {
      "inputs": [],
      "name": "contractURI",
      "outputs": [
        {
          "internalType": "string",
          "name": "",
          "type": "string"
        }
      ],
      "stateMutability": "pure",
      "type": "function"
    },
    {
      "inputs": [
        {
          "internalType": "uint256",
          "name": "tokenId",
          "type": "uint256"
        }
      ],
      "name": "explicitOwnershipOf",
      "outputs": [
        {
          "components": [
            {
              "internalType": "address",
              "name": "addr",
              "type": "address"
            },
            {
              "internalType": "uint64",
              "name": "startTimestamp",
              "type": "uint64"
            },
            {
              "internalType": "bool",
              "name": "burned",
              "type": "bool"
            },
            {
              "internalType": "uint24",
              "name": "extraData",
              "type": "uint24"
            }
          ],
          "internalType": "struct IERC721A.TokenOwnership",
          "name": "ownership",
          "type": "tuple"
        }
      ],
      "stateMutability": "view",
      "type": "function"
    },
    {
      "inputs": [
        {
          "internalType": "uint256[]",
          "name": "tokenIds",
          "type": "uint256[]"
        }
      ],
      "name": "explicitOwnershipsOf",
      "outputs": [
        {
          "components": [
            {
              "internalType": "address",
              "name": "addr",
              "type": "address"
            },
            {
              "internalType": "uint64",
              "name": "startTimestamp",
              "type": "uint64"
            },
            {
              "internalType": "bool",
              "name": "burned",
              "type": "bool"
            },
            {
              "internalType": "uint24",
              "name": "extraData",
              "type": "uint24"
            }
          ],
          "internalType": "struct IERC721A.TokenOwnership[]",
          "name": "",
          "type": "tuple[]"
        }
      ],
      "stateMutability": "view",
      "type": "function"
    },
    {
      "inputs": [
        {
          "internalType": "uint256",
          "name": "_tokenId",
          "type": "uint256"
        }
      ],
      "name": "generateSvg",
      "outputs": [
        {
          "internalType": "string",
          "name": "",
          "type": "string"
        }
      ],
      "stateMutability": "view",
      "type": "function"
    },
    {
      "inputs": [
        {
          "internalType": "uint256",
          "name": "tokenId",
          "type": "uint256"
        }
      ],
      "name": "getApproved",
      "outputs": [
        {
          "internalType": "address",
          "name": "",
          "type": "address"
        }
      ],
      "stateMutability": "view",
      "type": "function"
    },
    {
      "inputs": [],
      "name": "getCustomMintPrice",
      "outputs": [
        {
          "internalType": "uint256",
          "name": "",
          "type": "uint256"
        }
      ],
      "stateMutability": "view",
      "type": "function"
    },
    {
      "inputs": [],
      "name": "getRandomMintPrice",
      "outputs": [
        {
          "internalType": "uint256",
          "name": "",
          "type": "uint256"
        }
      ],
      "stateMutability": "view",
      "type": "function"
    },
    {
      "inputs": [
        {
          "internalType": "address",
          "name": "owner",
          "type": "address"
        },
        {
          "internalType": "address",
          "name": "operator",
          "type": "address"
        }
      ],
      "name": "isApprovedForAll",
      "outputs": [
        {
          "internalType": "bool",
          "name": "",
          "type": "bool"
        }
      ],
      "stateMutability": "view",
      "type": "function"
    },
    {
      "inputs": [
        {
          "internalType": "uint24",
          "name": "seed",
          "type": "uint24"
        }
      ],
      "name": "isSeedMinted",
      "outputs": [
        {
          "internalType": "bool",
          "name": "",
          "type": "bool"
        }
      ],
      "stateMutability": "view",
      "type": "function"
    },
    {
      "inputs": [
        {
          "internalType": "uint24",
          "name": "seed",
          "type": "uint24"
        },
        {
          "internalType": "uint8",
          "name": "shapeCount",
          "type": "uint8"
        },
        {
          "internalType": "uint8",
          "name": "zoom",
          "type": "uint8"
        },
        {
          "internalType": "uint8",
          "name": "tintRed",
          "type": "uint8"
        },
        {
          "internalType": "uint8",
          "name": "tintGreen",
          "type": "uint8"
        },
        {
          "internalType": "uint8",
          "name": "tintBlue",
          "type": "uint8"
        },
        {
          "internalType": "uint8",
          "name": "tintAlpha",
          "type": "uint8"
        },
        {
          "internalType": "bool",
          "name": "isCyclic",
          "type": "bool"
        }
      ],
      "name": "mintCustom",
      "outputs": [],
      "stateMutability": "payable",
      "type": "function"
    },
    {
      "inputs": [
        {
          "internalType": "uint24",
          "name": "seed",
          "type": "uint24"
        }
      ],
      "name": "mintRandom",
      "outputs": [],
      "stateMutability": "payable",
      "type": "function"
    },
    {
      "inputs": [],
      "name": "name",
      "outputs": [
        {
          "internalType": "string",
          "name": "",
          "type": "string"
        }
      ],
      "stateMutability": "view",
      "type": "function"
    },
    {
      "inputs": [],
      "name": "owner",
      "outputs": [
        {
          "internalType": "address",
          "name": "",
          "type": "address"
        }
      ],
      "stateMutability": "view",
      "type": "function"
    },
    {
      "inputs": [
        {
          "internalType": "uint256",
          "name": "tokenId",
          "type": "uint256"
        }
      ],
      "name": "ownerOf",
      "outputs": [
        {
          "internalType": "address",
          "name": "",
          "type": "address"
        }
      ],
      "stateMutability": "view",
      "type": "function"
    },
    {
      "inputs": [],
      "name": "renounceOwnership",
      "outputs": [],
      "stateMutability": "nonpayable",
      "type": "function"
    },
    {
      "inputs": [
        {
          "internalType": "uint256",
          "name": "tokenId",
          "type": "uint256"
        },
        {
          "internalType": "uint256",
          "name": "salePrice",
          "type": "uint256"
        }
      ],
      "name": "royaltyInfo",
      "outputs": [
        {
          "internalType": "address",
          "name": "",
          "type": "address"
        },
        {
          "internalType": "uint256",
          "name": "",
          "type": "uint256"
        }
      ],
      "stateMutability": "view",
      "type": "function"
    },
    {
      "inputs": [
        {
          "internalType": "address",
          "name": "from",
          "type": "address"
        },
        {
          "internalType": "address",
          "name": "to",
          "type": "address"
        },
        {
          "internalType": "uint256",
          "name": "tokenId",
          "type": "uint256"
        }
      ],
      "name": "safeTransferFrom",
      "outputs": [],
      "stateMutability": "payable",
      "type": "function"
    },
    {
      "inputs": [
        {
          "internalType": "address",
          "name": "from",
          "type": "address"
        },
        {
          "internalType": "address",
          "name": "to",
          "type": "address"
        },
        {
          "internalType": "uint256",
          "name": "tokenId",
          "type": "uint256"
        },
        {
          "internalType": "bytes",
          "name": "_data",
          "type": "bytes"
        }
      ],
      "name": "safeTransferFrom",
      "outputs": [],
      "stateMutability": "payable",
      "type": "function"
    },
    {
      "inputs": [
        {
          "internalType": "address",
          "name": "operator",
          "type": "address"
        },
        {
          "internalType": "bool",
          "name": "approved",
          "type": "bool"
        }
      ],
      "name": "setApprovalForAll",
      "outputs": [],
      "stateMutability": "nonpayable",
      "type": "function"
    },
    {
      "inputs": [
        {
          "internalType": "uint256",
          "name": "_customMintPrice",
          "type": "uint256"
        }
      ],
      "name": "setCustomMintPrice",
      "outputs": [],
      "stateMutability": "nonpayable",
      "type": "function"
    },
    {
      "inputs": [
        {
          "internalType": "uint256",
          "name": "_randomMintPrice",
          "type": "uint256"
        }
      ],
      "name": "setRandomMintPrice",
      "outputs": [],
      "stateMutability": "nonpayable",
      "type": "function"
    },
    {
      "inputs": [
        {
          "internalType": "bytes4",
          "name": "interfaceId",
          "type": "bytes4"
        }
      ],
      "name": "supportsInterface",
      "outputs": [
        {
          "internalType": "bool",
          "name": "",
          "type": "bool"
        }
      ],
      "stateMutability": "view",
      "type": "function"
    },
    {
      "inputs": [],
      "name": "symbol",
      "outputs": [
        {
          "internalType": "string",
          "name": "",
          "type": "string"
        }
      ],
      "stateMutability": "view",
      "type": "function"
    },
    {
      "inputs": [
        {
          "internalType": "uint256",
          "name": "_tokenId",
          "type": "uint256"
        }
      ],
      "name": "tokenURI",
      "outputs": [
        {
          "internalType": "string",
          "name": "",
          "type": "string"
        }
      ],
      "stateMutability": "view",
      "type": "function"
    },
    {
      "inputs": [
        {
          "internalType": "address",
          "name": "owner",
          "type": "address"
        }
      ],
      "name": "tokensOfOwner",
      "outputs": [
        {
          "internalType": "uint256[]",
          "name": "",
          "type": "uint256[]"
        }
      ],
      "stateMutability": "view",
      "type": "function"
    },
    {
      "inputs": [
        {
          "internalType": "address",
          "name": "owner",
          "type": "address"
        },
        {
          "internalType": "uint256",
          "name": "start",
          "type": "uint256"
        },
        {
          "internalType": "uint256",
          "name": "stop",
          "type": "uint256"
        }
      ],
      "name": "tokensOfOwnerIn",
      "outputs": [
        {
          "internalType": "uint256[]",
          "name": "",
          "type": "uint256[]"
        }
      ],
      "stateMutability": "view",
      "type": "function"
    },
    {
      "inputs": [],
      "name": "totalSupply",
      "outputs": [
        {
          "internalType": "uint256",
          "name": "result",
          "type": "uint256"
        }
      ],
      "stateMutability": "view",
      "type": "function"
    },
    {
      "inputs": [
        {
          "internalType": "address",
          "name": "from",
          "type": "address"
        },
        {
          "internalType": "address",
          "name": "to",
          "type": "address"
        },
        {
          "internalType": "uint256",
          "name": "tokenId",
          "type": "uint256"
        }
      ],
      "name": "transferFrom",
      "outputs": [],
      "stateMutability": "payable",
      "type": "function"
    },
    {
      "inputs": [
        {
          "internalType": "address",
          "name": "newOwner",
          "type": "address"
        }
      ],
      "name": "transferOwnership",
      "outputs": [],
      "stateMutability": "nonpayable",
      "type": "function"
    },
    {
      "inputs": [],
      "name": "withdraw",
      "outputs": [],
      "stateMutability": "nonpayable",
      "type": "function"
    }
  ],
  "bytecode": "0x608060405234620001aa5762000014620001c5565b60206520b733b632bd60d11b60208301526200002f620001e9565b6320a3a62d60e11b60208201528251929091906001600160401b038411620001a4576200006984620000636002546200020d565b6200024a565b602091601f85116001146200011357509280620000a392620000ac9560009262000107575b50508160011b916000199060031b1c19161790565b60025562000300565b600080553315620000ee57620000c233620003ee565b620000cd6000600c55565b620000de662386f26fc10000600d55565b6040516134319081620004388239f35b604051631e4fbdf760e01b815260006004820152602490fd5b0151905038806200008e565b60026000529190601f1985167f405787fa12a823e0f2b7631cc41b3ba8828b3321ca811111fa75cd3aa3bb5ace936000905b8282106200018b575050916001939186620000ac97941062000171575b505050811b0160025562000300565b015160001960f88460031b161c1916905538808062000162565b8060018697829497870151815501960194019062000145565b620001af565b600080fd5b634e487b7160e01b600052604160045260246000fd5b60408051919082016001600160401b03811183821017620001a45760405260068252565b60408051919082016001600160401b03811183821017620001a45760405260048252565b90600182811c921680156200023f575b60208310146200022957565b634e487b7160e01b600052602260045260246000fd5b91607f16916200021d565b601f811162000257575050565b60009060026000526020600020906020601f850160051c830194106200029a575b601f0160051c01915b8281106200028e57505050565b81815560010162000281565b909250829062000278565b601f8111620002b2575050565b60009060036000526020600020906020601f850160051c83019410620002f5575b601f0160051c01915b828110620002e957505050565b818155600101620002dc565b9092508290620002d3565b80519091906001600160401b038111620001a4576200032c81620003266003546200020d565b620002a5565b602080601f83116001146200036657508190620003619394600092620001075750508160011b916000199060031b1c19161790565b600355565b6003600052601f198316949091907fc2575a0e9e593c00f959f8c92f12db2869c3395a3b0502d05e2516446f71f85b926000905b878210620003d5575050836001959610620003bb575b505050811b01600355565b015160001960f88460031b161c19169055388080620003b0565b806001859682949686015181550195019301906200039a565b600b80546001600160a01b039283166001600160a01b0319821681179092559091167f8be0079c531659141344cd1fd0a4f28419497f9722a3daafe3b4186f6b6457e0600080a356fe6080604052600436101561001257600080fd5b60003560e01c806301ffc9a714610227578063031bd4c41461022257806306fdde031461021d578063081812fc14610218578063095ea7b31461021357806318160ddd1461020e57806323b872dd146102095780632a55205a146102045780633ccfd60b146101ff57806342842e0e146101fa578063476f49fa146101f557806357bf214d146101f05780635bbb2177146101eb5780636352211e146101e65780636f59b3c8146101e157806370a08231146101dc578063715018a6146101d757806372655e5b146101d25780637dab8cfc146101cd5780638462151c146101c85780638da5cb5b146101c357806395d89b41146101be578063960c41d6146101b957806399a2557a146101b4578063a22cb465146101af578063b88d4fde146101aa578063bc921dc2146101a5578063bd2a3c62146101a0578063c23dc68f1461019b578063c87b56dd14610196578063e8a3d48514610191578063e985e9c51461018c5763f2fde38b1461018757600080fd5b61155c565b6114fa565b611484565b611288565b611223565b611176565b611143565b6110bf565b610f27565b610d9d565b610d7f565b610cb9565b610c92565b610b21565b610ac7565b61097f565b6108bb565b610890565b61086f565b610840565b6107da565b61071e565b6106eb565b6106c8565b610676565b6105cc565b6105b8565b610560565b6104a1565b610421565b610312565b610299565b610243565b6001600160e01b031981160361023e57565b600080fd5b3461023e57602036600319011261023e5760206004356102628161022c565b63ffffffff60e01b1663152a902d60e11b8114908115610288575b506040519015158152f35b6301ffc9a760e01b1490503861027d565b3461023e57600036600319011261023e5760206040516102008152f35b60005b8381106102c95750506000910152565b81810151838201526020016102b9565b906020916102f2815180928185528580860191016102b6565b601f01601f1916010190565b90602061030f9281815201906102d9565b90565b3461023e5760008060031936011261041e576040519080600254906001918060011c9260018216928315610414575b6020926020861085146104005785885260208801949081156103df5750600114610386575b6103828761037681890382611065565b604051918291826102fe565b0390f35b600260005294509192917f405787fa12a823e0f2b7631cc41b3ba8828b3321ca811111fa75cd3aa3bb5ace5b8386106103ce5750505091019050610376826103823880610366565b8054858701529482019481016103b2565b60ff191685525050505090151560051b019050610376826103823880610366565b634e487b7160e01b82526022600452602482fd5b93607f1693610341565b80fd5b3461023e57602036600319011261023e5760043561043e81611c03565b1561046457600052600660205260206001600160a01b0360406000205416604051908152f35b6333d1c03960e21b60005260046000fd5b600435906001600160a01b038216820361023e57565b602435906001600160a01b038216820361023e57565b604036600319011261023e576104b5610475565b6024356001600160a01b0391826104cb83611c9a565b1680330361051d575b600093838552600660205260408520921691826001600160a01b03198254161790557f8c5be1e5ebec7d5bd14f71427d1e84f3dd0314c0f7b2291e5b200ac8c7c3b9258480a480f35b80600052600760205260ff610549336040600020906001600160a01b0316600052602052604060002090565b54166104d4576367d9dca160e11b60005260046000fd5b3461023e57600036600319011261023e5760206000546001549003604051908152f35b606090600319011261023e576001600160a01b0390600435828116810361023e5791602435908116810361023e579060443590565b6105ca6105c436610583565b916115e3565b005b3461023e57604036600319011261023e57600435600052600a6020526040600020604051906105fa82610ff5565b54906001600160a01b0382169182825260a01c60208201529015610668575b61064c61271061063d6bffffffffffffffffffffffff6020850151166024356117fd565b0491516001600160a01b031690565b604080516001600160a01b039290921682526020820192909252f35b50610671611790565b610619565b3461023e5760008060031936011261041e57610690611d17565b808080806001600160a01b03600b541647908282156106bf575bf1156106b35780f35b604051903d90823e3d90fd5b506108fc6106aa565b6105ca6106d436610583565b90604051926106e28461102d565b60008452611a72565b3461023e57602036600319011261023e57610704611d17565b600435600d55005b6004359062ffffff8216820361023e57565b3461023e57602036600319011261023e5762ffffff61073b61070c565b16600052600f602052602060ff604060002054166040519015158152f35b602090602060408183019282815285518094520193019160005b828110610781575050505090565b90919293826080826107ce600194895162ffffff606080926001600160a01b03815116855267ffffffffffffffff6020820151166020860152604081015115156040860152015116910152565b01950193929101610773565b3461023e57602036600319011261023e5767ffffffffffffffff60043581811161023e573660238201121561023e57806004013591821161023e573660248360051b8301011161023e57610382916024610834920161184b565b60405191829182610759565b3461023e57602036600319011261023e5760206001600160a01b03610866600435611c9a565b16604051908152f35b3461023e57602036600319011261023e57610888611d17565b600435600c55005b3461023e57602036600319011261023e5760206108b36108ae610475565b61188b565b604051908152f35b3461023e5760008060031936011261041e576108d5611d17565b806001600160a01b03600b5481198116600b55167f8be0079c531659141344cd1fd0a4f28419497f9722a3daafe3b4186f6b6457e08280a380f35b6024359060ff8216820361023e57565b6044359060ff8216820361023e57565b6064359060ff8216820361023e57565b6084359060ff8216820361023e57565b60a4359060ff8216820361023e57565b60c4359060ff8216820361023e57565b60e43590811515820361023e57565b61010036600319011261023e576105ca610aba61099a61070c565b610a026109a5610910565b610a9683610a8d6109b4610920565b936109bd610930565b610a596109c8610940565b610a4f6109d3610950565b610a456109de610960565b93610a27610a22610a1e610a176109f3610970565b9d610a02600d543410156118c6565b62ffffff16600052600f602052604060002090565b5460ff1690565b1590565b611912565b610a3b610a32611087565b60ff9098168852565b60ff166020870152565b60ff166040850152565b60ff166060830152565b610a7e610a64611096565b62ffffff8a168152966001602089015260ff166040880152565b606086015260ff166080850152565b151560a0830152565b610ab5600054610aa533611d43565b600052600e602052604060002090565b61195e565b805460ff19166001179055565b3461023e57600036600319011261023e576020600d54604051908152f35b602090602060408183019282815285518094520193019160005b828110610b0d575050505090565b835185529381019392810192600101610aff565b3461023e57602036600319011261023e57610b3a610475565b60005490606080918315918215610b5a575b604051806103828682610ae5565b90919250600093606093610c8d57610b718361188b565b9182610b89575b505050506103829150388080610b4c565b909180939450821115610c84575b604051936001840160051b8501604052610baf611b93565b600090610bc2610a1e6040830151151590565b610c72575b509560009360015b15610c44575b600097610be1836120f7565b604081015115610c0957505060016000925b01976001870160051b8801604052979197610bcf565b9290925180610c3c575b50838318851b15610c27575b600190610bf3565b6001909501600581901b880186905294610c1f565b925038610c13565b8082148015610c69575b15610bd5575050505090506103829250815238808080610b78565b50858514610c4e565b516001600160a01b0316905038610bc7565b91508091610b97565b611c89565b3461023e57600036600319011261023e5760206001600160a01b03600b5416604051908152f35b3461023e5760008060031936011261041e576040519080600354906001918060011c9260018216928315610d75575b6020926020861085146104005785885260208801949081156103df5750600114610d1c576103828761037681890382611065565b600360005294509192917fc2575a0e9e593c00f959f8c92f12db2869c3395a3b0502d05e2516446f71f85b5b838610610d645750505091019050610376826103823880610366565b805485870152948201948101610d48565b93607f1693610ce8565b3461023e57600036600319011261023e576020600c54604051908152f35b3461023e5760608060031936011261023e57610db7610475565b90602435916044358360609382861015610c8d5760005480841015610f1f575b50610de18461188b565b9183871015610f16575b82610dff575b604051806103828882610ae5565b90919293945085840383811115610f0e575b5060409260405195600193600591610e356001850160051b8a019a8b604052611bd4565b93600094610e49610a1e6040830151151590565b610efc575b506000989495946001885b610e79575b50505050505050505050610382925081523880808080610df1565b15610ede575b600096610e8b876120f7565b808b015115610ea85750508787965b0196888d8b52979697610e59565b9690965180610ed6575b50838718851b15610ec5575b8890610e9a565b99880180861b8c018b905299610ebe565b965038610eb2565b8086148015610ef3575b15610e7f5780610e5e565b50818a14610ee8565b516001600160a01b0316945038610e4e565b925038610e11565b60009250610deb565b925038610dd7565b3461023e57604036600319011261023e57610f40610475565b6024359081151580920361023e576001600160a01b0390336000526007602052610f81816040600020906001600160a01b0316600052602052604060002090565b60ff1981541660ff851617905560405192835216907f17307eab39ab6107e8899845ad3d59bd9653f200f220920489ca2b5937696c3160203392a3005b634e487b7160e01b600052604160045260246000fd5b60c0810190811067ffffffffffffffff821117610ff057604052565b610fbe565b6040810190811067ffffffffffffffff821117610ff057604052565b6080810190811067ffffffffffffffff821117610ff057604052565b6020810190811067ffffffffffffffff821117610ff057604052565b6060810190811067ffffffffffffffff821117610ff057604052565b90601f8019910116810190811067ffffffffffffffff821117610ff057604052565b6040519061109482611011565b565b6040519061109482610fd4565b67ffffffffffffffff8111610ff057601f01601f191660200190565b608036600319011261023e576110d3610475565b6110db61048b565b6064359167ffffffffffffffff831161023e573660238401121561023e57826004013591611108836110a3565b926111166040519485611065565b808452366024828701011161023e5760208160009260246105ca9801838801378501015260443591611a72565b3461023e57602036600319011261023e57610382611162600435611b22565b6040519182916020835260208301906102d9565b602036600319011261023e5761118a61070c565b611198600c543410156118c6565b6111ba610a22610a1e610a178462ffffff16600052600f602052604060002090565b611220610aba6111c8611087565b92610a026000948581528560208201528560408201528560608201526111ec611096565b62ffffff841681529086602083015286604083015260608201528560808201528560a0820152610ab58654610aa533611d43565b80f35b3461023e57602036600319011261023e576080611241600435611bd4565b611286604051809262ffffff606080926001600160a01b03815116855267ffffffffffffffff6020820151166020860152604081015115156040860152015116910152565bf35b3461023e57602036600319011261023e576103826113a46103766004356112b66112b182611c03565b611ab5565b6114766114686112c58361220e565b9280600052600e60205261139e61143f61135561134f604060002061134a60ff6002604051936112f485610fd4565b61131f83825462ffffff81168852818160181c161515602089015260201c16604087019060ff169052565b61132b60018201611aea565b6060860152015460ff82821616608085015260081c16151560a0830152565b6122e3565b93611b22565b9261139e604051998a9861139e60208b016025907f646174613a6170706c69636174696f6e2f6a736f6e2c7b226e616d65223a2241815264474c5a202360d81b60208201520190565b90611bec565b7f3a2062656175746966756c2c20636f6c6f7266756c2c2061627374726163742081527f616e676c657a222c226465736372697074696f6e223a2022416e676c657a206960208201527f73206f6e2d636861696e2c2067656e65726174697665204e465420617274202d60408201527f2068747470733a2f2f616e676c657a2e78797a222c2000000000000000000000606082015260760190565b7f2c2022696d616765223a2022646174613a696d6167652f7376672b786d6c2c008152601f0190565b61227d60f01b815260020190565b03601f198101835282611065565b3461023e57600036600319011261023e576103826040516114a481611049565b602f81527f68747470733a2f2f6d696e742e6265796f6e6468756d616e2e61692f73746f7260208201526e6566726f6e742d6d6574616461746160881b60408201526040519182916020835260208301906102d9565b3461023e57604036600319011261023e57602060ff61155061151a610475565b6001600160a01b0361152a61048b565b9116600052600784526040600020906001600160a01b0316600052602052604060002090565b54166040519015158152f35b3461023e57602036600319011261023e57611575610475565b61157d611d17565b6001600160a01b038091169081156115ca57600b54826001600160a01b0319821617600b55167f8be0079c531659141344cd1fd0a4f28419497f9722a3daafe3b4186f6b6457e0600080a3005b604051631e4fbdf760e01b815260006004820152602490fd5b9190916115ef82611c9a565b926001600160a01b0380921693848382160361178b576000848152600660205260409020805461162e6001600160a01b03881633908114908314171590565b611742575b611738575b50611656856001600160a01b03166000526005602052604060002090565b805460001901905561167b826001600160a01b03166000526005602052604060002090565b805460010190556001600160a01b0382164260a01b17600160e11b176116ab856000526004602052604060002090565b55600160e11b8116156116ee575b501680927fddf252ad1be2c89b69c2b068fc378daa952ba7f163c4a11628f55a4df523b3ef600080a4156116e957565b611c67565b60018401611706816000526004602052604060002090565b5415611713575b506116b9565b600054811461170d57611730906000526004602052604060002090565b55388061170d565b6000905538611638565b611781610a1e610a17336117698b6001600160a01b03166000526007602052604060002090565b906001600160a01b0316600052602052604060002090565b1561163357611c56565b611c46565b6040519061179d82610ff5565b6009546001600160a01b038116835260a01c6020830152565b634e487b7160e01b600052601160045260246000fd5b906064820291808304606414901517156117e257565b6117b6565b90600a820291808304600a14901517156117e257565b818102929181159184041417156117e257565b634e487b7160e01b600052601260045260246000fd5b8015611833576101680490565b611810565b604051906118458261102d565b60008252565b6040519180835260051b6020818401016040525b808180156118845761187b90601f198091019385010135611bd4565b9084015261185f565b5050505090565b6001600160a01b031680156118b557600052600560205267ffffffffffffffff6040600020541690565b6323d3ad8160e21b60005260046000fd5b156118cd57565b60405162461bcd60e51b815260206004820152601460248201527f496e73756666696369656e74207061796d656e740000000000000000000000006044820152606490fd5b1561191957565b60405162461bcd60e51b815260206004820152601160248201527f5365656420616c726561647920757365640000000000000000000000000000006044820152606490fd5b90611a5760a060026110949461199d62ffffff86511662ffffff19835416178083556020870151151563ff0000009060181b169063ff00000019161790565b80825564ff00000000604087015160201b169064ff00000000191617815560018101611a2b60608701516119df60ff825116849060ff1660ff19825416179055565b6020810151835461ff00191660089190911b61ff0016179060ff606062ff0000604084015160101b16920151169162ff00001916179063ff0000009060181b169063ff00000019161790565b90550192611a50611a40608083015160ff1690565b855460ff191660ff909116178555565b0151151590565b908054909161ff001990911690151560081b61ff0016179055565b929190611a808282866115e3565b803b611a8d575b50505050565b611a9693611e56565b15611aa45738808080611a87565b6368d2bf6b60e11b60005260046000fd5b15611abc57565b60405162461bcd60e51b815260206004820152600660248201526510905117d25160d21b6044820152606490fd5b90604051611af781611011565b606060ff8294548181168452818160081c166020850152818160101c16604085015260181c16910152565b611b2b81611c03565b80611b63575b611b3a90611ab5565b600052600e60205261030f6040600020611b5e60ff6002604051936112f485610fd4565b611f34565b506102008110611b31565b60405190611b7b82611011565b60006060838281528260208201528260408201520152565b6000906000611ba0611b6e565b92600054611bac575050565b92505b80835260046020526040832054611bc95760001901611baf565b61030f9192506120f7565b90611bdd611b6e565b91600080548210611bac575050565b90611bff602092828151948592016102b6565b0190565b90600091600080548210611c15575050565b92505b8083526004602052604083205480611c3a575080156117e25760001901611c18565b600160e01b1615925050565b62a1148160e81b60005260046000fd5b632ce44b5f60e11b60005260046000fd5b633a954ecd60e21b60005260046000fd5b636f96cda160e11b60005260046000fd5b631960ccad60e11b60005260046000fd5b611cae816000526004602052604060002090565b54908115611cc55750600160e01b8116611c785790565b9050600090600054811015611c78575b60001901600081815260046020526040902054908115611d105750600160e01b811615611d0b57636f96cda160e11b8252600482fd5b905090565b9050611cd5565b6001600160a01b03600b54163303611d2b57565b60405163118cdaa760e01b8152336004820152602490fd5b60008054916001600160a01b03908082164260a01b17600160e11b17611d73856000526004602052604060002090565b55611d91816001600160a01b03166000526005602052604060002090565b680100000000000000018154019055168015611e0357600183810193919080805b611dbe575b5050505055565b15611df2575b83818484877fddf252ad1be2c89b69c2b068fc378daa952ba7f163c4a11628f55a4df523b3ef8180a4611db2565b80920191848303611dc45780611db7565b622e076360e81b8252600482fd5b9081602091031261023e575161030f8161022c565b3d15611e51573d90611e37826110a3565b91611e456040519384611065565b82523d6000602084013e565b606090565b92602091611ea09360006001600160a01b0360405180978196829584630a85bd0160e11b9c8d865233600487015216602485015260448401526080606484015260848301906102d9565b0393165af160009181611edd575b50611ecf57611ebb611e26565b805115611eca57805190602001fd5b611aa4565b6001600160e01b0319161490565b611f0091925060203d602011611f07575b611ef88183611065565b810190611e11565b9038611eae565b503d611eee565b60ff166096039060ff82116117e257565b9061012c62ffffff809316019182116117e257565b61030f612096916120356120e36120cd611fc061139e6120a4611f74611f6f611f69611f6460408b015160ff1690565b611f0e565b60ff1690565b61270e565b611fe960409892985195869261139e602085016026907f3c646566733e3c636c6970506174682069643d276d6173746572436c6970273e81526501e3932b1ba160d51b60208201520190565b7f2f3e3c2f636c6970506174683e3c2f646566733e000000000000000000000000815260140190565b0397611ffd601f19998a8101875286611065565b60a0810151156120ef5761202f61202a61202261201d845162ffffff1690565b611f1f565b62ffffff1690565b6128f3565b90612b70565b9261139e6040519a8b9861139e60208b016031907f3c73766720786d6c6e733d27687474703a2f2f7777772e77332e6f72672f323081527f30302f737667272076696577426f783d2700000000000000000000000000000060208201520190565b61139f60f11b815260020190565b7f3c6720636c69702d706174683d2775726c28236d6173746572436c697029273e815260200190565b691e17b39f1e17b9bb339f60b11b8152600a0190565b03908101835282611065565b600190612b70565b6120ff611b6e565b506000526004602052604060002054612116611b6e565b906001600160a01b038116825267ffffffffffffffff8160a01c166020830152600160e01b81161515604083015260e81c606082015290565b6040519061215c82610ff5565b60018252600360fc1b6020830152565b6040519061217982610ff5565b6003825260203681840137565b6040519061219382610ff5565b6002825260203681840137565b604051906121ad82610ff5565b6001825260203681840137565b8051600210156121ca5760220190565b634e487b7160e01b600052603260045260246000fd5b8051600110156121ca5760210190565b8051156121ca5760200190565b9081518110156121ca570160200190565b801561229957806000826000935b61228a575061222a836110a3565b926122386040519485611065565b808452601f19612247826110a3565b01366020860137825b61225a5750505090565b6000190191600a9060308282060160f81b6001600160f81b031916831a61228185876121fd565b53049182612250565b926001600a910193048061221c565b5061030f61214f565b604051906122af82610ff5565b600582526466616c736560d81b6020830152565b604051906122d082610ff5565b60048252637472756560e01b6020830152565b606081019061230d612306612301611f69606086510160ff90511690565b6117cc565b60ff900490565b91612326612321612022845162ffffff1690565b61220e565b916123346020820151151590565b15612645576123416122c3565b935b612357612321611f69608085015160ff1690565b9261236c612321611f69604086015160ff1690565b61237f612321611f69845160ff90511690565b906123c160a06123b96123b3612321611f6960406123a9612321611f6960208d510160ff90511690565b9951015160ff1690565b9661220e565b960151151590565b15612637576123ce6122c3565b955b6040516e2261747472696275746573223a205b60881b6020820152988998602f8a017f7b2274726169745f74797065223a202273656564222c202276616c7565223a208152601160f91b602082015260210161242b91611bec565b62089f4b60ea1b81526003017f7b2274726169745f74797065223a2022637573746f6d222c202276616c7565228152621d101160e91b602082015260230161247291611bec565b62089f4b60ea1b81526003017f7b2274726169745f74797065223a2022736861706573222c202276616c7565228152621d101160e91b60208201526023016124b991611bec565b62089f4b60ea1b81526003017f7b2274726169745f74797065223a20227a6f6f6d222c202276616c7565223a208152601160f91b60208201526021016124fe91611bec565b62089f4b60ea1b81526003017f7b2274726169745f74797065223a202274696e7420636f6c6f72222c2022766181526a0d8eaca44744044e4cec4560ab1b6020820152602b0161254d91611bec565b61016160f51b815260020161256191611bec565b61016160f51b815260020161257591611bec565b630a489f4b60e21b81526004017f7b2274726169745f74797065223a202274696e74207472616e73706172656e6381526d3c911610113b30b63ab2911d101160911b6020820152602e016125c891611bec565b6309489f4b60e21b81526004017f7b2274726169745f74797065223a20226379636c6963222c202276616c7565228152621d101160e91b602082015260230161261091611bec565b61227d60f01b8152600201605d60f81b815260010103601f198101825261030f9082611065565b61263f6122a2565b956123d0565b61264d6122a2565b93612343565b906101f49182018092116117e257565b90602882018092116117e257565b90603282018092116117e257565b90601082018092116117e257565b90601482018092116117e257565b90601182018092116117e257565b90600f82018092116117e257565b90600d82018092116117e257565b90600e82018092116117e257565b90606482018092116117e257565b919082018092116117e257565b906101f49182039182116117e257565b6101f3198101919082116117e257565b612717906117e7565b9061272461232183612653565b6101f48084111561284c575061284861274b612321612745612804966126fe565b60011c90565b604051602d60f81b6020820152929061283c61282f856127ab6127a561279261279f8161278c61277e602188018b611bec565b61202d60f01b815260020190565b89611bec565b600160fd1b815260010190565b88611bec565b86611bec565b03936127bf601f1995868101895288611065565b61139e6128196127ec6040519b8c9761139e6127f26127ec60208c0160049063783d272d60e01b81520190565b83611bec565b652720793d272d60d01b815260060190565b68272077696474683d2760b81b815260090190565b6927206865696768743d2760b01b8152600a0190565b602760f81b815260010190565b03908101855284611065565b9190565b612804939081036128e15750612848612865600061220e565b916040519261283c61282f856128906127a561279261279f61279261278c612792602088018b611bec565b03936128a4601f1995868101895288611065565b61139e6128196127ec6040519b8c9761139e6128d06127ec60208c0160039062783d2760e81b81520190565b642720793d2760d81b815260050190565b612865612321612745612848936126ee565b600790604051602081019182526020815261290d81610ff5565b51902006600281018091116117e25790565b600390604051602081019182526020815261293981610ff5565b51902006600381018091116117e25790565b6103e990604051602081019182526020815261296681610ff5565b5190200690565b601f90604051602081019182526020815261298781610ff5565b51902006603281018091116117e25790565b603d9060405160208101918252602081526129b381610ff5565b51902006601e81018091116117e25790565b60159060405160208101918252602081526129df81610ff5565b51902006605081018091116117e25790565b6033906040516020810191825260208152612a0b81610ff5565b51902006602881018091116117e25790565b6001821115612a60576040516020810191825260208152612a3d81610ff5565b519020816000198101116117e25781156118335706600181018091116117e25790565b5050600190565b61016990604051602081019182526020815261296681610ff5565b60ff906040516020810191825260208152612a9c81610ff5565b5190201690565b60405190612ab082610ff5565b601b82527f424547494e4e494e47204c4f4f502072616e646f6d536565643a2000000000006020830152565b60405190612ae982610ff5565b6006825265706f696e747360d01b6020830152565b60405190612b0b82610ff5565b602082527f72616e646f6d53656564206265666f726520696e6372656d656e74696e673a206020830152565b60405190612b4482610ff5565b601f82527f72616e646f6d5365656420616674657220696e6372656d656e74696e673a20006020830152565b612b78611838565b916103e890600090612b90612022855162ffffff1690565b926000955b612ba6611f69608088015160ff1690565b871015613121578490612bbf612bba612aa3565b61312b565b612bc88261315e565b612bda612bd589846126e1565b61291f565b90612be3611838565b9160005b8a82821061306e57505050909150612c00612bba612adc565b612c098861315e565b612c128261312b565b6004841091821561304257612c37612c32612c2d8b8a6126e1565b61267f565b6129c5565b50612c52612c4d612c488b8a6126e1565b61268d565b6129f1565b925b612c6686612c618a61269b565b612a1d565b8a612c6f611838565b93600093612c7c84611826565b9480935b8d868610612f085794509450505050612c9992506126e1565b612ca2906126a9565b612cab90612a67565b9289612cb68161220e565b94612cc09061220e565b91612ccb828b6126e1565b612cd4906126b7565b60608c01908151612ce491613185565b90612cef848d6126e1565b612cf8906126c5565b8151612d0391613185565b92612d0d9061220e565b93612d18908d6126e1565b612d21906126a9565b9051612d2c91613185565b9360405197889760208901612d4091611bec565b7f3c6c696e6561724772616469656e742069643d276772616469656e74000000008152601c01612d6f91611bec565b7f27206772616469656e745472616e73666f726d3d27726f7461746528000000008152601c01612d9e91611bec565b6214939f60e91b81526003017f3c73746f70206f66667365743d273025272073746f702d636f6c6f723d2700008152601e01612dd991611bec565b6213979f60e91b81526003017f3c73746f70206f66667365743d27353025272073746f702d636f6c6f723d27008152601f01612e1491611bec565b6f272073746f702d6f7061636974793d2760801b8152601001612e3691611bec565b631293979f60e11b81526004017f3c73746f70206f66667365743d2731303025272073746f702d636f6c6f723d278152602001612e7291611bec565b6213979f60e91b81526003017f3c2f6c696e6561724772616469656e743e0000000000000000000000000000008152601101612ead91611bec565b03601f1981018252612ebf9082611065565b93612ec8612afe565b612ed19061312b565b612eda8161315e565b612ee3906126d3565b95612eec612b37565b612ef59061312b565b612efe8761315e565b6001019593612b95565b978798612f38612f178561220e565b93612f218161220e565b92871561302d57612c2d61232192612c32926126e1565b9060405193849360208501612f4c91611bec565b7f3c706f6c79676f6e20706f696e74733d270000000000000000000000000000008152601101612f7c9089611bec565b7f27207472616e73666f726d3d27726f74617465280000000000000000000000008152601401612fab91611bec565b7f2c203530302c2035303029272066696c6c3d2775726c28236772616469656e748152602001612fda91611bec565b6b2927206f7061636974793d2760a01b8152600c01612ff891611bec565b64129390179f60d91b815260050103601f19810182526130189082611065565b96613022916126e1565b92600101928e612c80565b612c2d6123219261303d926126e1565b61296d565b61305261303d612c2d8b8a6126e1565b50613068613063612c488b8a6126e1565b612999565b92612c54565b819293946114766127926130bb6130ab6130b6876130a1886130b08f6130a661139e9d6130a16130f19e6130ab946126e1565b6126e1565b612663565b61294b565b9e6126e1565b612671565b61139e6130e46130d36130cd8d61220e565b9361220e565b926040519889976020890190611bec565b600b60fa1b815260010190565b93878111613119575b858110613110575b506001019087939291612be7565b94506001613102565b9650866130fa565b9550505050505090565b6114766131596110949260405192839163104c13eb60e21b60208401526020602484015260448301906102d9565b61329c565b611094906040519063f82c50f160e01b602083015260248201526024815261315981611049565b61318e81612a82565b9060ff916131a98385511691606086019285845116916132b7565b93600283018084116117e2576131c16131d291612a82565b8560208401511686855116916132b7565b91600184018094116117e25761321161320b61321d93613217938861030f9960406131fe60299b612a82565b94015116915116916132b7565b96613320565b92613320565b94613320565b604051948592630e4cec4560e31b60208501526132448151809260206024880191016102b6565b83019061016160f51b918260248201526132688251809360206026850191016102b6565b019060268201526132838251809360206028850191016102b6565b01602960f81b6028820152036009810184520182611065565b600080916020815191016a636f6e736f6c652e6c6f675afa50565b9060ff928281156132dd5784928082116132d357030204011690565b9003020490031690565b5050501690565b156132eb57565b60405162461bcd60e51b815260206004820152600d60248201526c696e70757420746f6f2062696760981b6044820152606490fd5b61332d61010082106132e4565b801561229957600a9081811015613369576133466121a0565b91603091060160f81b6001600160f81b03191660001a613365826121f0565b5390565b60648110156133b45761337a612186565b916001600160f81b031991819060308282060160f81b841660001a61339e866121e0565b53040660300160f81b1660001a613365826121f0565b6133bc61216c565b916001600160f81b03199160649060308382060160f81b841660001a6133e1866121ba565b5383838083040660300160f81b1660001a61339e866121e056fea2646970667358221220c14689cfd6c0cab04f0d48947652aebd13997cba2281ce514815150f4a482d2764736f6c63430008180033",
  "linkReferences": {},
  "deployedLinkReferences": {}
}