{
  "_format": "hh-sol-artifact-1",
  "contractName": "Anglez",
  "sourceName": "contracts/Anglez.sol",
  "abi": [
    {
      "inputs": [],
      "stateMutability": "nonpayable",
      "type": "constructor"
    },
    {
      "inputs": [],
      "name": "ApprovalCallerNotOwnerNorApproved",
      "type": "error"
    },
    {
      "inputs": [],
      "name": "ApprovalQueryForNonexistentToken",
      "type": "error"
    },
    {
      "inputs": [],
      "name": "BalanceQueryForZeroAddress",
      "type": "error"
    },
    {
      "inputs": [
        {
          "internalType": "uint256",
          "name": "numerator",
          "type": "uint256"
        },
        {
          "internalType": "uint256",
          "name": "denominator",
          "type": "uint256"
        }
      ],
      "name": "ERC2981InvalidDefaultRoyalty",
      "type": "error"
    },
    {
      "inputs": [
        {
          "internalType": "address",
          "name": "receiver",
          "type": "address"
        }
      ],
      "name": "ERC2981InvalidDefaultRoyaltyReceiver",
      "type": "error"
    },
    {
      "inputs": [
        {
          "internalType": "uint256",
          "name": "tokenId",
          "type": "uint256"
        },
        {
          "internalType": "uint256",
          "name": "numerator",
          "type": "uint256"
        },
        {
          "internalType": "uint256",
          "name": "denominator",
          "type": "uint256"
        }
      ],
      "name": "ERC2981InvalidTokenRoyalty",
      "type": "error"
    },
    {
      "inputs": [
        {
          "internalType": "uint256",
          "name": "tokenId",
          "type": "uint256"
        },
        {
          "internalType": "address",
          "name": "receiver",
          "type": "address"
        }
      ],
      "name": "ERC2981InvalidTokenRoyaltyReceiver",
      "type": "error"
    },
    {
      "inputs": [],
      "name": "InvalidQueryRange",
      "type": "error"
    },
    {
      "inputs": [],
      "name": "MintERC2309QuantityExceedsLimit",
      "type": "error"
    },
    {
      "inputs": [],
      "name": "MintToZeroAddress",
      "type": "error"
    },
    {
      "inputs": [],
      "name": "MintZeroQuantity",
      "type": "error"
    },
    {
      "inputs": [],
      "name": "NotCompatibleWithSpotMints",
      "type": "error"
    },
    {
      "inputs": [
        {
          "internalType": "address",
          "name": "owner",
          "type": "address"
        }
      ],
      "name": "OwnableInvalidOwner",
      "type": "error"
    },
    {
      "inputs": [
        {
          "internalType": "address",
          "name": "account",
          "type": "address"
        }
      ],
      "name": "OwnableUnauthorizedAccount",
      "type": "error"
    },
    {
      "inputs": [],
      "name": "OwnerQueryForNonexistentToken",
      "type": "error"
    },
    {
      "inputs": [],
      "name": "OwnershipNotInitializedForExtraData",
      "type": "error"
    },
    {
      "inputs": [],
      "name": "SequentialMintExceedsLimit",
      "type": "error"
    },
    {
      "inputs": [],
      "name": "SequentialUpToTooSmall",
      "type": "error"
    },
    {
      "inputs": [],
      "name": "SpotMintTokenIdTooSmall",
      "type": "error"
    },
    {
      "inputs": [],
      "name": "TokenAlreadyExists",
      "type": "error"
    },
    {
      "inputs": [],
      "name": "TransferCallerNotOwnerNorApproved",
      "type": "error"
    },
    {
      "inputs": [],
      "name": "TransferFromIncorrectOwner",
      "type": "error"
    },
    {
      "inputs": [],
      "name": "TransferToNonERC721ReceiverImplementer",
      "type": "error"
    },
    {
      "inputs": [],
      "name": "TransferToZeroAddress",
      "type": "error"
    },
    {
      "inputs": [],
      "name": "URIQueryForNonexistentToken",
      "type": "error"
    },
    {
      "anonymous": false,
      "inputs": [
        {
          "indexed": true,
          "internalType": "address",
          "name": "owner",
          "type": "address"
        },
        {
          "indexed": true,
          "internalType": "address",
          "name": "approved",
          "type": "address"
        },
        {
          "indexed": true,
          "internalType": "uint256",
          "name": "tokenId",
          "type": "uint256"
        }
      ],
      "name": "Approval",
      "type": "event"
    },
    {
      "anonymous": false,
      "inputs": [
        {
          "indexed": true,
          "internalType": "address",
          "name": "owner",
          "type": "address"
        },
        {
          "indexed": true,
          "internalType": "address",
          "name": "operator",
          "type": "address"
        },
        {
          "indexed": false,
          "internalType": "bool",
          "name": "approved",
          "type": "bool"
        }
      ],
      "name": "ApprovalForAll",
      "type": "event"
    },
    {
      "anonymous": false,
      "inputs": [
        {
          "indexed": true,
          "internalType": "uint256",
          "name": "fromTokenId",
          "type": "uint256"
        },
        {
          "indexed": false,
          "internalType": "uint256",
          "name": "toTokenId",
          "type": "uint256"
        },
        {
          "indexed": true,
          "internalType": "address",
          "name": "from",
          "type": "address"
        },
        {
          "indexed": true,
          "internalType": "address",
          "name": "to",
          "type": "address"
        }
      ],
      "name": "ConsecutiveTransfer",
      "type": "event"
    },
    {
      "anonymous": false,
      "inputs": [
        {
          "indexed": true,
          "internalType": "address",
          "name": "previousOwner",
          "type": "address"
        },
        {
          "indexed": true,
          "internalType": "address",
          "name": "newOwner",
          "type": "address"
        }
      ],
      "name": "OwnershipTransferred",
      "type": "event"
    },
    {
      "anonymous": false,
      "inputs": [
        {
          "indexed": true,
          "internalType": "address",
          "name": "from",
          "type": "address"
        },
        {
          "indexed": true,
          "internalType": "address",
          "name": "to",
          "type": "address"
        },
        {
          "indexed": true,
          "internalType": "uint256",
          "name": "tokenId",
          "type": "uint256"
        }
      ],
      "name": "Transfer",
      "type": "event"
    },
    {
      "inputs": [],
      "name": "TOKEN_LIMIT",
      "outputs": [
        {
          "internalType": "uint16",
          "name": "",
          "type": "uint16"
        }
      ],
      "stateMutability": "view",
      "type": "function"
    },
    {
      "inputs": [
        {
          "internalType": "address",
          "name": "to",
          "type": "address"
        },
        {
          "internalType": "uint256",
          "name": "tokenId",
          "type": "uint256"
        }
      ],
      "name": "approve",
      "outputs": [],
      "stateMutability": "payable",
      "type": "function"
    },
    {
      "inputs": [
        {
          "internalType": "address",
          "name": "owner",
          "type": "address"
        }
      ],
      "name": "balanceOf",
      "outputs": [
        {
          "internalType": "uint256",
          "name": "",
          "type": "uint256"
        }
      ],
      "stateMutability": "view",
      "type": "function"
    },
    {
      "inputs": [],
      "name": "contractURI",
      "outputs": [
        {
          "internalType": "string",
          "name": "",
          "type": "string"
        }
      ],
      "stateMutability": "pure",
      "type": "function"
    },
    {
      "inputs": [
        {
          "internalType": "uint256",
          "name": "tokenId",
          "type": "uint256"
        }
      ],
      "name": "explicitOwnershipOf",
      "outputs": [
        {
          "components": [
            {
              "internalType": "address",
              "name": "addr",
              "type": "address"
            },
            {
              "internalType": "uint64",
              "name": "startTimestamp",
              "type": "uint64"
            },
            {
              "internalType": "bool",
              "name": "burned",
              "type": "bool"
            },
            {
              "internalType": "uint24",
              "name": "extraData",
              "type": "uint24"
            }
          ],
          "internalType": "struct IERC721A.TokenOwnership",
          "name": "ownership",
          "type": "tuple"
        }
      ],
      "stateMutability": "view",
      "type": "function"
    },
    {
      "inputs": [
        {
          "internalType": "uint256[]",
          "name": "tokenIds",
          "type": "uint256[]"
        }
      ],
      "name": "explicitOwnershipsOf",
      "outputs": [
        {
          "components": [
            {
              "internalType": "address",
              "name": "addr",
              "type": "address"
            },
            {
              "internalType": "uint64",
              "name": "startTimestamp",
              "type": "uint64"
            },
            {
              "internalType": "bool",
              "name": "burned",
              "type": "bool"
            },
            {
              "internalType": "uint24",
              "name": "extraData",
              "type": "uint24"
            }
          ],
          "internalType": "struct IERC721A.TokenOwnership[]",
          "name": "",
          "type": "tuple[]"
        }
      ],
      "stateMutability": "view",
      "type": "function"
    },
    {
      "inputs": [
        {
          "internalType": "uint256",
          "name": "_tokenId",
          "type": "uint256"
        }
      ],
      "name": "generateSvg",
      "outputs": [
        {
          "internalType": "string",
          "name": "",
          "type": "string"
        }
      ],
      "stateMutability": "view",
      "type": "function"
    },
    {
      "inputs": [
        {
          "internalType": "uint256",
          "name": "tokenId",
          "type": "uint256"
        }
      ],
      "name": "getApproved",
      "outputs": [
        {
          "internalType": "address",
          "name": "",
          "type": "address"
        }
      ],
      "stateMutability": "view",
      "type": "function"
    },
    {
      "inputs": [],
      "name": "getCustomMintPrice",
      "outputs": [
        {
          "internalType": "uint256",
          "name": "",
          "type": "uint256"
        }
      ],
      "stateMutability": "view",
      "type": "function"
    },
    {
      "inputs": [],
      "name": "getRandomMintPrice",
      "outputs": [
        {
          "internalType": "uint256",
          "name": "",
          "type": "uint256"
        }
      ],
      "stateMutability": "view",
      "type": "function"
    },
    {
      "inputs": [
        {
          "internalType": "address",
          "name": "owner",
          "type": "address"
        },
        {
          "internalType": "address",
          "name": "operator",
          "type": "address"
        }
      ],
      "name": "isApprovedForAll",
      "outputs": [
        {
          "internalType": "bool",
          "name": "",
          "type": "bool"
        }
      ],
      "stateMutability": "view",
      "type": "function"
    },
    {
      "inputs": [
        {
          "internalType": "uint24",
          "name": "seed",
          "type": "uint24"
        }
      ],
      "name": "isSeedMinted",
      "outputs": [
        {
          "internalType": "bool",
          "name": "",
          "type": "bool"
        }
      ],
      "stateMutability": "view",
      "type": "function"
    },
    {
      "inputs": [
        {
          "internalType": "uint24",
          "name": "seed",
          "type": "uint24"
        },
        {
          "internalType": "uint8",
          "name": "shapeCount",
          "type": "uint8"
        },
        {
          "internalType": "uint8",
          "name": "tintRed",
          "type": "uint8"
        },
        {
          "internalType": "uint8",
          "name": "tintGreen",
          "type": "uint8"
        },
        {
          "internalType": "uint8",
          "name": "tintBlue",
          "type": "uint8"
        },
        {
          "internalType": "uint8",
          "name": "tintAlpha",
          "type": "uint8"
        },
        {
          "internalType": "bool",
          "name": "isCyclic",
          "type": "bool"
        },
        {
          "internalType": "bool",
          "name": "isChaotic",
          "type": "bool"
        }
      ],
      "name": "mintCustom",
      "outputs": [],
      "stateMutability": "payable",
      "type": "function"
    },
    {
      "inputs": [
        {
          "internalType": "uint24",
          "name": "seed",
          "type": "uint24"
        }
      ],
      "name": "mintRandom",
      "outputs": [],
      "stateMutability": "payable",
      "type": "function"
    },
    {
      "inputs": [],
      "name": "name",
      "outputs": [
        {
          "internalType": "string",
          "name": "",
          "type": "string"
        }
      ],
      "stateMutability": "view",
      "type": "function"
    },
    {
      "inputs": [],
      "name": "owner",
      "outputs": [
        {
          "internalType": "address",
          "name": "",
          "type": "address"
        }
      ],
      "stateMutability": "view",
      "type": "function"
    },
    {
      "inputs": [
        {
          "internalType": "uint256",
          "name": "tokenId",
          "type": "uint256"
        }
      ],
      "name": "ownerOf",
      "outputs": [
        {
          "internalType": "address",
          "name": "",
          "type": "address"
        }
      ],
      "stateMutability": "view",
      "type": "function"
    },
    {
      "inputs": [],
      "name": "renounceOwnership",
      "outputs": [],
      "stateMutability": "nonpayable",
      "type": "function"
    },
    {
      "inputs": [
        {
          "internalType": "uint256",
          "name": "tokenId",
          "type": "uint256"
        },
        {
          "internalType": "uint256",
          "name": "salePrice",
          "type": "uint256"
        }
      ],
      "name": "royaltyInfo",
      "outputs": [
        {
          "internalType": "address",
          "name": "",
          "type": "address"
        },
        {
          "internalType": "uint256",
          "name": "",
          "type": "uint256"
        }
      ],
      "stateMutability": "view",
      "type": "function"
    },
    {
      "inputs": [
        {
          "internalType": "address",
          "name": "from",
          "type": "address"
        },
        {
          "internalType": "address",
          "name": "to",
          "type": "address"
        },
        {
          "internalType": "uint256",
          "name": "tokenId",
          "type": "uint256"
        }
      ],
      "name": "safeTransferFrom",
      "outputs": [],
      "stateMutability": "payable",
      "type": "function"
    },
    {
      "inputs": [
        {
          "internalType": "address",
          "name": "from",
          "type": "address"
        },
        {
          "internalType": "address",
          "name": "to",
          "type": "address"
        },
        {
          "internalType": "uint256",
          "name": "tokenId",
          "type": "uint256"
        },
        {
          "internalType": "bytes",
          "name": "_data",
          "type": "bytes"
        }
      ],
      "name": "safeTransferFrom",
      "outputs": [],
      "stateMutability": "payable",
      "type": "function"
    },
    {
      "inputs": [
        {
          "internalType": "address",
          "name": "operator",
          "type": "address"
        },
        {
          "internalType": "bool",
          "name": "approved",
          "type": "bool"
        }
      ],
      "name": "setApprovalForAll",
      "outputs": [],
      "stateMutability": "nonpayable",
      "type": "function"
    },
    {
      "inputs": [
        {
          "internalType": "uint256",
          "name": "_customMintPrice",
          "type": "uint256"
        }
      ],
      "name": "setCustomMintPrice",
      "outputs": [],
      "stateMutability": "nonpayable",
      "type": "function"
    },
    {
      "inputs": [
        {
          "internalType": "uint256",
          "name": "_randomMintPrice",
          "type": "uint256"
        }
      ],
      "name": "setRandomMintPrice",
      "outputs": [],
      "stateMutability": "nonpayable",
      "type": "function"
    },
    {
      "inputs": [
        {
          "internalType": "bytes4",
          "name": "interfaceId",
          "type": "bytes4"
        }
      ],
      "name": "supportsInterface",
      "outputs": [
        {
          "internalType": "bool",
          "name": "",
          "type": "bool"
        }
      ],
      "stateMutability": "view",
      "type": "function"
    },
    {
      "inputs": [],
      "name": "symbol",
      "outputs": [
        {
          "internalType": "string",
          "name": "",
          "type": "string"
        }
      ],
      "stateMutability": "view",
      "type": "function"
    },
    {
      "inputs": [
        {
          "internalType": "uint256",
          "name": "_tokenId",
          "type": "uint256"
        }
      ],
      "name": "tokenURI",
      "outputs": [
        {
          "internalType": "string",
          "name": "",
          "type": "string"
        }
      ],
      "stateMutability": "view",
      "type": "function"
    },
    {
      "inputs": [
        {
          "internalType": "address",
          "name": "owner",
          "type": "address"
        }
      ],
      "name": "tokensOfOwner",
      "outputs": [
        {
          "internalType": "uint256[]",
          "name": "",
          "type": "uint256[]"
        }
      ],
      "stateMutability": "view",
      "type": "function"
    },
    {
      "inputs": [
        {
          "internalType": "address",
          "name": "owner",
          "type": "address"
        },
        {
          "internalType": "uint256",
          "name": "start",
          "type": "uint256"
        },
        {
          "internalType": "uint256",
          "name": "stop",
          "type": "uint256"
        }
      ],
      "name": "tokensOfOwnerIn",
      "outputs": [
        {
          "internalType": "uint256[]",
          "name": "",
          "type": "uint256[]"
        }
      ],
      "stateMutability": "view",
      "type": "function"
    },
    {
      "inputs": [],
      "name": "totalSupply",
      "outputs": [
        {
          "internalType": "uint256",
          "name": "result",
          "type": "uint256"
        }
      ],
      "stateMutability": "view",
      "type": "function"
    },
    {
      "inputs": [
        {
          "internalType": "address",
          "name": "from",
          "type": "address"
        },
        {
          "internalType": "address",
          "name": "to",
          "type": "address"
        },
        {
          "internalType": "uint256",
          "name": "tokenId",
          "type": "uint256"
        }
      ],
      "name": "transferFrom",
      "outputs": [],
      "stateMutability": "payable",
      "type": "function"
    },
    {
      "inputs": [
        {
          "internalType": "address",
          "name": "newOwner",
          "type": "address"
        }
      ],
      "name": "transferOwnership",
      "outputs": [],
      "stateMutability": "nonpayable",
      "type": "function"
    },
    {
      "inputs": [
        {
          "internalType": "uint24",
          "name": "seed",
          "type": "uint24"
        },
        {
          "internalType": "uint8",
          "name": "shapeCount",
          "type": "uint8"
        },
        {
          "internalType": "uint8",
          "name": "tintRed",
          "type": "uint8"
        },
        {
          "internalType": "uint8",
          "name": "tintGreen",
          "type": "uint8"
        },
        {
          "internalType": "uint8",
          "name": "tintBlue",
          "type": "uint8"
        },
        {
          "internalType": "uint8",
          "name": "tintAlpha",
          "type": "uint8"
        }
      ],
      "name": "validateCustomParams",
      "outputs": [
        {
          "internalType": "bool",
          "name": "",
          "type": "bool"
        }
      ],
      "stateMutability": "view",
      "type": "function"
    },
    {
      "inputs": [],
      "name": "withdraw",
      "outputs": [],
      "stateMutability": "nonpayable",
      "type": "function"
    }
  ],
  "bytecode": "0x608060405234620001aa5762000014620001c5565b60206520b733b632bd60d11b60208301526200002f620001e9565b6320a3a62d60e11b60208201528251929091906001600160401b038411620001a4576200006984620000636002546200020d565b6200024a565b602091601f85116001146200011357509280620000a392620000ac9560009262000107575b50508160011b916000199060031b1c19161790565b60025562000300565b600080553315620000ee57620000c233620003ee565b620000cd6000600c55565b620000de662386f26fc10000600d55565b604051613d5f9081620004388239f35b604051631e4fbdf760e01b815260006004820152602490fd5b0151905038806200008e565b60026000529190601f1985167f405787fa12a823e0f2b7631cc41b3ba8828b3321ca811111fa75cd3aa3bb5ace936000905b8282106200018b575050916001939186620000ac97941062000171575b505050811b0160025562000300565b015160001960f88460031b161c1916905538808062000162565b8060018697829497870151815501960194019062000145565b620001af565b600080fd5b634e487b7160e01b600052604160045260246000fd5b60408051919082016001600160401b03811183821017620001a45760405260068252565b60408051919082016001600160401b03811183821017620001a45760405260048252565b90600182811c921680156200023f575b60208310146200022957565b634e487b7160e01b600052602260045260246000fd5b91607f16916200021d565b601f811162000257575050565b60009060026000526020600020906020601f850160051c830194106200029a575b601f0160051c01915b8281106200028e57505050565b81815560010162000281565b909250829062000278565b601f8111620002b2575050565b60009060036000526020600020906020601f850160051c83019410620002f5575b601f0160051c01915b828110620002e957505050565b818155600101620002dc565b9092508290620002d3565b80519091906001600160401b038111620001a4576200032c81620003266003546200020d565b620002a5565b602080601f83116001146200036657508190620003619394600092620001075750508160011b916000199060031b1c19161790565b600355565b6003600052601f198316949091907fc2575a0e9e593c00f959f8c92f12db2869c3395a3b0502d05e2516446f71f85b926000905b878210620003d5575050836001959610620003bb575b505050811b01600355565b015160001960f88460031b161c19169055388080620003b0565b806001859682949686015181550195019301906200039a565b600b80546001600160a01b039283166001600160a01b0319821681179092559091167f8be0079c531659141344cd1fd0a4f28419497f9722a3daafe3b4186f6b6457e0600080a356fe6080604052600436101561001257600080fd5b60003560e01c806301ffc9a714610237578063031bd4c41461023257806306fdde031461022d578063081812fc14610228578063095ea7b3146102235780630c0f2ce81461021e57806318160ddd1461021957806323b872dd146102145780632a55205a1461020f5780633ccfd60b1461020a57806342842e0e14610205578063476f49fa1461020057806357bf214d146101fb5780635bbb2177146101f65780636352211e146101f15780636f59b3c8146101ec57806370a08231146101e7578063715018a6146101e25780637dab8cfc146101dd5780638462151c146101d85780638da5cb5b146101d357806395d89b41146101ce578063960c41d6146101c957806399a2557a146101c4578063a22cb465146101bf578063a66e0dcf146101ba578063b88d4fde146101b5578063bc921dc2146101b0578063bd2a3c62146101ab578063c23dc68f146101a6578063c87b56dd146101a1578063e8a3d4851461019c578063e985e9c5146101975763f2fde38b1461019257600080fd5b611779565b611717565b6116a1565b611472565b61140d565b61123e565b61120b565b611187565b610ee1565b610e4a565b610ca2565b610c84565b610bbe565b610b97565b610a22565b6109c8565b610973565b610948565b610927565b6108f8565b610892565b6107d6565b6107b5565b610792565b610740565b610696565b610682565b61062a565b6105d2565b6104b1565b610431565b610322565b6102a9565b610253565b6001600160e01b031981160361024e57565b600080fd5b3461024e57602036600319011261024e5760206004356102728161023c565b63ffffffff60e01b1663152a902d60e11b8114908115610298575b506040519015158152f35b6301ffc9a760e01b1490503861028d565b3461024e57600036600319011261024e5760206040516102008152f35b60005b8381106102d95750506000910152565b81810151838201526020016102c9565b90602091610302815180928185528580860191016102c6565b601f01601f1916010190565b90602061031f9281815201906102e9565b90565b3461024e5760008060031936011261042e576040519080600254906001918060011c9260018216928315610424575b6020926020861085146104105785885260208801949081156103ef5750600114610396575b610392876103868189038261112d565b6040519182918261030e565b0390f35b600260005294509192917f405787fa12a823e0f2b7631cc41b3ba8828b3321ca811111fa75cd3aa3bb5ace5b8386106103de5750505091019050610386826103923880610376565b8054858701529482019481016103c2565b60ff191685525050505090151560051b019050610386826103923880610376565b634e487b7160e01b82526022600452602482fd5b93607f1693610351565b80fd5b3461024e57602036600319011261024e5760043561044e8161219b565b1561047457600052600660205260206001600160a01b0360406000205416604051908152f35b6333d1c03960e21b60005260046000fd5b600435906001600160a01b038216820361024e57565b602435906001600160a01b038216820361024e57565b604036600319011261024e576104c5610485565b6024356001600160a01b0391826104db83612273565b1680330361052d575b600093838552600660205260408520921691826001600160a01b03198254161790557f8c5be1e5ebec7d5bd14f71427d1e84f3dd0314c0f7b2291e5b200ac8c7c3b9258480a480f35b80600052600760205260ff610559336040600020906001600160a01b0316600052602052604060002090565b54166104e4576367d9dca160e11b60005260046000fd5b6004359062ffffff8216820361024e57565b6024359060ff8216820361024e57565b6044359060ff8216820361024e57565b6064359060ff8216820361024e57565b6084359060ff8216820361024e57565b60a4359060ff8216820361024e57565b3461024e5760c036600319011261024e5760206106206105f0610570565b6105f8610582565b610600610592565b6106086105a2565b906106116105b2565b9261061a6105c2565b94611840565b6040519015158152f35b3461024e57600036600319011261024e5760206000546001549003604051908152f35b606090600319011261024e576001600160a01b0390600435828116810361024e5791602435908116810361024e579060443590565b61069461068e3661064d565b916118ea565b005b3461024e57604036600319011261024e57600435600052600a6020526040600020604051906106c4826110d9565b54906001600160a01b0382169182825260a01c60208201529015610732575b6107166127106107076bffffffffffffffffffffffff602085015116602435611b1c565b0491516001600160a01b031690565b604080516001600160a01b039290921682526020820192909252f35b5061073b611a97565b6106e3565b3461024e5760008060031936011261042e5761075a6122f0565b808080806001600160a01b03600b54164790828215610789575bf11561077d5780f35b604051903d90823e3d90fd5b506108fc610774565b61069461079e3661064d565b90604051926107ac846110f5565b60008452611f01565b3461024e57602036600319011261024e576107ce6122f0565b600435600d55005b3461024e57602036600319011261024e5762ffffff6107f3610570565b16600052600f602052602060ff604060002054166040519015158152f35b602090602060408183019282815285518094520193019160005b828110610839575050505090565b9091929382608082610886600194895162ffffff606080926001600160a01b03815116855267ffffffffffffffff6020820151166020860152604081015115156040860152015116910152565b0195019392910161082b565b3461024e57602036600319011261024e5767ffffffffffffffff60043581811161024e573660238201121561024e57806004013591821161024e573660248360051b8301011161024e576103929160246108ec9201611b57565b60405191829182610811565b3461024e57602036600319011261024e5760206001600160a01b0361091e600435612273565b16604051908152f35b3461024e57602036600319011261024e576109406122f0565b600435600c55005b3461024e57602036600319011261024e57602061096b610966610485565b611b97565b604051908152f35b3461024e5760008060031936011261042e5761098d6122f0565b806001600160a01b03600b5481198116600b55167f8be0079c531659141344cd1fd0a4f28419497f9722a3daafe3b4186f6b6457e08280a380f35b3461024e57600036600319011261024e576020600d54604051908152f35b602090602060408183019282815285518094520193019160005b828110610a0e575050505090565b835185529381019392810192600101610a00565b3461024e57602036600319011261024e57610a3b610485565b60005490606080918315918215610a5b575b6040518061039286826109e6565b90919250600093606093610b9257610a7283611b97565b9182610a8a575b505050506103929150388080610a4d565b909180939450821115610b89575b604051936001840160051b8501604052610ab061212b565b600090610ac7610ac36040830151151590565b1590565b610b77575b509560009360015b15610b49575b600097610ae683613041565b604081015115610b0e57505060016000925b01976001870160051b8801604052979197610ad4565b9290925180610b41575b50838318851b15610b2c575b600190610af8565b6001909501600581901b880186905294610b24565b925038610b18565b8082148015610b6e575b15610ada575050505090506103929250815238808080610a79565b50858514610b53565b516001600160a01b0316905038610acc565b91508091610a98565b612221565b3461024e57600036600319011261024e5760206001600160a01b03600b5416604051908152f35b3461024e5760008060031936011261042e576040519080600354906001918060011c9260018216928315610c7a575b6020926020861085146104105785885260208801949081156103ef5750600114610c2157610392876103868189038261112d565b600360005294509192917fc2575a0e9e593c00f959f8c92f12db2869c3395a3b0502d05e2516446f71f85b5b838610610c695750505091019050610386826103923880610376565b805485870152948201948101610c4d565b93607f1693610bed565b3461024e57600036600319011261024e576020600c54604051908152f35b3461024e5760608060031936011261024e57610cbc610485565b90602435916044358360609382861015610b925760005480841015610e24575b50610ce684611b97565b9183871015610e1b575b82610d04575b6040518061039288826109e6565b90919293945085840383811115610e13575b5060409260405195600193600591610d3a6001850160051b8a019a8b60405261216c565b93600094610d4e610ac36040830151151590565b610e01575b506000989495946001885b610d7e575b50505050505050505050610392925081523880808080610cf6565b15610de3575b600096610d9087613041565b808b015115610dad5750508787965b0196888d8b52979697610d5e565b9690965180610ddb575b50838718851b15610dca575b8890610d9f565b99880180861b8c018b905299610dc3565b965038610db7565b8086148015610df8575b15610d845780610d63565b50818a14610ded565b516001600160a01b0316945038610d53565b925038610d16565b60009250610cf0565b925038610cdc565b60c43590811515820361024e57565b60e43590811515820361024e57565b3461024e57604036600319011261024e57610e63610485565b6024359081151580920361024e576001600160a01b0390336000526007602052610ea4816040600020906001600160a01b0316600052602052604060002090565b60ff1981541660ff851617905560405192835216907f17307eab39ab6107e8899845ad3d59bd9653f200f220920489ca2b5937696c3160203392a3005b61010036600319011261024e5761069461106d610efc610570565b610f69610f07610582565b61104983611040610f16610592565b93611037610f226105a2565b91611010610f2e6105b2565b611006610f396105c2565b91610ffc610f45610e2c565b97610f8a610f85610ac3610f7e610f5a610e3b565b9e610f69600d54341015611bd2565b62ffffff16600052600f602052604060002090565b5460ff1690565b611c1e565b610fde8d610fb8610fb08a60ff938492838093166002811015908161107a575b50611c5e565b161115611caa565b610fc6818085161115611ce9565b610fd4818087161115611d35565b8087161115611d81565b610ff2610fe961114f565b60ff909e168e52565b60ff1660208d0152565b60ff1660408b0152565b60ff166060890152565b61101861115e565b62ffffff8a1681529660016020890152604088015260ff166060870152565b15156080850152565b151560a0830152565b6110686000546110583361231c565b600052600e602052604060002090565b611dcd565b805460ff19166001179055565b60149150111538610faa565b634e487b7160e01b600052604160045260246000fd5b60c0810190811067ffffffffffffffff8211176110b857604052565b611086565b6080810190811067ffffffffffffffff8211176110b857604052565b6040810190811067ffffffffffffffff8211176110b857604052565b6020810190811067ffffffffffffffff8211176110b857604052565b6060810190811067ffffffffffffffff8211176110b857604052565b90601f8019910116810190811067ffffffffffffffff8211176110b857604052565b6040519061115c826110bd565b565b6040519061115c8261109c565b67ffffffffffffffff81116110b857601f01601f191660200190565b608036600319011261024e5761119b610485565b6111a361049b565b6064359167ffffffffffffffff831161024e573660238401121561024e578260040135916111d08361116b565b926111de604051948561112d565b808452366024828701011161024e5760208160009260246106949801838801378501015260443591611f01565b3461024e57602036600319011261024e5761039261122a600435611f79565b6040519182916020835260208301906102e9565b602036600319011261024e57611252610570565b600c5434101561126190611bd2565b61127a8162ffffff16600052600f602052604060002090565b5460ff161561128890611c1e565b61129061202c565b61129990612232565b6112a762ffffff8216612d32565b6112b081612065565b62ffffff166112be90612e0f565b6112c782612079565b62ffffff166112d590612e3e565b906112df8361208d565b62ffffff166112ed90612e3e565b906112f7846120a1565b62ffffff1661130590612e3e565b9061130f856120b5565b62ffffff1661131d90612e5f565b61132690611ad3565b6064900460ff16611336866120c9565b62ffffff1661134490612e8b565b60011492611351876120dd565b62ffffff1661135f90612e8b565b6001149461136b61114f565b60ff909716875260ff16602087015260ff16604086015260ff16606085015261139261115e565b62ffffff861681529360006020860152604085015260ff16606084015215156080830152151560a08201526000546113c93361231c565b6113dd90600052600e602052604060002090565b906113e791611dcd565b6114009062ffffff16600052600f602052604060002090565b805460ff19166001179055005b3461024e57602036600319011261024e57608061142b60043561216c565b611470604051809262ffffff606080926001600160a01b03815116855267ffffffffffffffff6020820151166020860152604081015115156040860152015116910152565bf35b3461024e57602036600319011261024e576103926115b760043561149d6114988261219b565b611f44565b6116976114a982613179565b82600052600e60205261168961167b6040946115b16116526115696115638960002061155e8b60028151936114dd8561109c565b80549262ffffff8416865260ff809460181c1615156020870152805190611503826110bd565b8460018401548181168452818160081c166020850152818160101c168385015260181c1660608301528601520154611543828216606086019060ff169052565b600881901c82161515608085015260101c16151560a0830152565b6132d5565b93611f79565b926115b189519a8b986115b160208b016025907f646174613a6170706c69636174696f6e2f6a736f6e2c7b226e616d65223a2241815264474c5a202360d81b60208201520190565b90612184565b7f3a2062656175746966756c2c20636f6c6f7266756c2c2061627374726163742081527f616e676c657a222c226465736372697074696f6e223a2022416e676c657a206960208201527f73206f6e2d636861696e2c2067656e65726174697665204e465420617274202d60408201527f2068747470733a2f2f616e676c657a2e78797a222c2000000000000000000000606082015260760190565b7f2c2022696d616765223a2022646174613a696d6167652f7376672b786d6c2c008152601f0190565b61227d60f01b815260020190565b03601f19810184528361112d565b519182918261030e565b3461024e57600036600319011261024e576103926040516116c181611111565b602f81527f68747470733a2f2f6d696e742e6265796f6e6468756d616e2e61692f73746f7260208201526e6566726f6e742d6d6574616461746160881b60408201526040519182916020835260208301906102e9565b3461024e57604036600319011261024e57602060ff61176d611737610485565b6001600160a01b0361174761049b565b9116600052600784526040600020906001600160a01b0316600052602052604060002090565b54166040519015158152f35b3461024e57602036600319011261024e57611792610485565b61179a6122f0565b6001600160a01b038091169081156117e757600b54826001600160a01b0319821617600b55167f8be0079c531659141344cd1fd0a4f28419497f9722a3daafe3b4186f6b6457e0600080a3005b604051631e4fbdf760e01b815260006004820152602490fd5b6040519061180d826110f5565b60008252565b60405190611820826110d9565b601182527014d9595908185b1c9958591e481d5cd959607a1b6020830152565b610f7e6118629196959493929662ffffff16600052600f602052604060002090565b6118d55760ff809516600281109081156118ca575b506118c05784809116116118b75783809116116118af5782809116116118a8578116116118a357600190565b600090565b5050600090565b505050600090565b50505050600090565b5050505050600090565b601491501138611877565b50505050506118a36118e5611813565b612232565b9190916118f682612273565b926001600160a01b03809216938483821603611a9257600084815260066020526040902080546119356001600160a01b03881633908114908314171590565b611a49575b611a3f575b5061195d856001600160a01b03166000526005602052604060002090565b8054600019019055611982826001600160a01b03166000526005602052604060002090565b805460010190556001600160a01b0382164260a01b17600160e11b176119b2856000526004602052604060002090565b55600160e11b8116156119f5575b501680927fddf252ad1be2c89b69c2b068fc378daa952ba7f163c4a11628f55a4df523b3ef600080a4156119f057565b6121ff565b60018401611a0d816000526004602052604060002090565b5415611a1a575b506119c0565b6000548114611a1457611a37906000526004602052604060002090565b553880611a14565b600090553861193f565b611a88610ac3610f7e33611a708b6001600160a01b03166000526007602052604060002090565b906001600160a01b0316600052602052604060002090565b1561193a576121ee565b6121de565b60405190611aa4826110d9565b6009546001600160a01b038116835260a01c6020830152565b634e487b7160e01b600052601160045260246000fd5b9060ff82029180830460ff1490151715611ae957565b611abd565b600181901b91906001600160ff1b03811603611ae957565b90606482029180830460641490151715611ae957565b81810292918115918404141715611ae957565b634e487b7160e01b600052601260045260246000fd5b8015611b52576101680490565b611b2f565b6040519180835260051b6020818401016040525b80818015611b9057611b8790601f19809101938501013561216c565b90840152611b6b565b5050505090565b6001600160a01b03168015611bc157600052600560205267ffffffffffffffff6040600020541690565b6323d3ad8160e21b60005260046000fd5b15611bd957565b60405162461bcd60e51b815260206004820152601460248201527f496e73756666696369656e74207061796d656e740000000000000000000000006044820152606490fd5b15611c2557565b60405162461bcd60e51b815260206004820152601160248201527014d9595908185b1c9958591e481d5cd959607a1b6044820152606490fd5b15611c6557565b60405162461bcd60e51b815260206004820152601360248201527f496e76616c696420736861706520636f756e74000000000000000000000000006044820152606490fd5b15611cb157565b60405162461bcd60e51b815260206004820152601060248201526f125b9d985b1a59081c9959081d1a5b9d60821b6044820152606490fd5b15611cf057565b60405162461bcd60e51b815260206004820152601260248201527f496e76616c696420677265656e2074696e7400000000000000000000000000006044820152606490fd5b15611d3c57565b60405162461bcd60e51b815260206004820152601160248201527f496e76616c696420626c75652074696e740000000000000000000000000000006044820152606490fd5b15611d8857565b60405162461bcd60e51b815260206004820152601260248201527f496e76616c696420616c7068612074696e7400000000000000000000000000006044820152606490fd5b90611ee460a0600261115c94611e0c62ffffff86511662ffffff19835416178083556020870151151563ff0000009060181b169063ff00000019161790565b815560018101611e8d6040870151611e3260ff825116849060ff1660ff19825416179055565b60ff6060611e73611e588360208601511687549061ff009060081b169061ff0019161790565b8360408601511662ff00009060101b169062ff000019161790565b9201511663ff0000009060181b169063ff00000019161790565b90550192611eb2611ea2606083015160ff1690565b855460ff191660ff909116178555565b611edd611ec26080830151151590565b858054909161ff001990911690151560081b61ff0016179055565b0151151590565b908054909162ff00001990911690151560101b62ff000016179055565b929190611f0f8282866118ea565b803b611f1c575b50505050565b611f259361242f565b15611f335738808080611f16565b6368d2bf6b60e11b60005260046000fd5b15611f4b57565b60405162461bcd60e51b815260206004820152600660248201526510905117d25160d21b6044820152606490fd5b611f828161219b565b80612021575b611f9190611f44565b600052600e60205261031f604060002061201c60405191611fb18361109c565b600281549162ffffff8316855260ff809360181c1615156020860152604051611fd9816110bd565b8360018301548181168352818160081c166020840152818160101c16604084015260181c16606082015260408601520154611543828216606086019060ff169052565b6124e7565b506102008110611f88565b60405190612039826110d9565b601382527f4d696e74696e67207769746820736565643a20000000000000000000000000006020830152565b90600562ffffff80931601918211611ae957565b90600662ffffff80931601918211611ae957565b90600762ffffff80931601918211611ae957565b90600862ffffff80931601918211611ae957565b90600962ffffff80931601918211611ae957565b90600462ffffff80931601918211611ae957565b90600b62ffffff80931601918211611ae957565b9061012c62ffffff80931601918211611ae957565b60405190612113826110bd565b60006060838281528260208201528260408201520152565b6000906000612138612106565b92600054612144575050565b92505b808352600460205260408320546121615760001901612147565b61031f919250613041565b90612175612106565b91600080548210612144575050565b90612197602092828151948592016102c6565b0190565b906000916000805482106121ad575050565b92505b80835260046020526040832054806121d257508015611ae957600019016121b0565b600160e01b1615925050565b62a1148160e81b60005260046000fd5b632ce44b5f60e11b60005260046000fd5b633a954ecd60e21b60005260046000fd5b636f96cda160e11b60005260046000fd5b631960ccad60e11b60005260046000fd5b61226061226e61115c9260405192839163104c13eb60e21b60208401526020602484015260448301906102e9565b03601f19810183528261112d565b61365e565b612287816000526004602052604060002090565b5490811561229e5750600160e01b81166122105790565b9050600090600054811015612210575b600019016000818152600460205260409020549081156122e95750600160e01b8116156122e457636f96cda160e11b8252600482fd5b905090565b90506122ae565b6001600160a01b03600b5416330361230457565b60405163118cdaa760e01b8152336004820152602490fd5b60008054916001600160a01b03908082164260a01b17600160e11b1761234c856000526004602052604060002090565b5561236a816001600160a01b03166000526005602052604060002090565b6801000000000000000181540190551680156123dc57600183810193919080805b612397575b5050505055565b156123cb575b83818484877fddf252ad1be2c89b69c2b068fc378daa952ba7f163c4a11628f55a4df523b3ef8180a461238b565b8092019184830361239d5780612390565b622e076360e81b8252600482fd5b9081602091031261024e575161031f8161023c565b3d1561242a573d906124108261116b565b9161241e604051938461112d565b82523d6000602084013e565b606090565b926020916124799360006001600160a01b0360405180978196829584630a85bd0160e11b9c8d865233600487015216602485015260448401526080606484015260848301906102e9565b0393165af1600091816124b6575b506124a8576124946123ff565b8051156124a357805190602001fd5b611f33565b6001600160e01b0319161490565b6124d991925060203d6020116124e0575b6124d1818361112d565b8101906123ea565b9038612487565b503d6124c7565b608081015190919015612d2a5761250d62ffffff612507818551166120f1565b16612ea5565b915b612517611800565b926103e8936000918583612539612531875162ffffff1690565b62ffffff1690565b9785945b61255461254e60608a015160ff1690565b60ff1690565b861015612b275789906125686118e5613679565b61257182612d32565b61258361257e8884612e02565b612ed1565b8761258c611800565b9160005b85828210612a4857505050506125a76118e56136b2565b6125b088612d32565b6125b981612232565b6004871015612a1d576125dc6125d76125d28a86612e02565b612d92565b612f77565b506125f76125f26125ed8a86612e02565b612da0565b612fa3565b60018803612a01576001918b918a915b61260f611800565b948b60009261261d83611b45565b9380925b8484106128b1575050505050506126388287612e02565b61264190612dbc565b61264a90613026565b9561265483613179565b9661265e90613179565b6126688483612e02565b61267190612dca565b604080960190815161268291613885565b9261268d8682612e02565b61269690612dd8565b82516126a191613885565b946126ab90613179565b956126b591612e02565b6126be90612dbc565b90516126c991613885565b9451978897602089016126db91612184565b7f3c6c696e6561724772616469656e742069643d276772616469656e74000000008152601c0161270a91612184565b7f27206772616469656e745472616e73666f726d3d27726f7461746528000000008152601c0161273991612184565b6214939f60e91b81526003017f3c73746f70206f66667365743d273025272073746f702d636f6c6f723d2700008152601e0161277491612184565b6213979f60e91b81526003017f3c73746f70206f66667365743d27353025272073746f702d636f6c6f723d27008152601f016127af91612184565b6f272073746f702d6f7061636974793d2760801b81526010016127d191612184565b631293979f60e11b81526004017f3c73746f70206f66667365743d2731303025272073746f702d636f6c6f723d27815260200161280d91612184565b6213979f60e91b81526003017f3c2f6c696e6561724772616469656e743e000000000000000000000000000000815260110161284891612184565b03601f198101825261285a908261112d565b946128636136d4565b61286c90612232565b6128758a612d32565b60a088015161289d575b60019061288d6118e561370d565b6128968b612d32565b019461253d565b986128a9600191612de6565b99905061287f565b85999193959792949698506128f16128c885613179565b938d60046128d583613179565b9410156129ec576125d26128ec926125d792612e02565b613179565b906040519384936020850161290591612184565b7f3c706f6c79676f6e20706f696e74733d2700000000000000000000000000000081526011016129359088612184565b7f27207472616e73666f726d3d27726f7461746528000000000000000000000000815260140161296491612184565b7f2c203530302c2035303029272066696c6c3d2775726c28236772616469656e74815260200161299391612184565b6b2927206f7061636974793d2760a01b8152600c016129b191612184565b64129390179f60d91b815260050103601f19810182526129d1908261112d565b966129db91612e02565b916001018f9593918e95938e612621565b6125d26128ec926129fc92612e02565b612f1f565b612a1388612a0e86612dae565b612fcf565b918b918a91612607565b612a2d6129fc6125d28a86612e02565b50612a43612a3e6125ed8a86612e02565b612f4b565b6125f7565b612ad8612a8e612a7d612a8985612a73612a82612a7d612a7884612a738e9f9c9d9e6115b19c612e02565b612e02565b612d76565b612efd565b9a8d612e02565b612d84565b92612260612acb612a9e89613179565b6115b1612abe612aad89613179565b926040519889976020890190612184565b600b60fa1b815260010190565b600160fd1b815260010190565b938c8111612b1f575b898110612b17575b50868110612b0f575b878111612b06575b50600101908991612590565b96506001612afa565b955085612af2565b985038612ae9565b9b508b612ae1565b95612c4398995061031f9750612acb955090612c519391612c639593612b4d8483612d69565b916001612b5a8584612d69565b9603612c6f575050612acb612bcf93926115b1612acb612bbb612bb5612baf612ba9612ba3612b9d612b97612b916115b19c612de6565b9c613873565b9d612de6565b97613873565b9b613a51565b9a613a51565b97613179565b93613179565b956115b16040519c8d9a60208c0190612184565b0393612be3601f199586810186528561112d565b6115b16040519788956115b1602088016031907f3c73766720786d6c6e733d27687474703a2f2f7777772e77332e6f72672f323081527f30302f737667272076696577426f783d2700000000000000000000000000000060208201520190565b61139f60f11b815260020190565b651e17b9bb339f60d11b815260060190565b0390810183528261112d565b612ce49550612cb29250612ca3612ccb95612ca895612cad94612c9d612c97612ca896612d59565b91612d59565b9261399c565b612df4565b611aee565b612d59565b612cbd6118e5613746565b612cc681612d32565b61377f565b612cd66118e561380b565b612cdf81612d32565b6139cf565b612cef6118e561382d565b612cf881612d32565b612bcf612d0e612d0783613856565b6002900590565b916115b1612acb828282612bbb612bb5612baf612ba98b613a51565b60019161250f565b61115c906040519063f82c50f160e01b602083015260248201526024815261226e81611111565b906103e8918203918211611ae957565b91908203918211611ae957565b9060288201809211611ae957565b9060328201809211611ae957565b9060108201809211611ae957565b9060148201809211611ae957565b9060118201809211611ae957565b90600f8201809211611ae957565b90600d8201809211611ae957565b90600e8201809211611ae957565b9060648201809211611ae957565b90600a8201809211611ae957565b91908201809211611ae957565b6003906040516020810191825260208152612e29816110d9565b5190201660058101809111611ae95760ff1690565b60ff906040516020810191825260208152612e58816110d9565b5190201690565b6051906040516020810191825260208152612e79816110d9565b51902006600a8101809111611ae95790565b6001906040516020810191825260208152612e58816110d9565b6007906040516020810191825260208152612ebf816110d9565b5190200660028101809111611ae95790565b6001906040516020810191825260208152612eeb816110d9565b5190201660038101809111611ae95790565b6103e9906040516020810191825260208152612f18816110d9565b5190200690565b601f906040516020810191825260208152612f39816110d9565b5190200660328101809111611ae95790565b603d906040516020810191825260208152612f65816110d9565b51902006601e8101809111611ae95790565b6015906040516020810191825260208152612f91816110d9565b5190200660508101809111611ae95790565b6033906040516020810191825260208152612fbd816110d9565b5190200660288101809111611ae95790565b600282111561301f576040516020810191825260208152612fef816110d9565b519020600119820191808311611ae95760001901809211611ae9578115611b52570660028101809111611ae95790565b5050600290565b610169906040516020810191825260208152612f18816110d9565b613049612106565b506000526004602052604060002054613060612106565b906001600160a01b038116825267ffffffffffffffff8160a01c166020830152600160e01b81161515604083015260e81c606082015290565b604051906130a6826110d9565b60018252600360fc1b6020830152565b604051906130c3826110d9565b6003825260203681840137565b604051906130dd826110d9565b6002825260203681840137565b604051906130f7826110d9565b6001825260203681840137565b9061310e8261116b565b61311b604051918261112d565b828152809261312c601f199161116b565b0190602036910137565b8051600210156131465760220190565b634e487b7160e01b600052603260045260246000fd5b8051600110156131465760210190565b8051156131465760200190565b9081156132015781600091816000925b6131f2575061319782613104565b915b809480156131e957600a91600019019584518710156131d55760308383060160f81b6001600160f81b031916861a908501601f01530493613199565b634e487b7160e01b86526032600452602486fd5b50509250905090565b916001600a9101920480613189565b905061031f613099565b60405190613218826110d9565b600582526466616c736560d81b6020830152565b60405190613239826110d9565b60048252637472756560e01b6020830152565b60405190613259826110d9565b60068252653634b732b0b960d11b6020830152565b6040519061327b826110d9565b60068252656379636c696360d01b6020830152565b6040519061329d826110d9565b6006825265199bdb19195960d21b6020830152565b604051906132bf826110d9565b60078252666368616f74696360c81b6020830152565b60408101906132ff6132f86132f361254e606086510160ff90511690565b611b06565b60ff900490565b6133126128ec612531845162ffffff1690565b916133206020820151151590565b156136505761332d61322c565b935b6133436128ec61254e606085015160ff1690565b926133576128ec61254e845160ff90511690565b9161338c6133866128ec61254e604061337c6128ec61254e602089510160ff90511690565b9551015160ff1690565b92613179565b9261339a6080860151151590565b1561363d576133b460a06133ac61326e565b960151151590565b1561362f576133c16132b2565b955b6040516e2261747472696275746573223a205b60881b6020820152988998602f8a017f7b2274726169745f74797065223a202273656564222c202276616c7565223a208152601160f91b602082015260210161341e91612184565b62089f4b60ea1b81526003017f7b2274726169745f74797065223a2022637573746f6d222c202276616c7565228152621d101160e91b602082015260230161346591612184565b62089f4b60ea1b81526003017f7b2274726169745f74797065223a2022736861706573222c202276616c7565228152621d101160e91b60208201526023016134ac91612184565b62089f4b60ea1b81526003017f7b2274726169745f74797065223a202274696e7420636f6c6f72222c2022766181526a0d8eaca44744044e4cec4560ab1b6020820152602b016134fb91612184565b61016160f51b815260020161350f91612184565b61016160f51b815260020161352391612184565b630a489f4b60e21b81526004017f7b2274726169745f74797065223a202274696e74207472616e73706172656e6381526d3c911610113b30b63ab2911d101160911b6020820152602e0161357691612184565b640809489f4b60da1b81526005017f7b2274726169745f74797065223a20227374796c65222c202276616c7565223a815261101160f11b60208201526022016135be91612184565b62089f4b60ea1b81526003017f7b2274726169745f74797065223a2022737472756374757265222c202276616c8152653ab2911d101160d11b602082015260260161360891612184565b61227d60f01b8152600201605d60f81b815260010103601f198101825261031f908261112d565b613637613290565b956133c3565b6133b460a061364a61324c565b96611edd565b61365861320b565b9361332f565b600080916020815191016a636f6e736f6c652e6c6f675afa50565b60405190613686826110d9565b601b82527f424547494e4e494e47204c4f4f502072616e646f6d536565643a2000000000006020830152565b604051906136bf826110d9565b6006825265706f696e747360d01b6020830152565b604051906136e1826110d9565b602082527f72616e646f6d53656564206265666f726520696e6372656d656e74696e673a206020830152565b6040519061371a826110d9565b601f82527f72616e646f6d5365656420616674657220696e6372656d656e74696e673a20006020830152565b60405190613753826110d9565b601682527f617274626f6172645769647468486569676874213a20000000000000000000006020830152565b80156138055780806001146137fe576002146137f8576001908161013382101682600b831016176137f057906002815b8082116137c757505081600019048111611ae9570290565b909280600019048111611ae9578184166137e7575b800292811c906137af565b809202916137dc565b600291500a90565b50600490565b5050600190565b50600090565b60405190613818826110d9565b600682526503a32b6b81d160d51b6020830152565b6040519061383a826110d9565b600d82526c03bb4b23a342432b4b3b43a1d1609d1b6020830152565b906103e860008382039312818412811691841390151617611ae957565b906031198201918213600116611ae957565b61388e81612e3e565b9060ff916138a9838551169160608601928584511691613bdc565b9360028301808411611ae9576138c16138d291612e3e565b856020840151168685511691613bdc565b9160018401809411611ae95761391161390b61391d93613917938861031f9960406138fe60299b612e3e565b9401511691511691613bdc565b96613c45565b92613c45565b94613c45565b604051948592630e4cec4560e31b60208501526139448151809260206024880191016102c6565b83019061016160f51b918260248201526139688251809360206026850191016102c6565b019060268201526139838251809360206028850191016102c6565b01602960f81b602882015203600981018452018261112d565b90808210156139c75750905b808210156139bf5750905b808210156122e4575090565b9050906139b3565b9050906139a8565b6001808201808311611ae95760011c9082905b8383106139ef5750505090565b91925090828015611b5257808304908101809111611ae957811c91906139e2565b602061115c919392936040519481613a3187935180928680870191016102c6565b8201613a45825180938680850191016102c6565b0103808552018361112d565b6000808212918215613bc757604051613a69816110d9565b60018152602d60f81b6020820152925b613bc0575b80827a184f03e93ff9f4daa797ed6e38ed64bf6a1f0100000000000000008281811015613bb2575b50506d04ee2d6d415b85acef810000000080841015613ba5575b50662386f26fc1000080841015613b98575b506305f5e10080841015613b8b575b5061271080841015613b7e575b506064831015613b70575b600a80931015613b68575b9060219160019281613b196001869401613104565b9650860101905b613b32575b5050505061031f91613a10565b600019019083906f181899199a1a9b1b9c1cb0b131b232b360811b8282061a835304918215613b6357919082613b20565b613b25565b600101613b04565b916064600291049201613af9565b6004919304920138613aee565b6008919304920138613ae1565b6010919304920138613ad2565b6020919304920138613ac0565b049250604090503880613aa6565b8103613a7e565b604051613bd3816110f5565b82815292613a79565b9060ff92828115613c02578492808211613bf857030204011690565b9003020490031690565b5050501690565b15613c1057565b60405162461bcd60e51b815260206004820152600d60248201526c696e70757420746f6f2062696760981b6044820152606490fd5b613c526101008210613c09565b8015613d2057600a9081811015613c8e57613c6b6130ea565b91603091060160f81b6001600160f81b03191660001a613c8a8261316c565b5390565b6064811015613cd957613c9f6130d0565b916001600160f81b031991819060308282060160f81b841660001a613cc38661315c565b53040660300160f81b1660001a613c8a8261316c565b613ce16130b6565b916001600160f81b03199160649060308382060160f81b841660001a613d0686613136565b5383838083040660300160f81b1660001a613cc38661315c565b5061031f61309956fea264697066735822122060ed62cb9a0093bfc7fa9c939c2df0372d587ebd169e46a3a6380a8c3093f16664736f6c63430008180033",
  "linkReferences": {},
  "deployedLinkReferences": {}
}