{
  "_format": "hh-sol-artifact-1",
  "contractName": "Anglez",
  "sourceName": "contracts/Anglez.sol",
  "abi": [
    {
      "inputs": [],
      "stateMutability": "nonpayable",
      "type": "constructor"
    },
    {
      "inputs": [],
      "name": "ApprovalCallerNotOwnerNorApproved",
      "type": "error"
    },
    {
      "inputs": [],
      "name": "ApprovalQueryForNonexistentToken",
      "type": "error"
    },
    {
      "inputs": [],
      "name": "BalanceQueryForZeroAddress",
      "type": "error"
    },
    {
      "inputs": [
        {
          "internalType": "uint256",
          "name": "numerator",
          "type": "uint256"
        },
        {
          "internalType": "uint256",
          "name": "denominator",
          "type": "uint256"
        }
      ],
      "name": "ERC2981InvalidDefaultRoyalty",
      "type": "error"
    },
    {
      "inputs": [
        {
          "internalType": "address",
          "name": "receiver",
          "type": "address"
        }
      ],
      "name": "ERC2981InvalidDefaultRoyaltyReceiver",
      "type": "error"
    },
    {
      "inputs": [
        {
          "internalType": "uint256",
          "name": "tokenId",
          "type": "uint256"
        },
        {
          "internalType": "uint256",
          "name": "numerator",
          "type": "uint256"
        },
        {
          "internalType": "uint256",
          "name": "denominator",
          "type": "uint256"
        }
      ],
      "name": "ERC2981InvalidTokenRoyalty",
      "type": "error"
    },
    {
      "inputs": [
        {
          "internalType": "uint256",
          "name": "tokenId",
          "type": "uint256"
        },
        {
          "internalType": "address",
          "name": "receiver",
          "type": "address"
        }
      ],
      "name": "ERC2981InvalidTokenRoyaltyReceiver",
      "type": "error"
    },
    {
      "inputs": [],
      "name": "InvalidQueryRange",
      "type": "error"
    },
    {
      "inputs": [],
      "name": "MintERC2309QuantityExceedsLimit",
      "type": "error"
    },
    {
      "inputs": [],
      "name": "MintToZeroAddress",
      "type": "error"
    },
    {
      "inputs": [],
      "name": "MintZeroQuantity",
      "type": "error"
    },
    {
      "inputs": [],
      "name": "NotCompatibleWithSpotMints",
      "type": "error"
    },
    {
      "inputs": [
        {
          "internalType": "address",
          "name": "owner",
          "type": "address"
        }
      ],
      "name": "OwnableInvalidOwner",
      "type": "error"
    },
    {
      "inputs": [
        {
          "internalType": "address",
          "name": "account",
          "type": "address"
        }
      ],
      "name": "OwnableUnauthorizedAccount",
      "type": "error"
    },
    {
      "inputs": [],
      "name": "OwnerQueryForNonexistentToken",
      "type": "error"
    },
    {
      "inputs": [],
      "name": "OwnershipNotInitializedForExtraData",
      "type": "error"
    },
    {
      "inputs": [],
      "name": "SequentialMintExceedsLimit",
      "type": "error"
    },
    {
      "inputs": [],
      "name": "SequentialUpToTooSmall",
      "type": "error"
    },
    {
      "inputs": [],
      "name": "SpotMintTokenIdTooSmall",
      "type": "error"
    },
    {
      "inputs": [],
      "name": "TokenAlreadyExists",
      "type": "error"
    },
    {
      "inputs": [],
      "name": "TransferCallerNotOwnerNorApproved",
      "type": "error"
    },
    {
      "inputs": [],
      "name": "TransferFromIncorrectOwner",
      "type": "error"
    },
    {
      "inputs": [],
      "name": "TransferToNonERC721ReceiverImplementer",
      "type": "error"
    },
    {
      "inputs": [],
      "name": "TransferToZeroAddress",
      "type": "error"
    },
    {
      "inputs": [],
      "name": "URIQueryForNonexistentToken",
      "type": "error"
    },
    {
      "anonymous": false,
      "inputs": [
        {
          "indexed": true,
          "internalType": "address",
          "name": "owner",
          "type": "address"
        },
        {
          "indexed": true,
          "internalType": "address",
          "name": "approved",
          "type": "address"
        },
        {
          "indexed": true,
          "internalType": "uint256",
          "name": "tokenId",
          "type": "uint256"
        }
      ],
      "name": "Approval",
      "type": "event"
    },
    {
      "anonymous": false,
      "inputs": [
        {
          "indexed": true,
          "internalType": "address",
          "name": "owner",
          "type": "address"
        },
        {
          "indexed": true,
          "internalType": "address",
          "name": "operator",
          "type": "address"
        },
        {
          "indexed": false,
          "internalType": "bool",
          "name": "approved",
          "type": "bool"
        }
      ],
      "name": "ApprovalForAll",
      "type": "event"
    },
    {
      "anonymous": false,
      "inputs": [
        {
          "indexed": true,
          "internalType": "uint256",
          "name": "fromTokenId",
          "type": "uint256"
        },
        {
          "indexed": false,
          "internalType": "uint256",
          "name": "toTokenId",
          "type": "uint256"
        },
        {
          "indexed": true,
          "internalType": "address",
          "name": "from",
          "type": "address"
        },
        {
          "indexed": true,
          "internalType": "address",
          "name": "to",
          "type": "address"
        }
      ],
      "name": "ConsecutiveTransfer",
      "type": "event"
    },
    {
      "anonymous": false,
      "inputs": [
        {
          "indexed": true,
          "internalType": "address",
          "name": "previousOwner",
          "type": "address"
        },
        {
          "indexed": true,
          "internalType": "address",
          "name": "newOwner",
          "type": "address"
        }
      ],
      "name": "OwnershipTransferred",
      "type": "event"
    },
    {
      "anonymous": false,
      "inputs": [
        {
          "indexed": true,
          "internalType": "address",
          "name": "from",
          "type": "address"
        },
        {
          "indexed": true,
          "internalType": "address",
          "name": "to",
          "type": "address"
        },
        {
          "indexed": true,
          "internalType": "uint256",
          "name": "tokenId",
          "type": "uint256"
        }
      ],
      "name": "Transfer",
      "type": "event"
    },
    {
      "inputs": [],
      "name": "TOKEN_LIMIT",
      "outputs": [
        {
          "internalType": "uint16",
          "name": "",
          "type": "uint16"
        }
      ],
      "stateMutability": "view",
      "type": "function"
    },
    {
      "inputs": [
        {
          "internalType": "address",
          "name": "to",
          "type": "address"
        },
        {
          "internalType": "uint256",
          "name": "tokenId",
          "type": "uint256"
        }
      ],
      "name": "approve",
      "outputs": [],
      "stateMutability": "payable",
      "type": "function"
    },
    {
      "inputs": [
        {
          "internalType": "address",
          "name": "owner",
          "type": "address"
        }
      ],
      "name": "balanceOf",
      "outputs": [
        {
          "internalType": "uint256",
          "name": "",
          "type": "uint256"
        }
      ],
      "stateMutability": "view",
      "type": "function"
    },
    {
      "inputs": [],
      "name": "contractURI",
      "outputs": [
        {
          "internalType": "string",
          "name": "",
          "type": "string"
        }
      ],
      "stateMutability": "pure",
      "type": "function"
    },
    {
      "inputs": [
        {
          "internalType": "uint256",
          "name": "tokenId",
          "type": "uint256"
        }
      ],
      "name": "explicitOwnershipOf",
      "outputs": [
        {
          "components": [
            {
              "internalType": "address",
              "name": "addr",
              "type": "address"
            },
            {
              "internalType": "uint64",
              "name": "startTimestamp",
              "type": "uint64"
            },
            {
              "internalType": "bool",
              "name": "burned",
              "type": "bool"
            },
            {
              "internalType": "uint24",
              "name": "extraData",
              "type": "uint24"
            }
          ],
          "internalType": "struct IERC721A.TokenOwnership",
          "name": "ownership",
          "type": "tuple"
        }
      ],
      "stateMutability": "view",
      "type": "function"
    },
    {
      "inputs": [
        {
          "internalType": "uint256[]",
          "name": "tokenIds",
          "type": "uint256[]"
        }
      ],
      "name": "explicitOwnershipsOf",
      "outputs": [
        {
          "components": [
            {
              "internalType": "address",
              "name": "addr",
              "type": "address"
            },
            {
              "internalType": "uint64",
              "name": "startTimestamp",
              "type": "uint64"
            },
            {
              "internalType": "bool",
              "name": "burned",
              "type": "bool"
            },
            {
              "internalType": "uint24",
              "name": "extraData",
              "type": "uint24"
            }
          ],
          "internalType": "struct IERC721A.TokenOwnership[]",
          "name": "",
          "type": "tuple[]"
        }
      ],
      "stateMutability": "view",
      "type": "function"
    },
    {
      "inputs": [
        {
          "internalType": "uint256",
          "name": "_tokenId",
          "type": "uint256"
        }
      ],
      "name": "generateSvg",
      "outputs": [
        {
          "internalType": "string",
          "name": "",
          "type": "string"
        }
      ],
      "stateMutability": "view",
      "type": "function"
    },
    {
      "inputs": [
        {
          "internalType": "uint256",
          "name": "tokenId",
          "type": "uint256"
        }
      ],
      "name": "getApproved",
      "outputs": [
        {
          "internalType": "address",
          "name": "",
          "type": "address"
        }
      ],
      "stateMutability": "view",
      "type": "function"
    },
    {
      "inputs": [],
      "name": "getCustomMintPrice",
      "outputs": [
        {
          "internalType": "uint256",
          "name": "",
          "type": "uint256"
        }
      ],
      "stateMutability": "view",
      "type": "function"
    },
    {
      "inputs": [],
      "name": "getRandomMintPrice",
      "outputs": [
        {
          "internalType": "uint256",
          "name": "",
          "type": "uint256"
        }
      ],
      "stateMutability": "view",
      "type": "function"
    },
    {
      "inputs": [
        {
          "internalType": "address",
          "name": "owner",
          "type": "address"
        },
        {
          "internalType": "address",
          "name": "operator",
          "type": "address"
        }
      ],
      "name": "isApprovedForAll",
      "outputs": [
        {
          "internalType": "bool",
          "name": "",
          "type": "bool"
        }
      ],
      "stateMutability": "view",
      "type": "function"
    },
    {
      "inputs": [
        {
          "internalType": "uint24",
          "name": "seed",
          "type": "uint24"
        }
      ],
      "name": "isSeedMinted",
      "outputs": [
        {
          "internalType": "bool",
          "name": "",
          "type": "bool"
        }
      ],
      "stateMutability": "view",
      "type": "function"
    },
    {
      "inputs": [
        {
          "internalType": "uint24",
          "name": "seed",
          "type": "uint24"
        },
        {
          "internalType": "uint8",
          "name": "shapeCount",
          "type": "uint8"
        },
        {
          "internalType": "uint8",
          "name": "zoom",
          "type": "uint8"
        },
        {
          "internalType": "uint8",
          "name": "tintRed",
          "type": "uint8"
        },
        {
          "internalType": "uint8",
          "name": "tintGreen",
          "type": "uint8"
        },
        {
          "internalType": "uint8",
          "name": "tintBlue",
          "type": "uint8"
        },
        {
          "internalType": "uint8",
          "name": "tintAlpha",
          "type": "uint8"
        },
        {
          "internalType": "bool",
          "name": "isCyclic",
          "type": "bool"
        }
      ],
      "name": "mintCustom",
      "outputs": [],
      "stateMutability": "payable",
      "type": "function"
    },
    {
      "inputs": [
        {
          "internalType": "uint24",
          "name": "seed",
          "type": "uint24"
        }
      ],
      "name": "mintRandom",
      "outputs": [],
      "stateMutability": "payable",
      "type": "function"
    },
    {
      "inputs": [],
      "name": "name",
      "outputs": [
        {
          "internalType": "string",
          "name": "",
          "type": "string"
        }
      ],
      "stateMutability": "view",
      "type": "function"
    },
    {
      "inputs": [],
      "name": "owner",
      "outputs": [
        {
          "internalType": "address",
          "name": "",
          "type": "address"
        }
      ],
      "stateMutability": "view",
      "type": "function"
    },
    {
      "inputs": [
        {
          "internalType": "uint256",
          "name": "tokenId",
          "type": "uint256"
        }
      ],
      "name": "ownerOf",
      "outputs": [
        {
          "internalType": "address",
          "name": "",
          "type": "address"
        }
      ],
      "stateMutability": "view",
      "type": "function"
    },
    {
      "inputs": [],
      "name": "renounceOwnership",
      "outputs": [],
      "stateMutability": "nonpayable",
      "type": "function"
    },
    {
      "inputs": [
        {
          "internalType": "uint256",
          "name": "tokenId",
          "type": "uint256"
        },
        {
          "internalType": "uint256",
          "name": "salePrice",
          "type": "uint256"
        }
      ],
      "name": "royaltyInfo",
      "outputs": [
        {
          "internalType": "address",
          "name": "",
          "type": "address"
        },
        {
          "internalType": "uint256",
          "name": "",
          "type": "uint256"
        }
      ],
      "stateMutability": "view",
      "type": "function"
    },
    {
      "inputs": [
        {
          "internalType": "address",
          "name": "from",
          "type": "address"
        },
        {
          "internalType": "address",
          "name": "to",
          "type": "address"
        },
        {
          "internalType": "uint256",
          "name": "tokenId",
          "type": "uint256"
        }
      ],
      "name": "safeTransferFrom",
      "outputs": [],
      "stateMutability": "payable",
      "type": "function"
    },
    {
      "inputs": [
        {
          "internalType": "address",
          "name": "from",
          "type": "address"
        },
        {
          "internalType": "address",
          "name": "to",
          "type": "address"
        },
        {
          "internalType": "uint256",
          "name": "tokenId",
          "type": "uint256"
        },
        {
          "internalType": "bytes",
          "name": "_data",
          "type": "bytes"
        }
      ],
      "name": "safeTransferFrom",
      "outputs": [],
      "stateMutability": "payable",
      "type": "function"
    },
    {
      "inputs": [
        {
          "internalType": "address",
          "name": "operator",
          "type": "address"
        },
        {
          "internalType": "bool",
          "name": "approved",
          "type": "bool"
        }
      ],
      "name": "setApprovalForAll",
      "outputs": [],
      "stateMutability": "nonpayable",
      "type": "function"
    },
    {
      "inputs": [
        {
          "internalType": "uint256",
          "name": "_customMintPrice",
          "type": "uint256"
        }
      ],
      "name": "setCustomMintPrice",
      "outputs": [],
      "stateMutability": "nonpayable",
      "type": "function"
    },
    {
      "inputs": [
        {
          "internalType": "uint256",
          "name": "_randomMintPrice",
          "type": "uint256"
        }
      ],
      "name": "setRandomMintPrice",
      "outputs": [],
      "stateMutability": "nonpayable",
      "type": "function"
    },
    {
      "inputs": [
        {
          "internalType": "bytes4",
          "name": "interfaceId",
          "type": "bytes4"
        }
      ],
      "name": "supportsInterface",
      "outputs": [
        {
          "internalType": "bool",
          "name": "",
          "type": "bool"
        }
      ],
      "stateMutability": "view",
      "type": "function"
    },
    {
      "inputs": [],
      "name": "symbol",
      "outputs": [
        {
          "internalType": "string",
          "name": "",
          "type": "string"
        }
      ],
      "stateMutability": "view",
      "type": "function"
    },
    {
      "inputs": [
        {
          "internalType": "uint256",
          "name": "_tokenId",
          "type": "uint256"
        }
      ],
      "name": "tokenURI",
      "outputs": [
        {
          "internalType": "string",
          "name": "",
          "type": "string"
        }
      ],
      "stateMutability": "view",
      "type": "function"
    },
    {
      "inputs": [
        {
          "internalType": "address",
          "name": "owner",
          "type": "address"
        }
      ],
      "name": "tokensOfOwner",
      "outputs": [
        {
          "internalType": "uint256[]",
          "name": "",
          "type": "uint256[]"
        }
      ],
      "stateMutability": "view",
      "type": "function"
    },
    {
      "inputs": [
        {
          "internalType": "address",
          "name": "owner",
          "type": "address"
        },
        {
          "internalType": "uint256",
          "name": "start",
          "type": "uint256"
        },
        {
          "internalType": "uint256",
          "name": "stop",
          "type": "uint256"
        }
      ],
      "name": "tokensOfOwnerIn",
      "outputs": [
        {
          "internalType": "uint256[]",
          "name": "",
          "type": "uint256[]"
        }
      ],
      "stateMutability": "view",
      "type": "function"
    },
    {
      "inputs": [],
      "name": "totalSupply",
      "outputs": [
        {
          "internalType": "uint256",
          "name": "result",
          "type": "uint256"
        }
      ],
      "stateMutability": "view",
      "type": "function"
    },
    {
      "inputs": [
        {
          "internalType": "address",
          "name": "from",
          "type": "address"
        },
        {
          "internalType": "address",
          "name": "to",
          "type": "address"
        },
        {
          "internalType": "uint256",
          "name": "tokenId",
          "type": "uint256"
        }
      ],
      "name": "transferFrom",
      "outputs": [],
      "stateMutability": "payable",
      "type": "function"
    },
    {
      "inputs": [
        {
          "internalType": "address",
          "name": "newOwner",
          "type": "address"
        }
      ],
      "name": "transferOwnership",
      "outputs": [],
      "stateMutability": "nonpayable",
      "type": "function"
    },
    {
      "inputs": [],
      "name": "withdraw",
      "outputs": [],
      "stateMutability": "nonpayable",
      "type": "function"
    }
  ],
  "bytecode": "0x608060405234620001aa5762000014620001c5565b60206520b733b632bd60d11b60208301526200002f620001e9565b6320a3a62d60e11b60208201528251929091906001600160401b038411620001a4576200006984620000636002546200020d565b6200024a565b602091601f85116001146200011357509280620000a392620000ac9560009262000107575b50508160011b916000199060031b1c19161790565b60025562000300565b600080553315620000ee57620000c233620003ee565b620000cd6000600c55565b620000de662386f26fc10000600d55565b6040516137679081620004388239f35b604051631e4fbdf760e01b815260006004820152602490fd5b0151905038806200008e565b60026000529190601f1985167f405787fa12a823e0f2b7631cc41b3ba8828b3321ca811111fa75cd3aa3bb5ace936000905b8282106200018b575050916001939186620000ac97941062000171575b505050811b0160025562000300565b015160001960f88460031b161c1916905538808062000162565b8060018697829497870151815501960194019062000145565b620001af565b600080fd5b634e487b7160e01b600052604160045260246000fd5b60408051919082016001600160401b03811183821017620001a45760405260068252565b60408051919082016001600160401b03811183821017620001a45760405260048252565b90600182811c921680156200023f575b60208310146200022957565b634e487b7160e01b600052602260045260246000fd5b91607f16916200021d565b601f811162000257575050565b60009060026000526020600020906020601f850160051c830194106200029a575b601f0160051c01915b8281106200028e57505050565b81815560010162000281565b909250829062000278565b601f8111620002b2575050565b60009060036000526020600020906020601f850160051c83019410620002f5575b601f0160051c01915b828110620002e957505050565b818155600101620002dc565b9092508290620002d3565b80519091906001600160401b038111620001a4576200032c81620003266003546200020d565b620002a5565b602080601f83116001146200036657508190620003619394600092620001075750508160011b916000199060031b1c19161790565b600355565b6003600052601f198316949091907fc2575a0e9e593c00f959f8c92f12db2869c3395a3b0502d05e2516446f71f85b926000905b878210620003d5575050836001959610620003bb575b505050811b01600355565b015160001960f88460031b161c19169055388080620003b0565b806001859682949686015181550195019301906200039a565b600b80546001600160a01b039283166001600160a01b0319821681179092559091167f8be0079c531659141344cd1fd0a4f28419497f9722a3daafe3b4186f6b6457e0600080a356fe6080604052600436101561001257600080fd5b60003560e01c806301ffc9a714610227578063031bd4c41461022257806306fdde031461021d578063081812fc14610218578063095ea7b31461021357806318160ddd1461020e57806323b872dd146102095780632a55205a146102045780633ccfd60b146101ff57806342842e0e146101fa578063476f49fa146101f557806357bf214d146101f05780635bbb2177146101eb5780636352211e146101e65780636f59b3c8146101e157806370a08231146101dc578063715018a6146101d757806372655e5b146101d25780637dab8cfc146101cd5780638462151c146101c85780638da5cb5b146101c357806395d89b41146101be578063960c41d6146101b957806399a2557a146101b4578063a22cb465146101af578063b88d4fde146101aa578063bc921dc2146101a5578063bd2a3c62146101a0578063c23dc68f1461019b578063c87b56dd14610196578063e8a3d48514610191578063e985e9c51461018c5763f2fde38b1461018757600080fd5b611666565b611604565b61158e565b611392565b61132d565b6111c0565b61118d565b611109565b610f71565b610de7565b610dc9565b610d03565b610cdc565b610b6b565b610b11565b61097f565b6108bb565b610890565b61086f565b610840565b6107da565b61071e565b6106eb565b6106c8565b610676565b6105cc565b6105b8565b610560565b6104a1565b610421565b610312565b610299565b610243565b6001600160e01b031981160361023e57565b600080fd5b3461023e57602036600319011261023e5760206004356102628161022c565b63ffffffff60e01b1663152a902d60e11b8114908115610288575b506040519015158152f35b6301ffc9a760e01b1490503861027d565b3461023e57600036600319011261023e5760206040516102008152f35b60005b8381106102c95750506000910152565b81810151838201526020016102b9565b906020916102f2815180928185528580860191016102b6565b601f01601f1916010190565b90602061030f9281815201906102d9565b90565b3461023e5760008060031936011261041e576040519080600254906001918060011c9260018216928315610414575b6020926020861085146104005785885260208801949081156103df5750600114610386575b61038287610376818903826110af565b604051918291826102fe565b0390f35b600260005294509192917f405787fa12a823e0f2b7631cc41b3ba8828b3321ca811111fa75cd3aa3bb5ace5b8386106103ce5750505091019050610376826103823880610366565b8054858701529482019481016103b2565b60ff191685525050505090151560051b019050610376826103823880610366565b634e487b7160e01b82526022600452602482fd5b93607f1693610341565b80fd5b3461023e57602036600319011261023e5760043561043e81611ebd565b1561046457600052600660205260206001600160a01b0360406000205416604051908152f35b6333d1c03960e21b60005260046000fd5b600435906001600160a01b038216820361023e57565b602435906001600160a01b038216820361023e57565b604036600319011261023e576104b5610475565b6024356001600160a01b0391826104cb83611f54565b1680330361051d575b600093838552600660205260408520921691826001600160a01b03198254161790557f8c5be1e5ebec7d5bd14f71427d1e84f3dd0314c0f7b2291e5b200ac8c7c3b9258480a480f35b80600052600760205260ff610549336040600020906001600160a01b0316600052602052604060002090565b54166104d4576367d9dca160e11b60005260046000fd5b3461023e57600036600319011261023e5760206000546001549003604051908152f35b606090600319011261023e576001600160a01b0390600435828116810361023e5791602435908116810361023e579060443590565b6105ca6105c436610583565b916116ed565b005b3461023e57604036600319011261023e57600435600052600a6020526040600020604051906105fa8261103f565b54906001600160a01b0382169182825260a01c60208201529015610668575b61064c61271061063d6bffffffffffffffffffffffff60208501511660243561191d565b0491516001600160a01b031690565b604080516001600160a01b039290921682526020820192909252f35b5061067161189a565b610619565b3461023e5760008060031936011261041e57610690611fd1565b808080806001600160a01b03600b541647908282156106bf575bf1156106b35780f35b604051903d90823e3d90fd5b506108fc6106aa565b6105ca6106d436610583565b90604051926106e284611077565b60008452611c19565b3461023e57602036600319011261023e57610704611fd1565b600435600d55005b6004359062ffffff8216820361023e57565b3461023e57602036600319011261023e5762ffffff61073b61070c565b16600052600f602052602060ff604060002054166040519015158152f35b602090602060408183019282815285518094520193019160005b828110610781575050505090565b90919293826080826107ce600194895162ffffff606080926001600160a01b03815116855267ffffffffffffffff6020820151166020860152604081015115156040860152015116910152565b01950193929101610773565b3461023e57602036600319011261023e5767ffffffffffffffff60043581811161023e573660238201121561023e57806004013591821161023e573660248360051b8301011161023e57610382916024610834920161196b565b60405191829182610759565b3461023e57602036600319011261023e5760206001600160a01b03610866600435611f54565b16604051908152f35b3461023e57602036600319011261023e57610888611fd1565b600435600c55005b3461023e57602036600319011261023e5760206108b36108ae610475565b6119ab565b604051908152f35b3461023e5760008060031936011261041e576108d5611fd1565b806001600160a01b03600b5481198116600b55167f8be0079c531659141344cd1fd0a4f28419497f9722a3daafe3b4186f6b6457e08280a380f35b6024359060ff8216820361023e57565b6044359060ff8216820361023e57565b6064359060ff8216820361023e57565b6084359060ff8216820361023e57565b60a4359060ff8216820361023e57565b60c4359060ff8216820361023e57565b60e43590811515820361023e57565b61010036600319011261023e576105ca610aec61099a61070c565b610a026109a5610910565b610ac883610abf6109b4610920565b936109bd610930565b610a8b6109c8610940565b610a816109d3610950565b610a776109de610960565b93610a27610a22610a1e610a176109f3610970565b9d610a02600d543410156119e6565b62ffffff16600052600f602052604060002090565b5460ff1690565b1590565b611a32565b610a4060ff891660028110159081610b05575b50611a7e565b610a5960ff8d1660328110159081610af9575b50611aca565b610a6d610a646110d1565b60ff9098168852565b60ff166020870152565b60ff166040850152565b60ff166060830152565b610ab0610a966110e0565b62ffffff8a168152966001602089015260ff166040880152565b606086015260ff166080850152565b151560a0830152565b610ae7600054610ad733611ffd565b600052600e602052604060002090565b611b05565b805460ff19166001179055565b60649150111538610a53565b60149150111538610a3a565b3461023e57600036600319011261023e576020600d54604051908152f35b602090602060408183019282815285518094520193019160005b828110610b57575050505090565b835185529381019392810192600101610b49565b3461023e57602036600319011261023e57610b84610475565b60005490606080918315918215610ba4575b604051806103828682610b2f565b90919250600093606093610cd757610bbb836119ab565b9182610bd3575b505050506103829150388080610b96565b909180939450821115610cce575b604051936001840160051b8501604052610bf9611e4d565b600090610c0c610a1e6040830151151590565b610cbc575b509560009360015b15610c8e575b600097610c2b836126f7565b604081015115610c5357505060016000925b01976001870160051b8801604052979197610c19565b9290925180610c86575b50838318851b15610c71575b600190610c3d565b6001909501600581901b880186905294610c69565b925038610c5d565b8082148015610cb3575b15610c1f575050505090506103829250815238808080610bc2565b50858514610c98565b516001600160a01b0316905038610c11565b91508091610be1565b611f43565b3461023e57600036600319011261023e5760206001600160a01b03600b5416604051908152f35b3461023e5760008060031936011261041e576040519080600354906001918060011c9260018216928315610dbf575b6020926020861085146104005785885260208801949081156103df5750600114610d665761038287610376818903826110af565b600360005294509192917fc2575a0e9e593c00f959f8c92f12db2869c3395a3b0502d05e2516446f71f85b5b838610610dae5750505091019050610376826103823880610366565b805485870152948201948101610d92565b93607f1693610d32565b3461023e57600036600319011261023e576020600c54604051908152f35b3461023e5760608060031936011261023e57610e01610475565b90602435916044358360609382861015610cd75760005480841015610f69575b50610e2b846119ab565b9183871015610f60575b82610e49575b604051806103828882610b2f565b90919293945085840383811115610f58575b5060409260405195600193600591610e7f6001850160051b8a019a8b604052611e8e565b93600094610e93610a1e6040830151151590565b610f46575b506000989495946001885b610ec3575b50505050505050505050610382925081523880808080610e3b565b15610f28575b600096610ed5876126f7565b808b015115610ef25750508787965b0196888d8b52979697610ea3565b9690965180610f20575b50838718851b15610f0f575b8890610ee4565b99880180861b8c018b905299610f08565b965038610efc565b8086148015610f3d575b15610ec95780610ea8565b50818a14610f32565b516001600160a01b0316945038610e98565b925038610e5b565b60009250610e35565b925038610e21565b3461023e57604036600319011261023e57610f8a610475565b6024359081151580920361023e576001600160a01b0390336000526007602052610fcb816040600020906001600160a01b0316600052602052604060002090565b60ff1981541660ff851617905560405192835216907f17307eab39ab6107e8899845ad3d59bd9653f200f220920489ca2b5937696c3160203392a3005b634e487b7160e01b600052604160045260246000fd5b60c0810190811067ffffffffffffffff82111761103a57604052565b611008565b6040810190811067ffffffffffffffff82111761103a57604052565b6080810190811067ffffffffffffffff82111761103a57604052565b6020810190811067ffffffffffffffff82111761103a57604052565b6060810190811067ffffffffffffffff82111761103a57604052565b90601f8019910116810190811067ffffffffffffffff82111761103a57604052565b604051906110de8261105b565b565b604051906110de8261101e565b67ffffffffffffffff811161103a57601f01601f191660200190565b608036600319011261023e5761111d610475565b61112561048b565b6064359167ffffffffffffffff831161023e573660238401121561023e57826004013591611152836110ed565b9261116060405194856110af565b808452366024828701011161023e5760208160009260246105ca9801838801378501015260443591611c19565b3461023e57602036600319011261023e576103826111ac600435611cc9565b6040519182916020835260208301906102d9565b602036600319011261023e576105ca610aec6111da61070c565b6111e8600c543410156119e6565b61120a610a22610a1e610a178462ffffff16600052600f602052604060002090565b61121a611215611d15565b61238e565b61122862ffffff82166123c1565b610a0261124761124261123a84611d4e565b62ffffff1690565b6124a3565b611252611215611def565b61125e60ff82166123c1565b610ac861127561127061123a86611d62565b6124d2565b610abf61128c61128761123a88611d76565b612501565b9161129c61128761123a89611d8a565b9261130888610a816112b361128761123a84611d9e565b610a7760016112fb6112f661123a6112f06112ea6112e36112de6112d961123a8d611db2565b612522565b6118d6565b6064900490565b60ff1690565b97611dc6565b61254e565b1498610a6d610a646110d1565b610ab06113136110e0565b62ffffff8a168152966000602089015260ff166040880152565b3461023e57602036600319011261023e57608061134b600435611e8e565b611390604051809262ffffff606080926001600160a01b03815116855267ffffffffffffffff6020820151166020860152604081015115156040860152015116910152565bf35b3461023e57602036600319011261023e576103826114ae6103766004356113c06113bb82611ebd565b611c5c565b6115806115726113cf8361280e565b9280600052600e6020526114a861154961145f611459604060002061145460ff6002604051936113fe8561101e565b61142983825462ffffff81168852818160181c161515602089015260201c16604087019060ff169052565b61143560018201611c91565b6060860152015460ff82821616608085015260081c16151560a0830152565b6128e3565b93611cc9565b926114a8604051998a986114a860208b016025907f646174613a6170706c69636174696f6e2f6a736f6e2c7b226e616d65223a2241815264474c5a202360d81b60208201520190565b90611ea6565b7f3a2062656175746966756c2c20636f6c6f7266756c2c2061627374726163742081527f616e676c657a222c226465736372697074696f6e223a2022416e676c657a206960208201527f73206f6e2d636861696e2c2067656e65726174697665204e465420617274202d60408201527f2068747470733a2f2f616e676c657a2e78797a222c2000000000000000000000606082015260760190565b7f2c2022696d616765223a2022646174613a696d6167652f7376672b786d6c2c008152601f0190565b61227d60f01b815260020190565b03601f1981018352826110af565b3461023e57600036600319011261023e576103826040516115ae81611093565b602f81527f68747470733a2f2f6d696e742e6265796f6e6468756d616e2e61692f73746f7260208201526e6566726f6e742d6d6574616461746160881b60408201526040519182916020835260208301906102d9565b3461023e57604036600319011261023e57602060ff61165a611624610475565b6001600160a01b0361163461048b565b9116600052600784526040600020906001600160a01b0316600052602052604060002090565b54166040519015158152f35b3461023e57602036600319011261023e5761167f610475565b611687611fd1565b6001600160a01b038091169081156116d457600b54826001600160a01b0319821617600b55167f8be0079c531659141344cd1fd0a4f28419497f9722a3daafe3b4186f6b6457e0600080a3005b604051631e4fbdf760e01b815260006004820152602490fd5b9190916116f982611f54565b926001600160a01b0380921693848382160361189557600084815260066020526040902080546117386001600160a01b03881633908114908314171590565b61184c575b611842575b50611760856001600160a01b03166000526005602052604060002090565b8054600019019055611785826001600160a01b03166000526005602052604060002090565b805460010190556001600160a01b0382164260a01b17600160e11b176117b5856000526004602052604060002090565b55600160e11b8116156117f8575b501680927fddf252ad1be2c89b69c2b068fc378daa952ba7f163c4a11628f55a4df523b3ef600080a4156117f357565b611f21565b60018401611810816000526004602052604060002090565b541561181d575b506117c3565b60005481146118175761183a906000526004602052604060002090565b553880611817565b6000905538611742565b61188b610a1e610a17336118738b6001600160a01b03166000526007602052604060002090565b906001600160a01b0316600052602052604060002090565b1561173d57611f10565b611f00565b604051906118a78261103f565b6009546001600160a01b038116835260a01c6020830152565b634e487b7160e01b600052601160045260246000fd5b9060ff82029180830460ff14901517156118ec57565b6118c0565b906064820291808304606414901517156118ec57565b90600a820291808304600a14901517156118ec57565b818102929181159184041417156118ec57565b634e487b7160e01b600052601260045260246000fd5b8015611953576101680490565b611930565b6040519061196582611077565b60008252565b6040519180835260051b6020818401016040525b808180156119a45761199b90601f198091019385010135611e8e565b9084015261197f565b5050505090565b6001600160a01b031680156119d557600052600560205267ffffffffffffffff6040600020541690565b6323d3ad8160e21b60005260046000fd5b156119ed57565b60405162461bcd60e51b815260206004820152601460248201527f496e73756666696369656e74207061796d656e740000000000000000000000006044820152606490fd5b15611a3957565b60405162461bcd60e51b815260206004820152601160248201527f5365656420616c726561647920757365640000000000000000000000000000006044820152606490fd5b15611a8557565b60405162461bcd60e51b815260206004820152601360248201527f496e76616c696420736861706520636f756e74000000000000000000000000006044820152606490fd5b15611ad157565b60405162461bcd60e51b815260206004820152600c60248201526b496e76616c6964207a6f6f6d60a01b6044820152606490fd5b90611bfe60a060026110de94611b4462ffffff86511662ffffff19835416178083556020870151151563ff0000009060181b169063ff00000019161790565b80825564ff00000000604087015160201b169064ff00000000191617815560018101611bd26060870151611b8660ff825116849060ff1660ff19825416179055565b6020810151835461ff00191660089190911b61ff0016179060ff606062ff0000604084015160101b16920151169162ff00001916179063ff0000009060181b169063ff00000019161790565b90550192611bf7611be7608083015160ff1690565b855460ff191660ff909116178555565b0151151590565b908054909161ff001990911690151560081b61ff0016179055565b929190611c278282866116ed565b803b611c34575b50505050565b611c3d93612110565b15611c4b5738808080611c2e565b6368d2bf6b60e11b60005260046000fd5b15611c6357565b60405162461bcd60e51b815260206004820152600660248201526510905117d25160d21b6044820152606490fd5b90604051611c9e8161105b565b606060ff8294548181168452818160081c166020850152818160101c16604085015260181c16910152565b611cd281611ebd565b80611d0a575b611ce190611c5c565b600052600e60205261030f6040600020611d0560ff6002604051936113fe8561101e565b6121d9565b506102008110611cd8565b60405190611d228261103f565b601382527f4d696e74696e67207769746820736565643a20000000000000000000000000006020830152565b90600362ffffff809316019182116118ec57565b90600562ffffff809316019182116118ec57565b90600662ffffff809316019182116118ec57565b90600762ffffff809316019182116118ec57565b90600862ffffff809316019182116118ec57565b90600962ffffff809316019182116118ec57565b90600462ffffff809316019182116118ec57565b9061012c62ffffff809316019182116118ec57565b60405190611dfc8261103f565b601382527f4d696e74696e672077697468207a6f6f6d3a20000000000000000000000000006020830152565b60405190611e358261105b565b60006060838281528260208201528260408201520152565b6000906000611e5a611e28565b92600054611e66575050565b92505b80835260046020526040832054611e835760001901611e69565b61030f9192506126f7565b90611e97611e28565b91600080548210611e66575050565b90611eb9602092828151948592016102b6565b0190565b90600091600080548210611ecf575050565b92505b8083526004602052604083205480611ef4575080156118ec5760001901611ed2565b600160e01b1615925050565b62a1148160e81b60005260046000fd5b632ce44b5f60e11b60005260046000fd5b633a954ecd60e21b60005260046000fd5b636f96cda160e11b60005260046000fd5b631960ccad60e11b60005260046000fd5b611f68816000526004602052604060002090565b54908115611f7f5750600160e01b8116611f325790565b9050600090600054811015611f32575b60001901600081815260046020526040902054908115611fca5750600160e01b811615611fc557636f96cda160e11b8252600482fd5b905090565b9050611f8f565b6001600160a01b03600b54163303611fe557565b60405163118cdaa760e01b8152336004820152602490fd5b60008054916001600160a01b03908082164260a01b17600160e11b1761202d856000526004602052604060002090565b5561204b816001600160a01b03166000526005602052604060002090565b6801000000000000000181540190551680156120bd57600183810193919080805b612078575b5050505055565b156120ac575b83818484877fddf252ad1be2c89b69c2b068fc378daa952ba7f163c4a11628f55a4df523b3ef8180a461206c565b8092019184830361207e5780612071565b622e076360e81b8252600482fd5b9081602091031261023e575161030f8161022c565b3d1561210b573d906120f1826110ed565b916120ff60405193846110af565b82523d6000602084013e565b606090565b9260209161215a9360006001600160a01b0360405180978196829584630a85bd0160e11b9c8d865233600487015216602485015260448401526080606484015260848301906102d9565b0393165af160009181612197575b50612189576121756120e0565b80511561218457805190602001fd5b611c4b565b6001600160e01b0319161490565b6121ba91925060203d6020116121c1575b6121b281836110af565b8101906120cb565b9038612168565b503d6121a8565b60ff166096039060ff82116118ec57565b61030f61232d916122cc61237a61236461225f6114a861233b61221361220e6112ea61220960408b015160ff1690565b6121c8565b612c53565b6122886040989298519586926114a8602085016026907f3c646566733e3c636c6970506174682069643d276d6173746572436c6970273e81526501e3932b1ba160d51b60208201520190565b7f2f3e3c2f636c6970506174683e3c2f646566733e000000000000000000000000815260140190565b039761229c601f19998a81018752866110af565b60a081015115612386576122c66122c161123a6122bc845162ffffff1690565b611dda565b612568565b90612f05565b926114a86040519a8b986114a860208b016031907f3c73766720786d6c6e733d27687474703a2f2f7777772e77332e6f72672f323081527f30302f737667272076696577426f783d2700000000000000000000000000000060208201520190565b61139f60f11b815260020190565b7f3c6720636c69702d706174683d2775726c28236d6173746572436c697029273e815260200190565b691e17b39f1e17b9bb339f60b11b8152600a0190565b039081018352826110af565b600190612f05565b6115806123bc6110de9260405192839163104c13eb60e21b60208401526020602484015260448301906102d9565b6134bb565b6110de906040519063f82c50f160e01b60208301526024820152602481526123bc81611093565b906101f49182039182116118ec57565b6101f3198101919082116118ec57565b906101f49182018092116118ec57565b90602882018092116118ec57565b90603282018092116118ec57565b90601082018092116118ec57565b90601482018092116118ec57565b90601182018092116118ec57565b90600f82018092116118ec57565b90600d82018092116118ec57565b90600e82018092116118ec57565b90606482018092116118ec57565b919082018092116118ec57565b60339060405160208101918252602081526124bd8161103f565b51902006603281018091116118ec5760ff1690565b60039060405160208101918252602081526124ec8161103f565b51902016600581018091116118ec5760ff1690565b60ff90604051602081019182526020815261251b8161103f565b5190201690565b605190604051602081019182526020815261253c8161103f565b51902006600a81018091116118ec5790565b600190604051602081019182526020815261251b8161103f565b60079060405160208101918252602081526125828161103f565b51902006600281018091116118ec5790565b60039060405160208101918252602081526125ae8161103f565b51902006600381018091116118ec5790565b6103e99060405160208101918252602081526125db8161103f565b5190200690565b601f9060405160208101918252602081526125fc8161103f565b51902006603281018091116118ec5790565b603d9060405160208101918252602081526126288161103f565b51902006601e81018091116118ec5790565b60159060405160208101918252602081526126548161103f565b51902006605081018091116118ec5790565b60339060405160208101918252602081526126808161103f565b51902006602881018091116118ec5790565b60018211156126d55760405160208101918252602081526126b28161103f565b519020816000198101116118ec5781156119535706600181018091116118ec5790565b5050600190565b6101699060405160208101918252602081526125db8161103f565b6126ff611e28565b506000526004602052604060002054612716611e28565b906001600160a01b038116825267ffffffffffffffff8160a01c166020830152600160e01b81161515604083015260e81c606082015290565b6040519061275c8261103f565b60018252600360fc1b6020830152565b604051906127798261103f565b6003825260203681840137565b604051906127938261103f565b6002825260203681840137565b604051906127ad8261103f565b6001825260203681840137565b8051600210156127ca5760220190565b634e487b7160e01b600052603260045260246000fd5b8051600110156127ca5760210190565b8051156127ca5760200190565b9081518110156127ca570160200190565b801561289957806000826000935b61288a575061282a836110ed565b9261283860405194856110af565b808452601f19612847826110ed565b01366020860137825b61285a5750505090565b6000190191600a9060308282060160f81b6001600160f81b031916831a61288185876127fd565b53049182612850565b926001600a910193048061281c565b5061030f61274f565b604051906128af8261103f565b600582526466616c736560d81b6020830152565b604051906128d08261103f565b60048252637472756560e01b6020830152565b606081019061290d6129066129016112ea606086510160ff90511690565b6118f1565b60ff900490565b9161292661292161123a845162ffffff1690565b61280e565b916129346020820151151590565b15612c45576129416128c3565b935b6129576129216112ea608085015160ff1690565b9261296c6129216112ea604086015160ff1690565b61297f6129216112ea845160ff90511690565b906129c160a06129b96129b36129216112ea60406129a96129216112ea60208d510160ff90511690565b9951015160ff1690565b9661280e565b960151151590565b15612c37576129ce6128c3565b955b6040516e2261747472696275746573223a205b60881b6020820152988998602f8a017f7b2274726169745f74797065223a202273656564222c202276616c7565223a208152601160f91b6020820152602101612a2b91611ea6565b62089f4b60ea1b81526003017f7b2274726169745f74797065223a2022637573746f6d222c202276616c7565228152621d101160e91b6020820152602301612a7291611ea6565b62089f4b60ea1b81526003017f7b2274726169745f74797065223a2022736861706573222c202276616c7565228152621d101160e91b6020820152602301612ab991611ea6565b62089f4b60ea1b81526003017f7b2274726169745f74797065223a20227a6f6f6d222c202276616c7565223a208152601160f91b6020820152602101612afe91611ea6565b62089f4b60ea1b81526003017f7b2274726169745f74797065223a202274696e7420636f6c6f72222c2022766181526a0d8eaca44744044e4cec4560ab1b6020820152602b01612b4d91611ea6565b61016160f51b8152600201612b6191611ea6565b61016160f51b8152600201612b7591611ea6565b630a489f4b60e21b81526004017f7b2274726169745f74797065223a202274696e74207472616e73706172656e6381526d3c911610113b30b63ab2911d101160911b6020820152602e01612bc891611ea6565b6309489f4b60e21b81526004017f7b2274726169745f74797065223a20226379636c6963222c202276616c7565228152621d101160e91b6020820152602301612c1091611ea6565b61227d60f01b8152600201605d60f81b815260010103601f198101825261030f90826110af565b612c3f6128a2565b956129d0565b612c4d6128a2565b93612943565b612c5c90611907565b90612c6961292183612408565b6101f480841115612d915750612d8d612c90612921612c8a612d49966123f8565b60011c90565b604051602d60f81b60208201529290612d81612d7485612cf0612cea612cd7612ce481612cd1612cc3602188018b611ea6565b61202d60f01b815260020190565b89611ea6565b600160fd1b815260010190565b88611ea6565b86611ea6565b0393612d04601f19958681018952886110af565b6114a8612d5e612d316040519b8c976114a8612d37612d3160208c0160049063783d272d60e01b81520190565b83611ea6565b652720793d272d60d01b815260060190565b68272077696474683d2760b81b815260090190565b6927206865696768743d2760b01b8152600a0190565b602760f81b815260010190565b039081018552846110af565b9190565b612d4993908103612e265750612d8d612daa600061280e565b9160405192612d81612d7485612dd5612cea612cd7612ce4612cd7612cd1612cd7602088018b611ea6565b0393612de9601f19958681018952886110af565b6114a8612d5e612d316040519b8c976114a8612e15612d3160208c0160039062783d2760e81b81520190565b642720793d2760d81b815260050190565b612daa612921612c8a612d8d936123e8565b60405190612e458261103f565b601b82527f424547494e4e494e47204c4f4f502072616e646f6d536565643a2000000000006020830152565b60405190612e7e8261103f565b6006825265706f696e747360d01b6020830152565b60405190612ea08261103f565b602082527f72616e646f6d53656564206265666f726520696e6372656d656e74696e673a206020830152565b60405190612ed98261103f565b601f82527f72616e646f6d5365656420616674657220696e6372656d656e74696e673a20006020830152565b612f0d611958565b916103e890600090612f2561123a855162ffffff1690565b926000955b612f3b6112ea608088015160ff1690565b8710156134b1578490612f4f611215612e38565b612f58826123c1565b612f6a612f658984612496565b612594565b90612f73611958565b9160005b8a8282106133fe57505050909150612f90611215612e71565b612f99886123c1565b612fa28261238e565b600484109182156133d257612fc7612fc2612fbd8b8a612496565b612434565b61263a565b50612fe2612fdd612fd88b8a612496565b612442565b612666565b925b612ff686612ff18a612450565b612692565b8a612fff611958565b9360009361300c84611946565b9480935b8d86861061329857945094505050506130299250612496565b6130329061245e565b61303b906126dc565b92896130468161280e565b946130509061280e565b9161305b828b612496565b6130649061246c565b60608c01908151613074916134d6565b9061307f848d612496565b6130889061247a565b8151613093916134d6565b9261309d9061280e565b936130a8908d612496565b6130b19061245e565b90516130bc916134d6565b93604051978897602089016130d091611ea6565b7f3c6c696e6561724772616469656e742069643d276772616469656e74000000008152601c016130ff91611ea6565b7f27206772616469656e745472616e73666f726d3d27726f7461746528000000008152601c0161312e91611ea6565b6214939f60e91b81526003017f3c73746f70206f66667365743d273025272073746f702d636f6c6f723d2700008152601e0161316991611ea6565b6213979f60e91b81526003017f3c73746f70206f66667365743d27353025272073746f702d636f6c6f723d27008152601f016131a491611ea6565b6f272073746f702d6f7061636974793d2760801b81526010016131c691611ea6565b631293979f60e11b81526004017f3c73746f70206f66667365743d2731303025272073746f702d636f6c6f723d27815260200161320291611ea6565b6213979f60e91b81526003017f3c2f6c696e6561724772616469656e743e000000000000000000000000000000815260110161323d91611ea6565b03601f198101825261324f90826110af565b93613258612e93565b6132619061238e565b61326a816123c1565b61327390612488565b9561327c612ecc565b6132859061238e565b61328e876123c1565b6001019593612f2a565b9787986132c86132a78561280e565b936132b18161280e565b9287156133bd57612fbd61292192612fc292612496565b90604051938493602085016132dc91611ea6565b7f3c706f6c79676f6e20706f696e74733d27000000000000000000000000000000815260110161330c9089611ea6565b7f27207472616e73666f726d3d27726f7461746528000000000000000000000000815260140161333b91611ea6565b7f2c203530302c2035303029272066696c6c3d2775726c28236772616469656e74815260200161336a91611ea6565b6b2927206f7061636974793d2760a01b8152600c0161338891611ea6565b64129390179f60d91b815260050103601f19810182526133a890826110af565b966133b291612496565b92600101928e613010565b612fbd612921926133cd92612496565b6125e2565b6133e26133cd612fbd8b8a612496565b506133f86133f3612fd88b8a612496565b61260e565b92612fe4565b81929394611580612cd761344b61343b61344687613431886134408f6134366114a89d6134316134819e61343b94612496565b612496565b612418565b6125c0565b9e612496565b612426565b6114a861347461346361345d8d61280e565b9361280e565b926040519889976020890190611ea6565b600b60fa1b815260010190565b938781116134a9575b8581106134a0575b506001019087939291612f77565b94506001613492565b96508661348a565b9550505050505090565b600080916020815191016a636f6e736f6c652e6c6f675afa50565b6134df81612501565b9060ff916134fa8385511691606086019285845116916135ed565b93600283018084116118ec5761351261352391612501565b8560208401511686855116916135ed565b91600184018094116118ec5761356261355c61356e93613568938861030f99604061354f60299b612501565b94015116915116916135ed565b96613656565b92613656565b94613656565b604051948592630e4cec4560e31b60208501526135958151809260206024880191016102b6565b83019061016160f51b918260248201526135b98251809360206026850191016102b6565b019060268201526135d48251809360206028850191016102b6565b01602960f81b60288201520360098101845201826110af565b9060ff9282811561361357849280821161360957030204011690565b9003020490031690565b5050501690565b1561362157565b60405162461bcd60e51b815260206004820152600d60248201526c696e70757420746f6f2062696760981b6044820152606490fd5b613663610100821061361a565b801561289957600a908181101561369f5761367c6127a0565b91603091060160f81b6001600160f81b03191660001a61369b826127f0565b5390565b60648110156136ea576136b0612786565b916001600160f81b031991819060308282060160f81b841660001a6136d4866127e0565b53040660300160f81b1660001a61369b826127f0565b6136f261276c565b916001600160f81b03199160649060308382060160f81b841660001a613717866127ba565b5383838083040660300160f81b1660001a6136d4866127e056fea2646970667358221220130fc25a0e2d294e56b59401eef22d0195c123002056e301a4e0158e1819c1ac64736f6c63430008180033",
  "linkReferences": {},
  "deployedLinkReferences": {}
}